:020000040800F2
:10000000D00B002079020008395C00086154000818
:10001000355C0008A90B00085172000800000000C0
:100020000000000000000000000000006D640008F7
:10003000950C0008000000003D5C00086F6400089B
:10004000930200089302000893020008930200083C
:10005000930200089302000893020008930200082C
:10006000930200089302000893020008BD0B0008E9
:10007000CD0B0008930200089302000893020008C9
:1000800093020008930200089302000893020008FC
:10009000930200089D0C0008AD0C000893020008B4
:1000A00093020008930200089302000893020008DC
:1000B00093020008930200089302000893020008CC
:1000C00093020008930200089302000893020008BC
:1000D00093020008930200089302000893020008AC
:1000E000930200089302000893020008930200089C
:1000F000930200089302000893020008930200088C
:10010000930200089302000893020008930200087B
:10011000930200089302000893020008930200086B
:10012000930200089302000893020008930200085B
:10013000930200089302000893020008930200084B
:100140009302000893020008AD0B00089302000818
:10015000930200089302000893020008930200082B
:10016000930200089302000893020008930200081B
:10017000930200089302000893020008930200080B
:1001800093020008930200089302000893020008FB
:100190009302000800000000BD0C0008CD0C000810
:1001A000DD0C0008ED0C0008930200089302000823
:1001B00093020008930200089302000893020008CB
:1001C00093020008930200089302000893020008BB
:1001D000930200089302000800F002F800F03CF8D7
:1001E0000AA090E8000C82448344AAF10107DA4592
:1001F00001D100F031F8AFF2090EBAE80F0013F0A8
:10020000010F18BFFB1A43F0010318470C720000DE
:100210002C720000103A24BF78C878C1FAD852076F
:1002200024BF30C830C144BF04680C607047000070
:100230000023002400250026103A28BF78C1FBD8EF
:10024000520728BF30C148BF0B6070471FB507F089
:10025000ABF81FBD10B510BD00F0CFF81146FFF789
:10026000F5FF07F045F800F0EDF803B4FFF7F2FFF3
:1002700003BC00F0F5F80000094880470948004732
:10028000FEE7FEE7FEE7FEE7FEE7FEE7FEE7FEE746
:10029000FEE7FEE704480549054A064B70470000A3
:1002A000E5640008D9010008D0050020D00B00202B
:1002B000D0070020D007002053EA020C00F069802C
:1002C0002DE9F04B4FF00006002B1FBFB3FA83F56A
:1002D00003FA05F424FA05F65E4012BF1643B2FA9B
:1002E00082F502FA05F4C5F120051EBF22FA05FCCD
:1002F00044EA0C04203556EA044C4FEA144418BF73
:10030000641C4FF000084FF00009904271EB030CA1
:1003100039D3002919BFB1FA81F701FA07F6B0FA0B
:1003200080F700FA07F6C7F120071EBF20FA07FC86
:1003300046EA0C062037B6FBF4FCA7EB0507103F96
:1003400007F01F0BCBF120060CFA0BFB2CFA06F67C
:1003500044BFB3460026202FA4BF5E464FF0000BDB
:100360005BEA060C08BF4FF0010B19EB0B09ABFB66
:10037000027C48EB0608C01B06FB02CC0BFB03CC3F
:1003800071EB0C01C1E70B46024641464846BDE809
:10039000F08B13B54FF000004FF00001AFF3008079
:1003A000BDE81C4070474FF0000200B5134694466C
:1003B0009646203922BFA0E80C50A0E80C50B1F1BD
:1003C0002001BFF4F7AF090728BFA0E80C5048BFD1
:1003D0000CC05DF804EB890028BF40F8042B08BF6F
:1003E000704748BF20F8022B11F0804F18BF00F86B
:1003F000012B7047704770477047754600F02CF826
:10040000AE4605006946534620F00700854618B001
:1004100020B5FFF73FFFBDE820404FF000064FF04A
:1004200000074FF000084FF0000B21F00701AC4629
:10043000ACE8C009ACE8C009ACE8C009ACE8C00948
:100440008D46704710B50446AFF300802046BDE8E6
:100450001040FFF70ABF0000004870476C050020FD
:1004600001491820ABBEFEE72600020070470000DD
:1004700010B506220249034801F0FCFD10BD000042
:10048000D00000203C01002010B50422024903489E
:1004900001F0F0FD10BD000028000020A8010020A0
:1004A00010B52DED028B1749088800F099FA9FEDE1
:1004B000161ADFED160A40EE010AB0EE608A114905
:1004C000488800F08DFA9FED101ADFED100A40EE1B
:1004D000010AF0EE608A0E4A0E490F48B0EE480A53
:1004E00000F008FA0D4880ED000A0D4A0D490E484B
:1004F000B0EE680A00F0FEF90C4880ED000ABDEC91
:10050000028B10BD280000200000E6416666663FB1
:100510005400002050000020EC000020300000209B
:100520005500002051000020000100203400002070
:100530007FB50020009001900290039000240025D8
:100540001BE0234909880098084400902049498805
:100550000198084401901E49898802980844029035
:100560001B49C9880398084403901A48C08804446A
:10057000012002F0C7FB681C85B2B5F5FA7FE0D315
:100580004FF4FA710098B0FBF1F0134908804FF472
:10059000FA710198B0FBF1F00F4948804FF4FA71FD
:1005A0000298B0FBF1F00C4988804FF4FA7103987F
:1005B000B0FBF1F00849C8804FF4FA70B4FBF0F0DA
:1005C00006490880002006490870064908707FBD6A
:1005D000D000002028000020440000204C00002013
:1005E0004E0000204F00002010B52DED028B044678
:1005F000B0EE408AF0EE608A204600F0F1F930EE6D
:10060000480A20EE280ABDEC028B10BD70B50546E5
:10061000AC6AE06D00F0500098BBE06D40F40070F3
:10062000E0652068006800F00800A8B1206804F0C8
:1006300052FF10B32068C06800F40050E8B9E06DC4
:1006400020F48070E065E06D00F48050A8B9E06DA2
:1006500040F00100E06510E02068C06800F0020092
:1006600058B9E06D20F48070E065E06D00F48050D2
:1006700018B9E06D40F00100E065204601F066FA2F
:100680000CE0FFE7E06D00F0100018B1204601F02B
:100690005FFA03E0606D416B2846884770BD70B516
:1006A0000546AC6AE06D40F04000E065206E40F029
:1006B00004002066204601F04BFA70BD70B5044678
:1006C000A56A284601F043FA70BD000038B504461B
:1006D00000200090206804F0E5FE002858D1206832
:1006E00080682C49084048B1E06D40F01000E0659A
:1006F000206E40F001002066012038BD206804F023
:10070000B1FE2168B1F1A04F03D0234A2168914284
:1007100001D1224900E02249084604F0ABFE00F472
:10072000000080B11F4800681F49B0FBF1F0401C79
:1007300000EB40008000009002E00098401E009016
:1007400000980028F9D103F03FF805461AE0206828
:1007500004F0A8FE10B9206804F084FE03F034F819
:10076000401B02280ED92068006800F0010048B93B
:10077000E06D40F01000E065206E40F00100206662
:100780000120BAE72068006800F001000028DED0F0
:100790000020B2E73F00008000010050000300503D
:1007A00000070050CC000020400D0300014890EDF0
:1007B000000A7047DC000020014890ED010A7047F4
:1007C000DC000020014890ED020A7047DC000020A8
:1007D000014890ED030A7047DC000020014890EDCD
:1007E000000A70474000002070B52DED028B0446D2
:1007F0000D46284600F0F4F8B0EE408A064931F87C
:10080000140000F0EDF838EE400AF3EE090A20EE8D
:10081000200ABDEC028B70BD44000020B0EE401AEF
:1008200070EEC11AB0EE410A9FED022A02EE210AD3
:1008300070470000CDCC4C3EF0B585B0B0EE401A0C
:1008400004460B461D7804EB850585ED001A1D78DE
:100850006D1C0526B5FBF6F706FB17551D701578C0
:10086000052D02D215786D1C157000200AE004EBEE
:10087000800595ED000A6D4605EB800585ED000AC3
:10088000451CE8B215788542F1DC012026E06D4672
:1008900005EB8005D5ED000A01460CE04D1E6E46C5
:1008A00006EB850595ED000A6D4605EB810585EDA6
:1008B000000A4D1EE9B251B14D1E6E4606EB85058C
:1008C00095ED000AB4EEE00AF1EE10FAE6DC6D46B2
:1008D00005EB8105C5ED000A451CE8B21578854297
:1008E000D5DC15786D086E4606EB850595ED000A9A
:1008F00005B0F0BDF0B585B0B0EE401A04460B4629
:100900001D7804EB850585ED001A1D786D1C052604
:10091000B5FBF6F706FB17551D701578052D02D2AD
:1009200015786D1C157000200AE004EB800595ED2C
:10093000000A6D4605EB800585ED000A451CE8B20E
:1009400015788542F1DC012026E06D4605EB800537
:10095000D5ED000A01460CE04D1E6E4606EB8505FE
:1009600095ED000A6D4605EB810585ED000A4D1EEB
:10097000E9B251B14D1E6E4606EB850595ED000AB4
:10098000B4EEE00AF1EE10FAE6DC6D4605EB810507
:10099000C5ED000A451CE8B215788542D5DC15780E
:1009A0006D086E4606EB850595ED000A05B0F0BDB5
:1009B00010B52DED028B0446204600F011F8B0EE84
:1009C000408A0648008800F00BF838EE400AF3EE43
:1009D000090A20EE200ABDEC028B10BD4C0000205D
:1009E00000EE100AB8EE400ADFED040A60EE200ABD
:1009F0009FED031A80EE810A7047000033335340A5
:100A000000F07F4500B52DED048B85B05748018877
:100A10000020FFF7E9FE8DED010A544841880120CE
:100A2000FFF7E2FE8DED020A504881880220FFF7B1
:100A3000DBFE8DED030A4D48C1880320FFF7D4FE8D
:100A40008DED040A4A480078A0B99DED010A494895
:100A500080ED000A9DED020A80ED010A9DED030A7A
:100A600080ED020A9DED040A80ED030A0120404951
:100A7000087034E09DED011AF0EE410A3D4890ED1A
:100A8000001AB0EE410AFFF7C9FE3A4880ED000AAD
:100A90009DED021AF0EE410A90ED011AB0EE410A06
:100AA000FFF7BCFE334880ED010A9DED031AF0EE1E
:100AB000410A90ED021AB0EE410AFFF7AFFE2D4851
:100AC00080ED020A9DED041AF0EE410A90ED031A42
:100AD000B0EE410AFFF7A2FE264880ED030A264940
:100AE000C888FFF765FFB0EE408A2448007830B927
:100AF000234880ED008A01202049087009E0F0EECB
:100B0000480A1F4890ED000AFFF788FE1C4880ED58
:100B1000000A16490889F3EE090A9FED1A0AFFF741
:100B200063FDF0EE408A11494889F3EE090A9FED12
:100B3000150AFFF759FDB0EE409A134A13491448BD
:100B4000B0EE680AFFF778FE124880ED000A124AFC
:100B500012491348B0EE490AFFF76EFE114880EDC6
:100B6000000A05B0BDEC048B00BD0000D0000020E1
:100B70004E000020DC000020280000204F00002054
:100B800040000020CDCCCC3F560000205200002079
:100B900014010020380000205700002053000020DE
:100BA000280100203C00002000BFFEE710B50248ED
:100BB00001F012FB10BD0000D402002010B5024865
:100BC00001F054FF10BD00001402002010B50248CF
:100BD00001F04CFF10BD00007402002030B5114D33
:100BE0000468AC4206D210490478083C1425B4FBD2
:100BF000F5F208E00C4920310478083C1425B4FBD8
:100C0000F5F404F108020B46446CA40803EB8404D9
:100C10008464054C8034C46402F01F050124AC4098
:100C2000046530BD0804024000080240027902F069
:100C30007F014A1E064B03EB82024265044A4032A2
:100C400082654A1E02F01F0301229A40C265704766
:100C50000009024030B5D0E913546C60446D14B102
:100C6000D0E916546C6090F8444004F01F0501244C
:100C7000AC40056C6C60046863608468102C04D11F
:100C80000468A2600468E16003E00468A16004688D
:100C9000E26030BD704772B600BFFEE710B5024893
:100CA00002F06EF910BD00000C03002010B50248E0
:100CB00002F066F910BD00000C03002010B50248D8
:100CC00002F05EF910BD00007003002010B502486C
:100CD00002F056F910BD00007003002010B5024864
:100CE00002F04EF910BD0000D403002010B50248F8
:100CF00002F046F910BD0000D403002010B51848DA
:100D0000007800B110BD174800F0BEF8164800F09A
:100D1000BBF8144802F03EFC08B1FFF7BCFF1248D4
:100D200002F038FC08B1FFF7B6FF104802F032FCC1
:100D300008B1FFF7B0FF01200949087002F044FD37
:100D4000A0F5FA600A49086002F03EFD0949086012
:100D500002F03AFD32380849086000BFD2E70000CF
:100D60005C0000200C03002070030020D40300204E
:100D700060000020640000206800002010B51B48BF
:100D8000007800B910BD02F01FFD0446012118488B
:100D900000F054FA0221174800F050FA05F08CF9DF
:100DA00040B115480068201A322803D31248046065
:100DB00000F026FB11480068201AC82803D30F480A
:100DC000046000F0C9FA0E480068201AB0F5FA6F06
:100DD00000D2D7E70A4804600121054800F074FA00
:100DE0000221044800F070FA00BFCBE75C0000204D
:100DF0000C03002070030020680000206400002025
:100E00006000002010B51D4A1D4C0368A34201D1AB
:100E100002F554721B4C0368A34201D102F5D4625F
:100E200002640368D3F8803023F4F814838E44EA14
:100E300003430468C4F8803002F17003436403681C
:100E4000D3F8803023F0706490F8383044EA0363BC
:100E50000468C4F8803002F1B0038364D833C364FB
:100E6000D833036518334365114602E000230B6055
:100E7000091D02F554739942F8D310BD00A4004037
:100E800000680040006C004030B587B005464FF068
:100E900080400190022003900120049000240EE085
:100EA0000294094850F8240005900848069001A9CA
:100EB000284601F070FF08B1FFF7EDFE641C052C19
:100EC000EED307B030BD0000B473000800FFFF1F71
:100ED0002DE9F041054614461E46D1F804C0BCF188
:100EE000000F0AD1D1F810C0D1F808804CEA080CE4
:100EF000B1F800804CEA88430BE0D1F810C04CF008
:100F0000804CD1F808804CEA080CD1F800804CEAFB
:100F1000080391F82080D1F81CC04CEA086CD1F885
:100F200018804CEA080CD1F814804CEA080CB1F88F
:100F30000C804CEA084706EBC608D5F854C00CEB09
:100F4000C8021360121D1760121D002019E000F185
:100F5000030C14F80CC04FEA0C6800F1020C14F8F2
:100F60000CC048EA0C4800F1010C14F80CC048EA27
:100F70000C2C14F800804CEA080CC2F800C0121DBA
:100F8000001DDFF81480D1F80CC018F80CC084459F
:100F9000DDD8BDE8F0810000C8730008F0EE400A1B
:100FA0009FED161A20EE811AB0EE410A9FED141A39
:100FB000B4EEC10AF1EE10FA02DD47F6FF70704799
:100FC0009FED101AB4EEC10AF1EE10FA01D20E48EC
:100FD000F5E7B5EEC00AF1EE10FA04DBB6EE001A42
:100FE00030EE011A03E0B6EE001A30EE411ABDEE03
:100FF000C11A11EE100A00B2E1E700000000C84279
:1010000000FEFF46000000C70080FFFF70B58AB0F9
:1010100005460C4616466068B0F1804F03D1206843
:1010200000F03EF808B90AB070BD154801F0A0FF05
:1010300018B9144800F02CF8F5E713492068084067
:10104000E9B2084301904FF080400290A0680390FD
:10105000E06804900020059006900790089009959C
:10106000324601A9064801F061FE18B9074800F0B0
:101070000FF802E0034800F00BF800BFD3E70000D0
:10108000D40300207000002000FFFF1F6C00002030
:101090000168491C11B10168491C016070470000DA
:1010A0000246094802EA00010848814208D008487F
:1010B000814205D00748814202D00748814201D1D0
:1010C000012070470020FCE700FFFF1F00800204A2
:1010D0000080030400800E040080070430B593B242
:1010E00043541D0A4C1C055530BD00002DE9F0414C
:1010F00006460C461546287808B1012000E000207D
:101100000746687808B1012000E000208046012EE3
:101110000ED10F4807700F4880F800800E48046019
:101120000E48FFF7B5FF02F04FFB0D4908600DE0D8
:101130000C4807700C4880F800800C4804600C488C
:10114000FFF7A6FF02F040FB0A490860BDE8F08106
:1011500088000020890000208C00002090000020E2
:1011600094000020AC000020AD000020B000002062
:10117000B4000020B800002070B52DED048B0646A9
:101180000D4614466078217840EA012009EE100AE5
:10119000E078A17840EA012008EE100AB8EE490A8A
:1011A000DFED1A0A20EE200AF0EE408AB8EE480A77
:1011B000DFED170A30EE600ADFED140A20EE200A98
:1011C000F0EE409A012E0FD11248C0ED008A12486D
:1011D000C0ED009A114805601148FFF759FF02F071
:1011E000F3FA104908600EE00F48C0ED008A0F487E
:1011F000C0ED009A0E4805600E48FFF749FF02F067
:10120000E3FA0D490860BDEC048B70BDCDCCCC3D3C
:101210000060EA4674000020780000207C00002076
:101220008000002084000020980000209C00002006
:10123000A0000020A4000020A800002030B58DB040
:1012400005460C4632E001AB03AA4021284601F0D6
:10125000E5FD08B10DB030BD01AA03A92046FFF796
:10126000D5FE0498B0F1804F0ED114490398084080
:101270001349884208D10698042805D301AA2046BC
:101280000399FFF779FF11E00498B0F1804F0DD179
:101290000A49039808400B49884207D1069802285A
:1012A00004D301AA20460399FFF720FF40212846D6
:1012B00001F0A5FD0028C6D100BFCBE700FFFF1F4E
:1012C000008002040080060430B58BB005460C4651
:1012D000002000900190284601F04AFE10B902203B
:1012E0000BB030BD0A4802904FF0804003900020C0
:1012F000049008200590002006900790089009901F
:101300000A946A4602A9284601F010FDE8E70000A9
:1013100080FF000430B589B004460D460D4801F049
:1013200027FE10B9022009B030BD00944FF0804074
:101330000190002002900820039000200490059066
:101340000690079008902A466946024801F0EEFC94
:10135000E9E70000D403002010B52DED028B84B026
:1013600000200290039000900190FFF71FFAB0EE6A
:10137000408AFFF713FE04462246002102A8FFF729
:10138000ADFEFFF719FAB0EE408AFFF707FE0446FC
:101390002246022102A8FFF7A1FEFFF713FAB0EEE2
:1013A000408AFFF7FBFD04462246042102A8FFF70E
:1013B00095FEFFF70DFAB0EE408AFFF7EFFD044609
:1013C0002246062102A8FFF789FEFFF707FAB0EED2
:1013D000408AFFF7E3FD0446224600216846FFF7F6
:1013E0007DFE02A94FF08260FFF794FF69464FF03F
:1013F0008460FFF78FFF04B0BDEC028B10BD0000CE
:101400001CB505A103C9CDE9000169464FF086600E
:10141000FFF780FF1CBD000001000000000000007D
:101420002DE9F0439BB004460E464FF000083068AB
:1014300000B100BF00BF94F85800012803D102207A
:101440001BB0BDE8F083012084F8580000BF0020E5
:10145000179018902068B0F1A04F02D15848009022
:1014600008E058492068884202D15748009001E0BE
:1014700000200090009850B9E06D40F02000E06539
:1014800000BF002084F8580000BF0120D8E7009872
:1014900004F01CF80746206804F018F800287DD1F5
:1014A000002F7FD12068B0F1A04F03D044492068BD
:1014B000884201D1454800E0454805463068D8B328
:1014C00094F83800716841EA4030A96821F460411D
:1014D0000843A8602068B0F1A04F03D038492068C5
:1014E000884201D1394800E03948384988420AD158
:1014F0004FF0A04003F0DBFF8146314803F0D7FFF7
:1015000049EA00000DE02F4803F0D1FF81462E4844
:1015100003F0CDFF49EA00092E4803F0C8FF49EA6D
:101520000000E0BBB16830680843A96840F61F724C
:1015300091430843A8603BE0FFE7A86820F46040BF
:10154000A8602068B0F1A04F03D01D4920688842F0
:1015500001D11E4800E01E481C4988420AD14FF0C4
:10156000A04003F0A4FF8146154803F0A0FF49EA1C
:1015700000000DE0134803F09AFF8146124803F083
:1015800096FF49EA0009134803F091FF49EA000079
:1015900028B9A86840F61F71884301E002E007E01F
:1015A000A86005E0E06D40F02000E0654FF0010824
:1015B00000BF002084F8580000BF404640E700000C
:1015C00000010050000400500005005000030050CE
:1015D00000070050000600502DE9F84F05460C4664
:1015E0004FF0000A00200090FE49E068884200D0D9
:1015F00000E000BF00BF95F85800012802D102208A
:10160000BDE8F88F012085F8580000BF286803F076
:1016100058FF00287DD12968D4E9002001F1300C61
:10162000C0F3012B0CEB8B03D3F800C000F01F0EAE
:101630004FF01F0B0BFA0EFB2CEA0B0C00F01F0BEC
:10164000C2F3846E0EFA0BFE4CEA0E0CC3F800C017
:1016500000BF286803F035FF8146286803F01DFFAE
:101660008046B9F1000F64D1B8F1000FFBD1A0683A
:10167000B0F1004F0AD121680022286803F03CFF36
:101680004FF00041286803F05CFF08E0A268216881
:10169000286803F031FF0021286803F052FF6069D9
:1016A0002968C968C1F3C101490000FA01F720693E
:1016B00004283FD028682268216900F1600C0CEBF7
:1016C0008103D3F800C0DFF820B30CEA0B0C02F062
:1016D000F84B4BF0004B4BEA070B4CEA0B0CC3F8F2
:1016E00000C000BF2868A269216900F1600C0CEB02
:1016F0008103D3F800C02CF0807C4CEA020CC3F8C4
:1017000000C000BF2868227F2169012A02D1520649
:1017100001E0F6E10022134600F1600C0CEB8102BF
:10172000D2F800C02CF0007C4CEA030CC2F800C0D8
:1017300000BFA7E00021286803F0A6FEC0F3120056
:1017400030B90021286803F09FFEC0F3846007E0F1
:101750000021286803F098FE90FAA0F0B0FA80F01B
:101760002168C1F3120119B92168C1F3846104E051
:10177000216891FAA1F1B1FA81F1884204D10022E5
:101780001146286803F0D2FE0121286803F07CFE90
:10179000C0F3120030B90121286803F075FEC0F3D0
:1017A000846007E00121286803F06EFE90FAA0F043
:1017B000B0FA80F02168C1F3120119B92168C1F3B0
:1017C000846104E0216891FAA1F1B1FA81F18842C3
:1017D00004D100220121286803F0A8FE0221286814
:1017E00003F052FEC0F3120030B90221286803F062
:1017F0004BFEC0F3846007E00221286803F044FE3A
:1018000090FAA0F0B0FA80F02168C1F3120119B982
:101810002168C1F3846104E0216891FAA1F1B1FA71
:1018200081F1884204D100220221286803F07EFE63
:101830000321286803F028FEC0F3120030B9032109
:10184000286803F021FEC0F3846007E003212868C4
:1018500003F01AFE90FAA0F0B0FA80F02168C1F30C
:10186000120119B92168C1F3846104E0216891FA79
:10187000A1F1B1FA81F1884204D100220321286844
:1018800003F054FE286803F00DFE002870D128688C
:10189000E2682168D0F8B0C0C1F312032CEA030C4F
:1018A00002F0180B514B23FA0BF30B404CEA030CDC
:1018B000C0F8B0C000BF4B49E068884258D12368E7
:1018C000C3F312031BB92368C3F3846304E02368E2
:1018D00093FAA3F3B3FA83F35B1C03F01F03092B02
:1018E0003ED82368C3F312031BB92368C3F3846390
:1018F00004E0236893FAA3F3B3FA83F35B1C03F0C9
:101900001F034FF0010C0CFA03FC2368C3F312030E
:101910001BB92368C3F3846304E0236893FAA3F339
:10192000B3FA83F35B1C03F01F034CEA836C236858
:10193000C3F312031BB92368C3F3846304E0236871
:1019400093FAA3F3B3FA83F35B1C03F01F0303EBD7
:1019500043034FF0000B4BEA03534CEA03033FE011
:101960002368C3F3120323B92368C3F3846305E038
:1019700042E0236893FAA3F3B3FA83F35B1C03F00A
:101980001F034FF0010C0CFA03FC2368C3F312038E
:101990001BB92368C3F3846304E0236893FAA3F3B9
:1019A000B3FA83F35B1C03F01F034CEA836C2368D8
:1019B000C3F312031BB92368C3F3846304E02368F1
:1019C00093FAA3F3B3FA83F35B1C03F01F030A3B00
:1019D00003EB43034FF0007B4BEA03534CEA030352
:1019E000194605E000007F4000F0FF03FFFF0700FD
:1019F000A268286803F080FD484920680840002854
:101A000042D02968B1F1A04F03D0454A29689142DC
:101A100001D1444900E04449084603F02BFD064645
:101A200042492068884203D04149206888422CD12D
:101A300006F4000048BB2868B0F1A04F03D03D4930
:101A40002868884263D12A68B2F1A04F03D0344B92
:101A50002A689A4201D1334A00E0334A104646F4DC
:101A6000000103F05DFD344800683449B0FBF1F03B
:101A7000401C00EB40008000009002E00098401EF7
:101A8000009000980028F9D141E02D492068884253
:101A90001BD106F08070C0B921492868884236D031
:101AA00028492868884232D02A68B2F1A04F03D072
:101AB0001B4B2A689A4201D11A4A00E01A4A104682
:101AC00046F0807103F02CFD21E01F492068884218
:101AD0001DD106F48000D0B911492868884216D07B
:101AE0002A68B2F1A04F03D00B462A689A4201D16E
:101AF0000C4A00E00C4A104646F4800103F010FD49
:101B000005E0E86D40F02000E8654FF0010A00BFF5
:101B1000002085F8580000BF504671E5000008809D
:101B2000000100500003005000070050000021C3D6
:101B30001000C09000060050CC000020400D0300B3
:101B4000000052C700050050000084CB704770476A
:101B5000704700002DE9F84304464FF000080020CC
:101B6000009014B90120BDE8F883606920B194F8B1
:101B70002400012800D100BFE06D30B9204600F0FC
:101B800045F90020206684F8580020688168C1F378
:101B9000407131B120688168914A1140816000BF75
:101BA00000BF206803F088FCB0B9206881688D4AC6
:101BB000114041F08051816000BF8B4800688B4923
:101BC000B0FBF1F0401C4000009002E00098401E85
:101BD000009000980028F9D1206803F06DFC48B906
:101BE000E06D40F01000E065206E40F001002066DE
:101BF0004FF00108206803F064FC0646E06D00F039
:101C0000100000287ED1002EFCD1E06D20F4807001
:101C100040F00200E065206803F044FC88BB2068C7
:101C2000B0F1A04F03D072492068884201D17148B9
:101C300000E071486F4988420AD14FF0A04003F09C
:101C400031FC81466A4803F02DFC49EA00000DE0B2
:101C50006A4803F027FC8146694803F023FC49EAFF
:101C60000009684803F01EFC49EA000048B92268F0
:101C7000B2F1A04F03D05E4B22689A4202D15D4A76
:101C800001E009E05C4A10466168826822F47C1237
:101C90000A43826000BF00BF607FE16B41EA4030D1
:101CA000E1680843A168084394F8241040EA01451C
:101CB00094F82400012803D1208D401E45EA4045B8
:101CC000E06A28B1A08D00F47870216B08430543C9
:101CD0002068C0684C49084028432168C8602068D3
:101CE000006920F04060616B08432168086120684A
:101CF00003F0D3FB0746EEBBE7BB207F002141EAA0
:101D0000803100E064E094F8380041EA4005206842
:101D1000C06844F20201884328432168C8602069F2
:101D200080B12068006940F4803021680861206833
:101D3000D0F8C0006FF30D00216908432168C1F895
:101D4000C0000DE02068006920F48030216808613F
:101D50002068D0F8C0006FF30D002168C1F8C00002
:101D600094F84000012813D1606C40F00101A06C90
:101D7000084300E012E0E16C0843216D084321684C
:101D8000096940F2FC72914308432168086105E04B
:101D90002068006920F0010021680861606901285D
:101DA00009D12068006B20F00F00216A491E08430A
:101DB0002168086305E02068006B20F00F002168AF
:101DC0000863E06D20F0020040F00100E06505E0EE
:101DD000E06D40F01000E0654FF001084046C2E6BB
:101DE000C0FFFF5FC0FFFF7FCC000020400D03005D
:101DF0000001005000030050000700500004005094
:101E000000050050000600500740F0FF10B59CB0E0
:101E10000446142117A8FEF7C6FA542102A8FEF7BB
:101E2000C2FA2068B0F1A04F7DD14FF4004002907B
:101E30008003139002A801F0DFFF08B1FEF72BFF2B
:101E400084480068401C83490860084600680128EF
:101E50000DD100BF8048C06C40F400507E49C8647A
:101E60000846C06C00F40050019000BF00BF00BFE6
:101E70007948C06C40F004007749C8640846C06CDB
:101E800000F00400019000BF00BF00BF0846C06C16
:101E900040F00100C8640846C06C00F001000190E9
:101EA00000BF00BF00BF0846C06C40F00200C8641D
:101EB0000846C06C00F00200019000BF00BF0F2078
:101EC0001790032018900020199017A9634801F07B
:101ED0007FFB04201790032018900020199017A969
:101EE0004FF0904001F074FB4FF4805017900320A6
:101EF00018900020199017A9594801F069FB59481A
:101F00005949086005204860002157488160C16038
:101F10008021016149004161890081612021C16105
:101F20000021016200E009E000F020FE08B1FEF7A8
:101F3000B2FE00BF4C486065846289E04B4920686E
:101F40008842FAD1C00102908003139002A801F0E8
:101F500053FF08B1FEF79FFE3E480068401C3D4914
:101F600008600846006801280DD100BF3A48C06CDF
:101F700040F400503849C8640846C06C00F4005072
:101F8000019000BF00BF00BF3348C06C40F00100AB
:101F90003149C8640846C06C00F00100019000BFE0
:101FA00000BF00BF0846C06C40F00400C86408468B
:101FB000C06C00F00400019000BF00BF00BF0846E5
:101FC000C06C40F00200C8640846C06C00F002001B
:101FD000019000BF00BFC020179003201890002080
:101FE000199017A94FF0904001F0F2FA20201790B5
:101FF000032018900020199017A9184801F0E8FA5A
:1020000004201790032018900020199017A9144855
:1020100001F0DEFA134814301549086024204860A6
:10202000002113488160C160802101614900416144
:10203000890081612021C1610021016200F096FDCB
:1020400008B1FEF728FE00BF09486065846200BF42
:102050001CB010BD580000200010024000080048CD
:102060000004004808000240140200200001005053
:10207000740200202DE9F04104460F469046216885
:10208000B1F1A04F03D0484A2168914201D147499C
:1020900000E04749084603F0F2F90646206803F0DD
:1020A00010FA00287CD100BF94F85800012802D112
:1020B0000220BDE8F081012084F8580000BF3D49AE
:1020C0002068884201D1012000E0002020B91EB123
:1020D000052E01D0092E5DD12046FEF7F7FA054600
:1020E000002D52D1E06D40F60161884340F48070CC
:1020F000E0652D492068884202D14FF0A04006E0FB
:102100002D492068884201D12C4800E020682168D0
:10211000884200D01EB9E06D20F48010E065E06DCB
:1021200000F4805020B1206E20F00600206601E00F
:10213000002020662248616DC8622248616D0863F4
:102140002148616D48631C202168086000BF0020A1
:1021500084F8580000BF2068406840F010002168F3
:1021600048602068C06840F001002168C8602268AB
:1021700002F1400143463A46606D00F061FD0546BC
:10218000206803F0B1F90CE00AE000BF002084F8F9
:10219000580006E0012500BF002084F8580000E048
:1021A0000225284685E7000000010050000300508A
:1021B00000070050000600500005005000040050C9
:1021C0000D060008BD0600089F06000801460868C5
:1021D0000068C0F38070704770B504462E492068CF
:1021E000884202D14FF4001025E02B49091D2068D8
:1021F000884202D14FF480001DE027490831206851
:10220000884201D1800616E023490C3120688842BB
:1022100002D14FF080400EE01F4910312068884203
:1022200001D1C00607E01C4914312068884201D161
:10223000012000E0022005460026174914312068DD
:10224000884203D0091D206888420BD128461349D3
:1022500009680140814201D1012100E0002169B1FA
:1022600002260BE028460D492039096801408142C9
:1022700001D1012100E0002101B101265EB1022E51
:1022800003D1284603F06AF902E0284603F060F91A
:10229000204600F005FA70BD000201403404014000
:1022A0002DE9F843044600200090804614B94FF011
:1022B000010881E12068006800F00040B0F1004FA3
:1022C00002D14FF0010877E1607F28B90020207724
:1022D0002062204600F07EF92068006800F40007C4
:1022E000D4E90110084361690843E16808432169A2
:1022F00040EA010620680068B1490840304321687F
:1023000008602068006800F4000088B187B9AD4813
:102310000068AD49B0FBF1F0401C00EB800080008C
:10232000009002E00098401E009000980028F9D12B
:10233000A6492068884202D14FF4001025E0A34945
:10234000091D2068884202D14FF480001DE09F499A
:1023500008312068884201D1800616E09B490C3183
:102360002068884202D14FF080400EE0974910313A
:102370002068884201D1C00607E0944914312068E2
:10238000884201D1012000E002200546207E00F0B5
:10239000030000287ED0207E00F01000D0B18B49D1
:1023A00014312068884203D0091D2068884207D173
:1023B00000BF8748006828438549086000BF24E0C3
:1023C00000BF8348203800682843814920390860CD
:1023D00000BF1AE07D4914312068884203D0091DEE
:1023E0002068884207D100BF79480068A84378492F
:1023F000086000BF09E000BF754820380068A843A6
:1024000073492039086000BF00BF207E00F0200023
:10241000E0B16E4914312068884203D0091D20685C
:10242000884209D100BF6A48001D006828436849F6
:10243000091D086000BF26E000BF65481C38006821
:10244000284363491C39086000BF1CE05F49143110
:102450002068884203D0091D2068884209D100BF46
:102460005B48001D0068A8435949091D086000BF6A
:1024700009E000BF56481C380068A84354491C397D
:10248000086000BF00BF514914312068884205D060
:10249000091D00E06CE02068884203D1284603F063
:1024A0005DF802E0284603F053F8207E00F00200B9
:1024B000E0B1464914312068884203D0091D2068E4
:1024C000884209D100BF4248001F006828434049A4
:1024D000091F086000BF19E000BF3D4824380068AC
:1024E00028433B492439086000BF0FE037491431C5
:1024F0002068884203D0091D2068884203D12846FD
:1025000003F03AF802E0284603F02EF8207E00F0AF
:102510000100E0B12D4914312068884203D0091D23
:102520002068884209D100BF29480838006828433C
:1025300027490839086000BF3AE000BF244828381E
:102540000068284322492839086000BF30E01F494D
:1025500014312068884203D0091D2068884203D1C5
:10256000284603F019F823E0284603F00DF81FE091
:10257000164914312068884203D0091D206888421A
:1025800003D1284602F0F8FF02E0284602F0ECFFF3
:102590000E4914312068884203D0091D2068884202
:1025A00003D1284602F0F8FF02E0284602F0ECFFD3
:1025B000607F08B9012060774046BDE8F8830000DD
:1025C0000F7E00FFCC000020400D03000002014000
:1025D0002804014010B586B00446142101A8FDF777
:1025E000E2FE13492068884220D100BF1148C06C28
:1025F00040F002000F49C8640846C06C00F00200B9
:10260000009000BF00BF4FF4804001900320029073
:102610000020039001A9084800F0DAFF00221146CB
:10262000422001F09BFA422001F084FA06B010BD6E
:1026300018020140001002400004004808B501469D
:1026400000220092002009B9012024E00A681268E3
:1026500002F00042B2F1004F01D101201BE04A7F9D
:10266000012A17D10A68126842F001020B681A6049
:1026700002224A77084A1268084BB2FBF3F202EBD7
:102680008202009202E0009A521E0092009A002AF2
:10269000F9D100E0012008BDCC00002080841E009C
:1026A00010B5044604492068884204D1012003493A
:1026B000087004F0CFFD10BD18020140000000209A
:1026C0002DE9F84F04460D4616460020009004B14F
:1026D00015B90120BDE8F88FE869012800D100BFD5
:1026E000A868042800D103E06869022800D100BF6F
:1026F00000BF6079012801D10220EBE70120607161
:1027000000BF02202071A868042859D101F05CF8AC
:102710008246E6B911E001F057F8A0EB0A00012863
:102720000BD92068406B00F4004030B1206940F0C4
:102730000800206103202071CCE72068406B00F482
:1027400000400028E7D1686A216808641BE011E0B6
:1027500001F03AF8A0EB0A0001280BD92068406B81
:1027600000F0004030B1206940F0080020610320F3
:102770002071AFE72068406B00F000400028E7D1EF
:10278000686A216848642068806C06F0100240F294
:10279000FF319140884306F01002A96A9140084336
:1027A000216888642068C06C06F01002FF21914007
:1027B000884306F01002E96A914008432168C86422
:1027C000E86901280FD12068876B06F010011F20EF
:1027D00088408743D5F8208006F0100008FA00F002
:1027E0000743206887632068C76B06F01001072045
:1027F00088408743A869012802D14FF000090CE006
:10280000A869022802D14FF0010906E0686910B9F1
:102810004FF0010901E04FF000096969A868084319
:1028200040EA090806F010014FF4807088408743A1
:102830002879012801D1000200E0002040EA0808C0
:1028400006F010014FF40070884087436879012832
:1028500001D1400200E0002040EA080827F4404788
:10286000286802280FD101F0E5FD83462C498B45ED
:1028700002D947F4004708E02A48834502D947F4C3
:10288000804702E001E02868074306F0100108FADB
:1028900001F007432068C7632068006806F0100253
:1028A0004FF48041914088432168086020680768A0
:1028B00006F0100140F6FE7088408743D5F80C8082
:1028C00006F0100108FA01F007432068076020684D
:1028D000006806F01002C02191408843216808601A
:1028E000287BC0F38308287CC0F3830048EA0028D3
:1028F0002068006E06F0100240F60F719140884388
:1029000006F0100108FA01F1084321680866012069
:10291000207100BF0020607100BF0098DAE600005F
:102920000068890900B4C40410B504460CB901203C
:1029300010BD207920B900206071204600F008F811
:102940000220207100202061012020710020EFE78B
:1029500008B5094A016891420DD100BF0749C96C09
:1029600041F40031054AD1641146C96C01F40031CB
:10297000009100BF00BF08BD000C005000100240D5
:1029800078B50446002000900CB9012078BD20687D
:10299000C06B01F010064FF48075B540284000B9B7
:1029A00000BF2068009029B902F10800009D28446A
:1029B000009004E002F11400009D2844009000986B
:1029C00003600020E2E7000018B502460AB90120C2
:1029D00018BD00BF5079012801D10220F8E701207D
:1029E000507100BF022010711068006801F01004DF
:1029F0000123A3401843136818601A4800681A4B53
:102A0000B0FBF3F0401C009002E00098401E0090E4
:102A100000980028F9D161B91068006800F03E0004
:102A2000022816D11068406840F001001368586011
:102A30000FE01068006800F4781301F01004022021
:102A4000A040834205D11068406840F0020013683E
:102A500058600120107100BF0020507100BF00BFFE
:102A6000B6E70000CC000020400D030070B504461E
:102A7000206C05682068066894F8440000F01F0187
:102A8000042088402840E0B106F00400C8B1206866
:102A9000006800F0200028B92068006820F00400D9
:102AA0002168086094F8440000F01F010420884069
:102AB000216C4860206B002856D02046216B884747
:102AC00052E094F8440000F01F01022088402840A2
:102AD00018B306F0020000B32068006800F0200080
:102AE00040B92068006820F00A00216808600120D1
:102AF00084F8250094F8440000F01F01022088406B
:102B0000216C486000BF002084F8240000BFE06A08
:102B100050B32046E16A884726E094F8440000F06C
:102B20001F01082088402840F0B106F00800D8B105
:102B30002068006820F00E002168086094F84400C6
:102B400000F01F0101208840216C48600120E063F3
:102B500084F8250000BF002084F8240000BF606BCB
:102B600010B12046616B884770BD000070B5044607
:102B70000CB9012070BD3049206888420BD22F4922
:102B80002068401A1421B0FBF1F0800060642B48EB
:102B9000083820640AE028492068401A1421B0FB54
:102BA000F1F080006064244808382064022084F832
:102BB00025002068056847F6F0708543D4E90201D6
:102BC00008432169084361690843A1690843E16931
:102BD0000843216A08430543206805602046FDF745
:102BE000FDFFA068B0F5804F01D100206060207922
:102BF00000F07F00A16C0860D4E9131048606068A1
:102C000060B16068042809D82046FEF70FF800205C
:102C1000616D0860D4E91610486003E0002060652B
:102C2000A065E0650020E063012084F82500002015
:102C300084F8240000BF9DE7080402400800024019
:102C40002DE9F04104460D4616461F464FF0000898
:102C500000BF94F82400012802D10220BDE8F081D1
:102C6000012084F8240000BF94F8250001283FD1FA
:102C7000022084F825000020E0632068006820F02E
:102C80000100216808603B46324629462046FDF790
:102C9000E1FF206B30B12068006840F00E00216831
:102CA00008600BE02068006820F0040021680860DC
:102CB0002068006840F00A0021680860A06C006885
:102CC00000F4803028B1A06C006840F48070A16CE2
:102CD0000860606D28B1606D006840F48070616DBF
:102CE00008602068006840F001002168086006E084
:102CF00000BF002084F8240000BF4FF002084046C7
:102D0000ACE7000070B5044600F05EFD06462546BF
:102D1000681C10B104480068054400BF00F054FD71
:102D2000801BA842FAD370BDC80000202DE9F041F5
:102D300004460E461746706800B900E000BF94F8DC
:102D40005C00022821D12068D0F8C40000F40010F3
:102D500030B1206E40F4007020660120BDE8F081A3
:102D60002068D0F8C400C0F301452B463A463146EE
:102D70002046FEF7ADF80120A8402168C1F8CC003C
:102D80000120A840A0650020E8E7206E40F0080080
:102D900020660120E2E7F0B5024692F85C60012E61
:102DA00001D0022E23D1086880B9087A80070F7BF2
:102DB00040EAC7600F8A40EA07404F6940EA0704CB
:102DC000176C486807EB80031C600EE00F7B0869F6
:102DD00040EA47740F7A486940EA8775576C48683B
:102DE00007EBC0031C601B1D1D600020F0BD106EB2
:102DF00040F0020010660120F8E770477047024675
:102E0000402905D11368D3F8903003F00F0004E097
:102E10001368D3F8983003F00F0070472DE9F043A2
:102E200004460E469C4694F85C80B8F1020F7DD1B2
:102E3000402E26D12068D0F8900000F00F0030B965
:102E4000206E40F4807020660120BDE8F083206889
:102E5000D0F89000C0F301232068D0F89000C0F3B0
:102E6000006040B12068D0F88000C0F3402010B16D
:102E7000581C00F0030303EBC309A06C00EBC9016D
:102E800024E02068D0F8980000F00F0028B9206EE8
:102E900040F4807020660120D7E72068D0F89800C1
:102EA000C0F301232068D0F89800C0F3006040B15F
:102EB0002068D0F88000C0F3002010B1581C00F04A
:102EC000030303EBC309E06C00EBC901086800F0E1
:102ED00080405060506820B90868C0F38A40106094
:102EE00003E0086820F060401060086800F00050BF
:102EF0009060086800F000401061091D088880B2E9
:102F0000D0610868C0F30340D060086800F4801006
:102F10005061086800F4001090610868C0F3066012
:102F200010620868C00F5062091D00E018E00F46EB
:102F3000002503E0785D0CF805006D1CDFF82C908F
:102F4000D06819F80000A842F4D8402E03D12068B8
:102F5000C0F8943002E02068C0F89C30002074E78C
:102F6000206E40F00800206601206EE7C87300085C
:102F700001460A68D2F8C42002F007007047704783
:102F80002DE9FC5F04462068006D00F4E0572068DE
:102F9000406D07402068006D00F007082068406D14
:102FA00000EA08082068006D00F038092068406DCC
:102FB00000EA09092068006D00F4710A2068406D7C
:102FC00000EA0A0A2068006D00F4602B2068406D5A
:102FD00000EA0B0B2068456D2068066DC6F3801073
:102FE00040B1C5F3801028B1402021680865204613
:102FF000FFF7C5FFC6F30020A0B1C5F3002088B1DC
:103000002068D0F8D80000902068D0F8E00000993F
:10301000084000904FF480702168086520460099B0
:1030200000F0D1FA2FB1206807653946204600F03C
:10303000CCFAB8F1000F06D02068C0F850804146A5
:10304000204600F0A5FAB9F1000F06D02068C0F8BC
:1030500050904946204600F09CFAC6F3402048B103
:10306000C5F3402030B14FF4007021680865204658
:1030700000F0ACFAC6F3C01098B1C5F3C01080B12F
:103080002068D0F8D40001902068D0F8DC000199C5
:10309000084001908020216808652046019900F0D1
:1030A00093FAC6F3403048B1C5F3403030B14FF425
:1030B000005021680865204600F084FAC6F3C0304D
:1030C00048B1C5F3C03030B14FF400402168086505
:1030D000204600F076FAC6F3803050B1C5F3803058
:1030E00038B14FF4804021680865206E40F08000C0
:1030F0002066BBF1000F06D02068C0F850B05946DA
:103100002046FFF77BFEBAF1000F06D02068C0F81A
:1031100050A0206E40EA0A002066206E10B12046C2
:10312000FFF76BFEBDE8FC9F70B504460CB90120AB
:1031300070BD81492068884200D100BFA068B0F509
:10314000407F00D100BF94F85C0028B9002084F8CB
:103150005D00204600F0F4F82068806920F010003F
:103160002168886100F030FB05460DE000F02CFB83
:10317000401B0A2808D9206E40F001002066032079
:1031800084F85C000120D3E72068806900F0080023
:103190000828EBD02068806940F001002168886130
:1031A00000F012FB05460DE000F00EFB401B0A2864
:1031B00008D9206E40F001002066032084F85C00EE
:1031C0000120B5E72068806900F001000028EBD0FD
:1031D0002068806940F002002168886156492068B3
:1031E000884202D1554960680860207C012806D1D8
:1031F0002068806920F040002168886105E020682F
:10320000806940F0400021688861607C012806D117
:103210002068806940F480402168886105E020686A
:10322000806920F4804021688861A07C012806D153
:103230002068806920F480502168886105E020685A
:10324000806940F48050216888612068806920F49A
:103250004070A1680843216888612068806920F077
:10326000A400216888612068006920F010002168AE
:103270000861E068012806D12068806940F00400F8
:103280002168886120E0E068F0B1E068022815D08C
:103290002068806940F080002168886120680069AA
:1032A00040F0100021680861E06803280CD1206814
:1032B000806940F020002168886105E0206880690D
:1032C00040F0200021688861207E401E4106E069B0
:1032D000401E41EA0020216A491E0843A18A491E76
:1032E00040EA01402168C861A068B0F5407F0FD175
:1032F000A06A401EE16A491E40EA0121206B401E7F
:1033000041EA0011A08C401E41EA00402168C860DB
:103310002068D0F8C000E16B08432168C1F8C00004
:103320002046FDF76FFD0020A0652066012084F88F
:103330005C000020FCE600000064004000650040E6
:1033400010B59CB00446142117A8FDF72CF85421A1
:1033500002A8FDF728F88849206888424DD18014DA
:1033600002904003109002A800F046FD08B1FDF75E
:1033700092FC82480068401C80490860084600684A
:1033800001280DD100BF7E48806D40F000707C495F
:1033900088650846806D00F00070019000BF00BF96
:1033A00000BF7748C06C40F001007549C86408460A
:1033B000C06C00F00100019000BF00BF4FF4C0508E
:1033C000179002201890002019901A9009201B9045
:1033D00017A9C00600F0FCF800221146152000F0E5
:1033E000BDFB152000F0A6FB00221146162000F0C0
:1033F000B5FB162000F09EFBBCE0624920688842C5
:103400004DD1801402904003109002A800F0F4FC0B
:1034100008B1FDF740FC59480068401C5749086056
:103420000846006801280DD100BF5548806D40F066
:103430000070534988650846806D00F00070019067
:1034400000BF00BF00BF4E48C06C40F002004C49B6
:10345000C8640846C06C00F00200019000BF00BFC5
:1034600042F22000179002201890002019901A9024
:1034700009201B9017A9444800F0AAF80022114621
:10348000562000F06BFB562000F054FB0022114642
:10349000572000F063FB572000F04CFB6AE03B49EB
:1034A0002068884266D1801402904003109002A8E0
:1034B00000F0A2FC08B1FDF7EEFB30480068401CAC
:1034C0002E4908600846006801280DD100BF2C482D
:1034D000806D40F000702A4988650846806D00F0D4
:1034E0000070019000BF00BF00BF2548C06C40F0D5
:1034F00001002349C8640846C06C00F00100019037
:1035000000BF00BF00BF0846C06C40F00200C864A6
:103510000846C06C00F00200019000BF00BF881593
:10352000179002201890002019901A900B201B90E1
:1035300017A94FF0904000F04BF810201790022090
:103540001890002019901A900B201B9017A90E4874
:1035500000F03EF800221146582000F0FFFA5820F3
:1035600000F0E8FA00221146592000F0F7FA59203D
:1035700000F0E0FA1CB010BD00640040BC00002068
:10358000001002400068004000040048006C004049
:1035900070477047014691F85C0001280BD102206A
:1035A00081F85C000868806920F001000A68906179
:1035B000002008667047086E40F00400086601208D
:1035C000F8E77047704770477047704770470000D2
:1035D00078B503460022D2E0012696400D6805EA40
:1035E0000604002C7BD00D7905F00305012D04D0D5
:1035F0000D7905F00305022D13D1986856000325B7
:10360000B540A8435600CD68B54028439860586837
:1036100001259540A8430D79C5F300159540284331
:1036200058600D7905F00305032D07D10D7905F0DC
:103630000305032D0CD18D68012D09D0D8685600E3
:103640000325B540A84356008D68B5402843D8608F
:103650000D7905F00305022D13D1D60803F12005DD
:1036600055F826005507EE0E0F25B540A84356071E
:10367000F60E0D69B5402843D60803F1200545F83C
:103680002600186856000325B540A8430D7905F0BB
:1036900003055600B540284318604D6805F44035D1
:1036A000002D6BD000BF394D2D6E45F00105374E12
:1036B000356635462D6E05F00105009500BF00BF4B
:1036C0004FEAB635960855F8260095072E0F0F25B8
:1036D000B540A843B3F1904F02D100251AE04DE068
:1036E0002B4DAB4201D1012514E02A4DAB4201D153
:1036F00002250FE0284DAB4201D103250AE0274DFA
:10370000AB4201D1042505E0254DAB4201D1052591
:1037100000E006259607360FB5402843214D960850
:1037200045F82600204D2868A0434D6805F4801513
:1037300005B120431C4D28602D1D2868A0434D680D
:1037400005F4001505B12043174D2D1D2860164DB9
:103750002D1F2868A0434D6805F4003505B12043AE
:10376000114D2D1F28602D1F2868A0434D6805F4BA
:10377000803505B120430C4D083D2860521C0D6872
:10378000D540002D7FF428AF78BD00000010024026
:103790000004004800080048000C004800100048E1
:1037A0000014004808000140080401400246136963
:1037B0000B400BB1012000E0002070470AB181618D
:1037C00000E0816270470000014800687047000017
:1037D000C0000020024692F8410020282DD100BFF1
:1037E00092F84000012801D102207047012082F8A0
:1037F000400000BF242082F841001068006820F0DB
:103800000100136818601068006820F48050136885
:103810001860106800680843136818601068006832
:1038200040F0010013681860202082F8410000BFBA
:10383000002082F8400000BFD7E70220D5E710B58E
:1038400002460B4692F8410020282AD100BF92F888
:103850004000012801D1022010BD012082F8400063
:1038600000BF242082F841001068006820F00100A9
:10387000146820601068016821F4706141EA032136
:10388000106801601068006840F001001468206052
:10389000202082F8410000BF002082F8400000BFD5
:1038A000DAE70220D8E7000010B504460CB9012081
:1038B00010BD94F8410028B9002084F8400020464B
:1038C00000F05EF8242084F841002068006820F0B1
:1038D000010021680860606820F07060216808615C
:1038E0002068806820F4004021688860E068012832
:1038F00005D1A06840F400402168886004E0A06819
:1039000040F4044021688860E068022806D12068FD
:10391000406840F400602168486005E02068406825
:1039200020F400602168486020684068134908431B
:10393000216848602068C06820F400402168C860A1
:10394000D4E904010843A16940EA01202168C86064
:10395000D4E907010843216808602068006840F046
:1039600001002168086000206064202084F8410084
:103970000020206384F8420000BF99E70080000225
:1039800010B59CB00446142117A8FCF70CFD542177
:1039900002A8FCF708FD2A49206888424ED1402041
:1039A00002900020099002A800F026FA08B1FDF765
:1039B00072F900BF2348C06C40F001002149C8647F
:1039C0000846C06C00F00100019000BF00BF00BFBE
:1039D0000846C06C40F00200C8640846C06C00F0A5
:1039E0000200019000BF00BF4FF40040179012206A
:1039F0001890002019901A9004201B9017A94FF0DE
:103A00009040FFF7E5FD80201790122018900020CD
:103A100019901A9004201B9017A90B48FFF7D8FDA6
:103A200000BF0848806D40F40010064988650846CC
:103A3000806D00F40010019000BF00BF1CB010BDED
:103A40000054004000100240000400480348006891
:103A5000034909680844014908607047C000002014
:103A6000C800002010B50024032000F0B5F80F2096
:103A700000F008F808B1012401E000F02FF820461A
:103A800010BD000070B50446002511480068D8B18B
:103A90000F4800684FF47A71B1FBF0F00D490968E6
:103AA000B1FBF0F6304601F035F858B9102C07D2CA
:103AB00000222146501E00F051F80748046004E03F
:103AC000012502E0012500E00125284670BD000027
:103AD000C8000020CC000020C40000200EB500204B
:103AE0000190029000BF1248006E40F001001049A2
:103AF00008660846006E00F00100009000BF00BF9D
:103B000000BF0846806D40F0805088650846806D93
:103B100000F08050009000BF00BF00200190029094
:103B200001A800F003F900F05DF900F0F5F80EBD12
:103B3000001002400146084600280DDB00BF00BF10
:103B400000F01F0301229A4043099B0003F1E02388
:103B5000C3F8002100BF00BF00BF70472DE9F05F30
:103B600080460D46164603F0A7FB074639462A460F
:103B7000334601F00700C0F1070ABAF1040F02D979
:103B80004FF0040A01E0C0F1070AD14600F1040A2F
:103B9000BAF1070F02D24FF0000A01E0A0F1030AC8
:103BA000D4464FF0010A0AFA09FAAAF1010A0AEA10
:103BB000020A0AFA0CFA4FF0010B0BFA0CFBABF1FC
:103BC000010B0BEA030B4AEA0B042146404603F0C3
:103BD0007BFBBDE8F09F000000BF00F00702064B32
:103BE00019684FF6FF031940044B0B4343EA0221C7
:103BF000014B196000BF70470CED00E00000FA05B2
:103C000002468ABB4148006800F4C060B0F5806F8E
:103C10002BD13E488030006820F480703B4BC3F8C5
:103C200080001846006820F4C06040F400701860FE
:103C30003748006832235843364BB0FBF3F0411C41
:103C400000E0491E3148406900F48060B0F5806FA3
:103C500001D10029F5D12D48406900F48060B0F50C
:103C6000806F51D10320704708E0284880300068F9
:103C700020F48070254BC3F8800045E0B2F5007F4A
:103C80003AD12248006800F4C060B0F5806F2AD1B4
:103C90001E488030006840F480701C4BC3F88000E0
:103CA0001846006820F4C06040F40070186018489E
:103CB000006832235843174BB0FBF3F0411C00E07F
:103CC000491E1248406900F48060B0F5806F01D150
:103CD0000029F5D10D48406900F48060B0F5806F8F
:103CE00012D10320BFE709488030006840F480709B
:103CF000064BC3F8800007E00448006820F4C06069
:103D000040F48060014B18600020ACE70070004078
:103D1000CC00002040420F000348806840F48040FF
:103D200001498860704700000070004001462B4840
:103D3000406820F00E000A681043284A5060284866
:103D4000006820F48030264A1060101F006820F4BC
:103D50008030121F106022480830006820F4803044
:103D60001F4A08321060101F006820F48030121FB4
:103D70001060486800F48030B0F5803F07D11848E3
:103D8000001F006840F48030154A121F1060486818
:103D900000F40030B0F5003F05D11148006840F450
:103DA00080300F4A1060087900F0010038B10C48EB
:103DB000001D006840F48030094A121D1060087927
:103DC00000F00200022807D105480830006840F4DE
:103DD0008030034A083210600020704700700040B5
:103DE000040401400348406840F001000149486074
:103DF00070470000007000402DE9F843044600279A
:103E0000B846206800F40020B0F5002F73D1B94601
:103E1000FD48806D00F0805078B900BFFA48806D91
:103E200040F08050F84988650846806D00F0805069
:103E3000009000BF00BF4FF00109F448006840F453
:103E40008070F2490860FFF7BFFC064606E0FFF706
:103E5000BBFC801B022801D9032705E0EB48006862
:103E600000F480700028F2D000BF002F46D1E64851
:103E70009030006800F44075CDB1206DA84216D096
:103E8000E1489030006820F44075DF48D0F8900099
:103E900040F48030DC49C1F890000846D0F890002A
:103EA00020F48030C1F890000846C0F8905005F02A
:103EB0000100A0B1FFF788FC064608E0FFF784FC8C
:103EC000801B41F28831884201D9032706E0CE48A1
:103ED0009030006800F002000028EFD000BF5FB90A
:103EE000C9489030006820F44070216D0843C649ED
:103EF000C1F8900003E00CE0B84600E0B846B9F124
:103F0000010F05D1C048806D20F08050BE49886502
:103F100000BF207800F0010048B1BB48883000683D
:103F200020F0030061680843B749C1F88800207891
:103F300000F00200022809D1B3488830006820F060
:103F40000C00A1680843B049C1F88800207800F04F
:103F50000400042809D1AC488830006820F0300003
:103F6000E1680843A849C1F88800207800F00800FB
:103F7000082809D1A4488830006820F0C0002169D1
:103F80000843A149C1F88800207800F010001028EB
:103F900009D19D488830006820F440706169084369
:103FA0009949C1F88800207800F02000202809D124
:103FB00095488830006820F44060A1690843924920
:103FC000C1F88800207800F04000402809D18E48D0
:103FD0008830006820F44050E16908438A49C1F8FC
:103FE0008800207800F08000802809D18648883039
:103FF000006820F44040216A08438349C1F88800E2
:10400000208800F48070B0F5807F09D17E48883028
:10401000006820F44030616A08437B49C1F8880099
:10402000206800F40030B0F5003F09D176489C309C
:10403000006820F00300A16A08437349C1F89C009E
:10404000208800F40070B0F5007F09D16E488830F8
:10405000006820F44020E16A08436B49C1F88800F9
:10406000208800F48060B0F5806F13D166488830F6
:10407000006820F44010216B0843634988310860D0
:10408000206BB0F5801F05D15F48C06840F48010F8
:104090005D49C860208800F40060B0F5006F13D15E
:1040A00059488830006820F44000616B0843564945
:1040B00088310860606BB0F5800F05D15248C06848
:1040C00040F480105049C860208800F48050B0F55A
:1040D000805F13D14C488830006820F04070A16B9D
:1040E0000843494988310860A06BB0F1807F05D151
:1040F0004548C06840F480104349C860208800F4F7
:104100000050B0F5005F13D13F488830006820F0C0
:104110004060E16B08433C4988310860E06BB0F1D6
:10412000006F05D13848C06840F480103649C86037
:10413000208800F48040B0F5804F13D13248883099
:10414000006820F04060216C08432F4988310860E6
:10415000206CB0F1006F05D12B48C06840F480108E
:104160002949C860208800F40040B0F5004F13D101
:1041700025488830006820F04050616C084322498F
:1041800088310860606CB0F1805F05D11E48C0685E
:1041900040F480301C49C860206800F48030B0F5DD
:1041A000803F13D118488830006820F04040A16C4F
:1041B0000843154988310860A06CB0F1804F05D1E3
:1041C0001148C06840F480300F49C860206800F48E
:1041D0008020B0F5802F13D10B489C30006820F46C
:1041E0004010E16C084308499C310860E06CB0F570
:1041F000001F05D10448C06840F480100249C8601F
:104200004046BDE8F8830000001002400070004006
:104210002DE9F04104460D464FF0000814B9012085
:10422000BDE8F0817D48006800F00F00A8420ED282
:104230007A48006820F00F00284378490860084653
:10424000006800F00F00A84201D00120E8E72078C4
:1042500000F00100002864D06068032823D1704872
:10426000006800F0007008B90120D9E702F0CAF830
:1042700006466C48864237D96948806800F0F000ED
:1042800030B1207800F0020002282DD1A06858BB80
:104290006348806820F0F00040F08000604988604A
:1042A0004FF0800820E06068022806D15C48006872
:1042B00000F4003040B90120B2E75948006800F42A
:1042C000806008B90120ABE700F0DEF806465548EB
:1042D000864209D95248806820F0F00040F0800002
:1042E0004F4988604FF080084D48806820F00300F7
:1042F000616808434A498860FFF766FA074608E0A4
:10430000FFF762FAC01B41F28831884201D90320CD
:1043100086E74348806800F00C006168B0EB810FCD
:10432000EED1207800F00200022820D1207800F0A1
:104330000400042805D13A48806840F4E060384918
:104340008860207800F00800082807D13448806889
:1043500020F4605040F4E060314988603048806863
:1043600020F0F000A16808432D49886008E0B8F10A
:10437000800F05D12A48806820F0F0002849886025
:104380002648006800F00F00A84219D923480068A9
:1043900020F00F00284321490860FFF715FA07466F
:1043A00008E0FFF711FAC01B41F28831884201D9B9
:1043B000032035E71948006800F00F00A842F0D14B
:1043C000207800F00400042807D11548806820F404
:1043D000E060E168084312498860207800F0080036
:1043E000082808D10E48806820F46050216940EA0E
:1043F000C1000B49886000F047F809498968C1F39A
:104400000311094A515C01F01F01C84007490860C7
:1044100007480068FFF736FB02E700000020024073
:104420000010024000B4C40400740008CC00002056
:10443000C40000200148006870470000CC00002044
:1044400000B5FFF7F7FF05498968C1F30221044A67
:10445000515C01F01F01C84000BD00000010024087
:104460001074000800B5FFF7E5FF05498968C1F33E
:10447000C221044A515C01F01F01C84000BD000088
:10448000001002401074000870B5224DAD6805F0B0
:104490000C05042D01D120483AE01E4DAD6805F011
:1044A0000C05082D01D11D4832E01A4DAD6805F00C
:1044B0000C050C2D2BD1174DED6805F00304154D9F
:1044C000ED68C5F303156A1C022C0CD0032C09D12E
:1044D000124DB5FBF2F50F4EF668C6F3062605FB46
:1044E00006F10AE000BF0C4DB5FBF2F5094EF66887
:1044F000C6F3062605FB06F100BF00BF054DED68BB
:10450000C5F341656D1C6B00B1FBF3F000E00020CA
:1045100070BD0000001002400024F40000366E015F
:104520002DE9F843044614B90120BDE8F88320784A
:1045300000F00100002865D0FC48806800F00C07FE
:10454000FA48C06800F003060C2F01D1032E01D0F9
:10455000082F0AD1F548006800F40030002851D037
:10456000606800284ED10120DFE700BF6068B0F529
:10457000803F06D1ED48006840F48030EB49086088
:104580001AE06068B0F5A02F0BD1E848006840F44D
:104590008020E64908600846006840F480300860E2
:1045A0000AE0E248006820F48030E04908600846EC
:1045B000006820F48020086000BF606888B1FFF7C1
:1045C00003F9054606E0FFF7FFF8401B0A2801D96A
:1045D0000320AAE7D548006800F400300028F2D094
:1045E00010E0FFF7F1F8054606E0FFF7EDF8401B95
:1045F0000A2801D9032098E7CC48006800F400306D
:104600000028F2D1207800F00200022860D1C748CB
:10461000806800F00C07C548C06800F003060C2F46
:1046200001D1022E01D0042F18D1C048006800F437
:10463000806018B1E06808B9012076E7BB4840689F
:1046400020F0FE40217C40EA0160B8494860B8484B
:104650000068FFF717FA18B3012066E7E06800B3B7
:10466000B248006840F48070B0490860FFF7ACF8C9
:10467000054606E0FFF7A8F8401B022801D90320F1
:1046800053E7AA48006800F480600028F2D0A748E9
:10469000406820F0FE40217C40EA0160A349486068
:1046A00016E0A248006820F48070A0490860FFF777
:1046B0008BF8054606E0FFF787F8401B022801D972
:1046C000032032E79948006800F480600028F2D1A6
:1046D000207800F00800082836D16069D0B19348EE
:1046E0009430006840F001009049C1F89400FFF751
:1046F0006BF8054606E0FFF767F8401B022801D972
:10470000032012E789489430006800F00200002876
:10471000F1D019E085489430006820F00100834909
:10472000C1F89400FFF750F8054606E0FFF74CF893
:10473000401B022801D90320F7E67C48943000682A
:1047400000F002000028F1D1207800F004000428D5
:1047500072D14FF000087548806D012121EA107078
:1047600078B100BF7148806D40F080506F49886516
:104770000846806D00F08050009000BF00BF4FF0F1
:1047800001086C48006800F48070B0B9694800689E
:1047900040F4807067490860FFF716F8054606E0A8
:1047A000FFF712F8401B022801D90320BDE661483B
:1047B000006800F480700028F2D000BFA0680128D3
:1047C00008D15A489030006840F001005749C1F8BC
:1047D000900021E0A06805280FD15448903000686F
:1047E00040F004005149C1F890000846D0F890000C
:1047F00040F00100C1F890000EE04C489030006895
:1048000020F001004949C1F890000846D0F8900016
:1048100020F00400C1F8900000BFA068A8B1FEF726
:10482000D3FF054609E0FEF7CFFF401B41F2883178
:10483000884202D9032078E625E03C4890300068A1
:1048400000F002000028EED013E0FEF7BDFF0546A1
:1048500008E0FEF7B9FF401B41F28831884201D9D8
:10486000032062E631489030006800F00200002822
:10487000EFD1B8F1010F05D12C48806D20F08050A8
:104880002A49886500BF207800F02000202836D112
:10489000A069D0B125489830006840F00100234954
:1048A000C1F89800FEF790FF054606E0FEF78CFF82
:1048B000401B022801D9032037E61C4898300068C5
:1048C00000F002000028F1D019E018489830006884
:1048D00020F001001549C1F89800FEF775FF054664
:1048E00006E0FEF771FF401B022801D903201CE6F9
:1048F0000E489830006800F002000028F1D1E0690D
:10490000002860D00948806800F00C000C287AD09C
:10491000E069022858D10548006820F080700349FA
:104920000860FEF751FF05460DE000000010024050
:10493000C400002000700040FEF746FF401B022824
:1049400001D90320F1E54A48006800F00070002812
:10495000F2D1D4E90810401E41EA0011A06A41EAF0
:104960000021208E0122C2EB500041EA4051342048
:10497000005DC2EB500041EA40612C20005D41EA3D
:10498000C0603B49C9683B4A114008433849C86088
:104990000846006840F0807008600846C06840F033
:1049A0008070C860FEF710FF054606E0FEF70CFFBA
:1049B000401B022801D90320B7E52D48006800F00C
:1049C00000700028F2D051E02948006820F0807083
:1049D00027490860FEF7F8FE054606E0FEF7F4FEFC
:1049E000401B022801D903209FE52148006800F000
:1049F00000700028F2D11E48C0681F4908401C49B9
:104A0000C86033E0FFE7E069012800D18DE5184870
:104A1000C66806F00301206A814225D106F0F00144
:104A2000606A401EB1EB001F1ED106F4FE41A06A71
:104A3000B1EB002F18D106F078412C20005DB1EBCE
:104A4000C06F11D106F4C001208E0122C2EB5000CC
:104A5000B1EB405F08D106F0C0613420005DC2EBCD
:104A60005000B1EB406F01D001205EE500205CE515
:104A7000001002400C809F01FCFFEEFE2DE9F0418A
:104A800004460D4616461F4614B90120BDE8F081C4
:104A9000D4F8880028B9002084F88400204600F06B
:104AA0007BFC2420C4F888002068006820F0010006
:104AB00021680860A06A10B1204602F067F820461D
:104AC00002F08CF9012800D1E0E72068806840F40A
:104AD0008040216888602068806820F40040284376
:104AE000216888604FEA465848EA0748206800680D
:104AF0000749084040EA080021680860206800680B
:104B000040F0010021680860204602F0BBF8BDE7D4
:104B1000FFFF00FC70B504462546681EB0F1807F9B
:104B200001D301200FE0681E4FF0E02148610F2102
:104B30004FF0FF3002F0C8FB00204FF0E021886109
:104B400007200861002070BD30B502460B4600BF4B
:104B500092F83C00012801D1022030BD012082F8EA
:104B60003C0000BF022082F83D00106841681068D8
:104B70008468234D1068A84207D0224D1068A842CF
:104B800003D0214D1068A84203D121F47001586868
:104B900001431E4801401868014310684160184DE8
:104BA0001068A8421BD01068B0F1804F17D0184D84
:104BB0001068A84213D0174D1068A8420FD0164DA8
:104BC0001068A8420BD00F4D1068A84207D0134DB3
:104BD0001068A84203D00C4D1068A84205D124F0FB
:104BE00080049868044310688460012082F83D00C6
:104BF00000BF002082F83C0000BF00BFADE700000E
:104C0000002C014000340140005001408FFFFFFDA7
:104C10000004004000080040000C0040004001403B
:104C200010B504460CB9012010BD94F83D0028B918
:104C3000002084F83C00204600F02AF8022084F886
:104C40003D00211D206801F057FC012084F8480038
:104C500000BF84F83E0001213F200155402001554E
:104C600041200155422001554320015500BF00BF9E
:104C7000012084F844004520015546200155472075
:104C8000015500BF012084F83D000020CCE7000062
:104C900008B50168B1F1804F0DD100BF0649896D9B
:104CA00041F00101044A91651146896D01F001014D
:104CB000009100BF00BF08BD001002402DE9F04187
:104CC00004460D46002700BF94F83C00012802D19D
:104CD0000220BDE8F081012084F83C0000BF0220E2
:104CE00084F83D00206886684248064026F47F46E6
:104CF000206886602868B0F5005F33D015DC402856
:104D000051D008DC002858D0102857D0202856D081
:104D1000302862D154E0502831D0602839D0702832
:104D200013D0B0F5805F58D10EE000F00F010029DC
:104D300053D10011A0F5803008284ED2DFE800F0F2
:104D4000414243444546474849E0D5E902136A6871
:104D5000206801F056FC2068866846F077062068D7
:104D600086603CE0D5E902136A68206801F049FCDE
:104D70002068806840F48040216888602FE0EA68FD
:104D80006968206801F05EFE5021206801F044FC53
:104D900025E0EA686968206801F090FE60212068DB
:104DA00001F03AFC1BE0EA686968206801F04AFEFD
:104DB0004021206801F030FC11E000BF00BF00BFBF
:104DC00000BF00BF00BF00BF00BF00BF00BF00BFEB
:104DD0002968206801F020FC01E0012700BF00BF26
:104DE000012084F83D0000BF002084F83C0000BF93
:104DF00038466EE788FFCEFF10B586B00446142112
:104E000001A8FBF7D0FA2068B0F1804F1AD100BF9B
:104E10000D48C06C40F002000B49C8640846C06CE5
:104E200000F00200009000BF00BFC81401900220F3
:104E300002900020039004900120059001A90348EE
:104E4000FEF7C6FB06B010BD00100240000400488B
:104E50002DE9F04104460D461646002700BF94F8A0
:104E60003C00012802D10220BDE8F081012084F835
:104E70003C0000BF0C2E51D005DC4EB1042E1ED0DC
:104E8000082E7AD133E0102E60D0142EF9D175E0BF
:104E90002946206801F0CCFB2068806940F00800BA
:104EA000216888612068806920F004002168886199
:104EB00020688069296908432168886178E029466B
:104EC000206801F015FC2068806940F400602168CA
:104ED00088612068806920F480602168886120688A
:104EE0008069296940EA01202168886160E02946DB
:104EF000206801F063FC2068C06940F00800216868
:104F0000C8612068C06920F004002168C861206879
:104F1000C069296908432168C86149E029462068B9
:104F200001F0B0FC2068C06940F400602168C861ED
:104F30002068C06920F480602168C8612068C06969
:104F4000296940EA01202168C86131E029462068CA
:104F500001F0FEFC2068006D40F008002168086543
:104F60002068006D20F00400216808652068006D4D
:104F700029690843216808651AE017E02946206876
:104F800001F022FD2068006D40F400602168086592
:104F90002068006D20F48060216808652068006D3D
:104FA000296940EA01202168086501E0012700BF66
:104FB00000BF00BF002084F83C0000BF384653E724
:104FC00010B504460CB9012010BD94F83D0028B975
:104FD000002084F83C00204600F029F8022084F8E4
:104FE0003D00211D206801F087FA012084F8480067
:104FF00000BF84F83E0001213F20015540200155AB
:1050000041200155422001554320015500BF00BFFA
:10501000012084F8440045200155462001554720D1
:10502000015500BF012084F83D000020CCE7704707
:1050300070B504460D4615B994F83E0015E0042DF0
:1050400002D13F20005D10E0082D02D14020005D1C
:105050000BE00C2D02D14120005D06E0102D02D1A5
:105060004220005D01E04320005D012801D00120C5
:1050700070BD1DB9022084F83E001AE0042D03D152
:1050800002213F20015514E0082D03D102214020C8
:1050900001550EE00C2D03D102214120015508E0FD
:1050A000102D03D102214220015502E002214320AC
:1050B000015501222946206801F092FA2D49206805
:1050C000884213D02C49206888420FD02B49206891
:1050D00088420BD02A492068884207D02949206895
:1050E000884203D028492068884201D1012000E08D
:1050F000002028B12068406C40F4004021684864DA
:105100001C49206888421BD02068B0F1804F17D01E
:105110001E492068884213D01D49206888420FD05C
:105120001C49206888420BD013492068884207D068
:1051300012492068884203D013492068884210D160
:1051400020688068144900EA0106062E0FD0B6F5E3
:10515000803F0CD02068006840F0010021680860A2
:1051600005E02068006840F0010021680860002028
:105170007EE70000002C0140003401400040014067
:10518000004401400048014000500140000400403C
:1051900000080040000C00400700010030B5044644
:1051A0000D4600222946206801F01AFA304920688D
:1051B000884213D02F49206888420FD02E4920689A
:1051C00088420BD02D492068884207D02C4920689E
:1051D000884203D02B492068884201D1012000E099
:1051E000002088B100BF2068006A2749084050B9F4
:1051F0002068006A8911084028B92068406C20F4B2
:1052000000402168486400BF00BF2068006A1E4952
:10521000084050B92068006A8911084028B9206800
:10522000006820F001002168086000BF1DB901205E
:1052300084F83E001AE0042D03D101213F200155DE
:1052400014E0082D03D10121402001550EE00C2D62
:1052500003D101214120015508E0102D03D1012186
:105260004220015502E0012143200155002030BDBC
:10527000002C014000340140004001400044014046
:10528000004801400050014011111100014600BFCB
:1052900091F88400012801D102207047012081F893
:1052A000840000BF2420C1F88800086802680868EC
:1052B000006820F001000B68186022F00052002006
:1052C0004866086802602020C1F8880000BF0020FE
:1052D00081F8840000BF00BFDFE770B504460D46CB
:1052E00000BF94F88400012801D1022070BD012084
:1052F00084F8840000BF2420C4F888002068066871
:105300002068006820F0010021680860206880683B
:1053100020F06060284321688860204601F00AFC84
:10532000206806602020C4F8880000BF002084F8B0
:10533000840000BF00BFD9E770B504460D4600BF2A
:1053400094F88400012801D1022070BD012084F866
:10535000840000BF2420C4F8880020680668206804
:10536000006820F00100216808602068806820F053
:105370006040284321688860204601F0DBFB2068FC
:1053800006602020C4F8880000BF002084F8840054
:1053900000BF00BFD9E7000010B59CB0044614213F
:1053A00017A8FBF700F8542102A8FAF7FCFF2949D7
:1053B000206888424CD1022002900020049002A86C
:1053C000FEF71AFD08B1FBF766FC00BF2248806DAE
:1053D00040F40030204988650846806D00F40030B4
:1053E000019000BF00BF00BF0846C06C40F0010044
:1053F000C8640846C06C00F00100019000BF00BF07
:1054000000BF0846C06C40F00200C8640846C06C8B
:1054100000F00200019000BF00BF0A201790022098
:105420001890002019901A9007201B9017A94FF090
:105430009040FEF7CDF80820179002201890002029
:1054400019901A9007201B9017A90448FEF7C0F87E
:105450001CB010BD00440040001002400004004891
:1054600000BFFEE78168024A1140491C8160704715
:10547000C0FFFF7F0146886800F0E070704701467A
:10548000886800F01F007047024602F1600000EBE0
:105490008103186800F0F840704701468868C0F33F
:1054A000C00070470146886800F00100704701465F
:1054B000886800F00100704701468868C0F30070FA
:1054C000704701468868C0F38000704701468868CD
:1054D000C0F3800070470146C86800F4406008B916
:1054E000012070470020FCE78168024A1140091D35
:1054F00081607047C0FFFF7F70B500F11404C1F3F5
:10550000406504EB85031C68C1F304560725B540CC
:10551000AC43C1F3045502FA05F52C431C6070BD81
:10552000826822F0E0720A438260704710B500F191
:10553000600404EB81031C6824F0004414431C60E5
:1055400010BD426922F000420A43426170470000E8
:1055500001490860704700001404014001490860D7
:105560007047000034040140024909688143014A40
:105570001160704704040140024909688143014AEF
:105580001160704724040140024909688143014ABF
:105590001160704700040140024909688143014AD3
:1055A000116070472004014000B58BB000200890C6
:1055B00009900A9020216846FAF7F5FE4FF0A040C6
:1055C0003D4908604FF44030486000213A4881600E
:1055D000C1600161012141610421816100210177E4
:1055E0000121417706210162002180F82410C16267
:1055F0000163012180F838100021C16380F8401058
:10560000FCF7A8FA08B1FBF746FB0020089008A9B0
:105610002948FBF705FF08B1FBF73DFB2748009041
:105620000620019002907F20039004200490002027
:10563000059069462048FBF7CFFF08B1FBF72BFB2D
:105640001F4800900C20019069461B48FBF7C4FFDF
:1056500008B1FBF720FB1B4800901220019069461F
:105660001548FBF7B9FF08B1FBF715FB164800908A
:105670001820019069461048FBF7AEFF08B1FBF710
:105680000AFB124800904FF48070019069460A4866
:10569000FBF7A2FF08B1FBF7FEFA0D4800904FF4AC
:1056A0008370019069460448FBF796FF08B1FBF749
:1056B000F2FA0BB000BD00003C01002040002019B0
:1056C0008000501D000180210002B0250800900CD0
:1056D0000008302E00B589B0202101A8FAF763FE3A
:1056E0002D482E4908604FF44030486000212B4877
:1056F0008160C1600161012141610421816100215A
:1057000001770121417704210162002180F82410F2
:10571000C1620163012180F838100021C16380F863
:105720004010FCF717FA08B1FBF7B5FA1C480190D6
:105730000620029003907F20049004200590002012
:10574000069001A91548FBF747FF08B1FBF7A3FA3C
:10575000144801900C20029001A91048FBF73CFF6F
:1057600008B1FBF798FA104801901220029001A9A5
:105770000A48FBF731FF08B1FBF78DFA0B4801909F
:105780001820029001A90548FBF726FF08B1FBF796
:1057900082FA09B000BD000000010050A8010020FD
:1057A0000800900C1000C0100008302E001060326D
:1057B00010B50B480B49086000204860502109488B
:1057C0008160002101614FF48021C16000214161AD
:1057D00011218161FCF764FD08B1FBF75CFA10BD93
:1057E00018020140D402002000B58DB0302101A87C
:1057F000FAF7D9FD1048114908600846FDF794F8FA
:1058000008B1FBF748FA0220019000208DF808004B
:105810008DF80900039004900590022006900790EF
:1058200000200890002201A90448FCF749FF08B1B4
:10583000FBF731FA0DB000BD000C0050F80200205B
:1058400008B500BF1548806C40F004001349886417
:105850000846806C00F00400009000BF00BF00BF4D
:105860000846806C40F0010088640846806C00F0B7
:105870000100009000BF00BF002211460B20FEF780
:105880006DF90B20FEF756F9002211460C20FEF7A9
:1058900065F90C20FEF74EF908BD0000001002402B
:1058A00010B51348134908600020486000211148D2
:1058B0008160C1600121017400214174817428213B
:1058C0004161012181610D21C16103210162012139
:1058D00041628162C16201634163052181630021EC
:1058E000C163FDF721FC08B1FBF7D5F910BD00003D
:1058F000006400400C03002010B5134813490860F1
:1059000000204860002111488160C16001210174BC
:1059100000214174817428214161012181610D219F
:10592000C16103210162012141628162C16201639F
:105930004163052181630021C163FDF7F5FB08B1D7
:10594000FBF7A9F910BD00000068004070030020BB
:1059500010B5124812490860002048600021104824
:105960008160C1600121017400214174817428218A
:105970004161012181610D21C16103210162012188
:1059800041628162C1620163416381630021C1633D
:10599000FDF7CAFB08B1FBF77EF910BD006C0040B3
:1059A000D403002000B587B0142102A8FAF7FBFC4D
:1059B00000BF4148C06C40F020003F49C864084621
:1059C000C06C00F02000019000BF00BF00BF08467F
:1059D000C06C40F00400C8640846C06C00F00400CD
:1059E000019000BF00BF00BF0846C06C40F001003E
:1059F000C8640846C06C00F00100019000BF00BF01
:105A000000BF0846C06C40F00200C8640846C06C85
:105A100000F00200019000BF00BF00BF0846C06C4C
:105A200040F00800C8640846C06C00F0080001900F
:105A300000BF00BF002231214FF09040FDF7BEFEB5
:105A4000002241F610011D48FDF7B8FE002240F289
:105A500003411B48FDF7B2FE312002900120039064
:105A600000200490059002A94FF09040FDF7B0FD92
:105A700041F6100002900120039000200490059050
:105A800002A90E48FDF7A4FD40F203400290012058
:105A9000039000200490059002A90948FDF798FDA5
:105AA0000420029000200390049002A90548FDF70D
:105AB0008FFD07B000BD0000001002400008004844
:105AC00000040048000C004810B512481249086054
:105AD000124848600021104881600121C160002106
