:020000040800F2
:10000000280A002079020008D32D0008A92800083A
:10001000D12D00086F0400088D3300080000000097
:10002000000000000000000000000000D72D0008C4
:10003000F904000800000000D52D0008D92D0008A3
:10004000930200089302000893020008930200083C
:10005000930200089302000893020008930200082C
:10006000930200089302000893020008710400083C
:100070007D04000893020008930200089302000820
:1000800093020008930200089302000893020008FC
:1000900093020008010500080D05000893020008FE
:1000A00093020008930200089302000893020008DC
:1000B00093020008930200089302000893020008CC
:1000C00093020008930200089302000893020008BC
:1000D00093020008930200089302000893020008AC
:1000E000930200089302000893020008930200089C
:1000F000930200089302000893020008930200088C
:10010000930200089302000893020008930200087B
:10011000930200089302000893020008930200086B
:10012000930200089302000893020008930200085B
:10013000930200089302000893020008930200084B
:10014000930200089302000893020008930200083B
:10015000930200089302000893020008930200082B
:10016000930200089302000893020008930200081B
:10017000930200089302000893020008930200080B
:1001800093020008930200089302000893020008FB
:10019000930200080000000019050008250500086A
:1001A000310500083D05000893020008930200088D
:1001B00093020008930200089302000893020008CB
:1001C00093020008930200089302000893020008BB
:1001D000930200089302000800F002F800F03CF8D7
:1001E0000AA090E8000C82448344AAF10107DA4592
:1001F00001D100F031F8AFF2090EBAE80F0013F0A8
:10020000010F18BFFB1A43F0010318471C3200000E
:100210003C320000103A24BF78C878C1FAD852079F
:1002200024BF30C830C144BF04680C607047000070
:100230000023002400250026103A28BF78C1FBD8EF
:10024000520728BF30C148BF0B6070471FB503F08D
:10025000C5F81FBD10B510BD00F0CFF81146FFF76F
:10026000F5FF03F0A4F800F0EDF803B4FFF7F2FF98
:1002700003BC00F0F5F80000094880470948004732
:10028000FEE7FEE7FEE7FEE7FEE7FEE7FEE7FEE746
:10029000FEE7FEE704480549054A064B70470000A3
:1002A000452E0008D901000828040020280A002053
:1002B000280600202806002053EA020C00F069807E
:1002C0002DE9F04B4FF00006002B1FBFB3FA83F56A
:1002D00003FA05F424FA05F65E4012BF1643B2FA9B
:1002E00082F502FA05F4C5F120051EBF22FA05FCCD
:1002F00044EA0C04203556EA044C4FEA144418BF73
:10030000641C4FF000084FF00009904271EB030CA1
:1003100039D3002919BFB1FA81F701FA07F6B0FA0B
:1003200080F700FA07F6C7F120071EBF20FA07FC86
:1003300046EA0C062037B6FBF4FCA7EB0507103F96
:1003400007F01F0BCBF120060CFA0BFB2CFA06F67C
:1003500044BFB3460026202FA4BF5E464FF0000BDB
:100360005BEA060C08BF4FF0010B19EB0B09ABFB66
:10037000027C48EB0608C01B06FB02CC0BFB03CC3F
:1003800071EB0C01C1E70B46024641464846BDE809
:10039000F08B13B54FF000004FF00001AFF3008079
:1003A000BDE81C4070474FF0000200B5134694466C
:1003B0009646203922BFA0E80C50A0E80C50B1F1BD
:1003C0002001BFF4F7AF090728BFA0E80C5048BFD1
:1003D0000CC05DF804EB890028BF40F8042B08BF6F
:1003E000704748BF20F8022B11F0804F18BF00F86B
:1003F000012B7047704770477047754600F02CF826
:10040000AE4605006946534620F00700854618B001
:1004100020B5FFF73FFFBDE820404FF000064FF04A
:1004200000074FF000084FF0000B21F00701AC4629
:10043000ACE8C009ACE8C009ACE8C009ACE8C00948
:100440008D46704710B50446AFF300802046BDE8E6
:100450001040FFF70ABF000000487047C4030020A7
:1004600001491820ABBEFEE7260002007047FEE7F8
:10047000014800F051BD0000F0000020014800F0EC
:100480004BBD00005001002010B501680E4CCAB2EF
:100490001423083AA14203D2B2FBF3F20B4904E061
:1004A000B2FBF3F2094920310832436C02F01F021B
:1004B00023F003031944816404498031C16401219C
:1004C0009140016510BD0000080402400008024090
:1004D0000179084A01F07F0102EB81024265054A79
:1004E0004432491E826501F01F0201219140C1651D
:1004F00070470000FC080240704772B6FEE700003B
:10050000014800F0CCBD0000B0010020014800F01F
:10051000C6BD0000B0010020014800F0C0BD0000D1
:1005200014020020014800F0BABD000014020020AF
:10053000014800F0B4BD000078020020014800F03E
:10054000AEBD0000780200202DE9F04F044690F87F
:1005500058009BB00F464FF0000B012812D001202D
:1005600084F8580000261796189620684FF0A04887
:10057000DFF81C91DFF81CA1474D404506D1284605
:10058000009508E002201BB0BDE8F08F48450AD175
:100590005046CDF800A002F096F90090206802F0D5
:1005A00092F940B109E0E06D40F02000E06584F888
:1005B00058600120E7E7009850B1E06D40F020005E
:1005C000E0654FF0010B00BF84F858605846DAE749
:1005D00020684146884201D0A84201D12F4800E05E
:1005E0002F48D7F800C02F4B40F61F72BCF1000F08
:1005F0002DD0D0F808C094F838802CF4604C4CEA28
:10060000483CD7F804804CEA080CC0F808C0D4F87D
:1006100000C08C4501D0AC4504D18968AB6801F0BD
:10062000010109E0D9F80810DAF8085001F00101D9
:1006300005F001059B68294303F001031943C3D169
:10064000BB68396819438368934319431DE0876881
:1006500027F46047876027688F4201D0AF4204D1FA
:100660008968AB6801F0010109E0D9F80810DAF8EF
:10067000085001F0010105F001059B68294303F0D2
:1006800001031943A0D18168914381609CE7000078
:10069000000400500005005000010050000300500D
:1006A00000070050000600502DE9F84F00270446CF
:1006B000009790F85800DFF818840D46B9460128D5
:1006C00011D0012684F85860206802F0F8F860B173
:1006D000E06D40F02000E0655FF0010784F858907D
:1006E0003846BDE8F88F0220FBE7D5E900210C234E
:1006F000206803EA91131844036B01F01F014FF0C7
:100700001F0C0CFA01FCC2F3846223EA0C038A403A
:1007100013430363206802F0D2F88246206802F097
:10072000CAF85AEA00003CD1AA6829682068B2F1E8
:10073000004F37D002F0CBF82068416921F000412A
:10074000416120686969C268C2F3C10252009140E8
:100750002A69042A31D000EB82002B68026EDFF890
:1007600074C303F0F84302EA0C020B431A4342F04D
:100770000041016620682A69A96900EB8200026EC7
:1007800022F080720A430266297F20682A690129C3
:1007900010D0002100EB8200026E22F000720A43AA
:1007A00002667DE0002202F092F82068416941F083
:1007B0000041C5E74FF00071ECE7002102F075F849
:1007C000400320684FF0000172D002F06EF890FAFA
:1007D000A0F0B0FA80F1286842036ED090FAA0F041
:1007E000B0FA80F0814204D100221146206802F064
:1007F0007DF80121206802F058F8400320684FF08E
:1008000001015DD002F051F890FAA0F0B0FA80F149
:100810002868420359D090FAA0F0B0FA80F08142E3
:1008200004D100220121206802F060F80221206832
:1008300002F03BF8400320684FF0020148D002F07C
:1008400034F890FAA0F0B0FA80F12868420344D05E
:1008500090FAA0F0B0FA80F0814204D10022022187
:10086000206802F043F80321206802F01EF84003DC
:1008700020684FF0030133D002F017F890FAA0F08F
:10088000B0FA80F1286842032FD090FAA0F0B0FAB5
:1008900080F0814204D100220321206802F026F872
:1008A0002068816811F0010F22D0ACE000E004E084
:1008B00001F0FBFFC0F384618DE7C0F3846091E732
:1008C00001F0F3FFC0F38461A2E7C0F38460A6E700
:1008D00001F0EBFFC0F38461B7E7C0F38460BBE7CE
:1008E00001F0E3FFC0F38461CCE7C0F38460D0E79C
:1008F0002A7B296850F8B03FC1F3120C23EA0C039D
:1009000002F0180C744A22FA0CF20A4013430360F6
:10091000E968414577D1286841031CD090FAA0F1DD
:10092000B1FA81F1491C01F01F0109294FEA403158
:1009300032D8002912D000BF90FAA0F1B1FA81F1AB
:1009400001F1010101F01F0106FA01F609D100BF12
:10095000C0F3846109E0C0F38461E3E7C0F384611C
:10096000EEE790FAA0F1B1FA81F101F1010101F095
:100970001F0146EA816102D1C0F3846003E090FA6E
:10098000A0F0B0FA80F000F1010000F01F0000EBD1
:10099000400041EA005132E000290ED090FAA0F167
:1009A000B1FA81F101F1010101F01F0106FA01F62E
:1009B00006D100BFC0F3846106E0C0F38461F1E7B3
:1009C00090FAA0F1B1FA81F101F1010101F01F01EA
:1009D00046EA816102D1C0F3846003E090FAA0F09E
:1009E000B0FA80F000F1010000F01F003B4A00EB7C
:1009F000400002EB005041EA000141F00071AA689A
:100A0000206801F064FF36482B6803423FF466AE6D
:100A100021684FF0A04C334D3348344E614501D02E
:100A2000A94201D1024600E032469268DFF8C08058
:100A300002F0E072434503D0DFF8B880434521D18E
:100A40005FEA02281ED4614506D02B4B99427FF401
:100A500045AEA94200D0304642F40001826822F03F
:100A6000E0720A438260254825490068B0FBF1F036
:100A7000401C00EB4000800000E0401E0090002879
:100A8000FBD12BE6DFF87C8043450DD15FEAC2182D
:100A90000AD4A942F5D01C4B9942F2D0614500D04E
:100AA000304642F080710CE0DFF860804345E8D1C9
:100AB0005302E6D4A942E4D0614500D0304642F466
:100AC0008001826822F0E0720A43826006E600003C
:100AD00000007F4000F0FF03FFFF0700000020FE42
:100AE0000000088000010050000300500007005083
:100AF000000021C31000C090000600501400002028
:100B0000400D0300000052C700050050000084CBD8
:100B1000F8B54FF0000504002E46009502D0E06DB8
:100B200010B107E00120F8BD204600F009F9266663
:100B300084F8586020688168C1F3407119B18168F8
:100B4000734A1140816020688168C1F3007189B9DE
:100B50008168704A114041F0805181606E486F4950
:100B60000068B0FBF1F04000801C00E0401E0090E7
:100B70000028FBD120688168C1F3007141B9E16DA3
:100B800041F01001E165216E41F00101216601256E
:100B900001F095FEE16DC90600D430B1E06D40F082
:100BA0001000E06501252846F8BDE06D20F4807056
:100BB00040F00200E0652068816811F0010F27D144
:100BC0004FF0A043564A984201D0904204D1996810
:100BD000966801F001010AE052498968524E01F01D
:100BE0000101B66806F001063143504EB66806F0C2
:100BF000010631430CD1984201D0904201D14C48BA
:100C000000E04C486168826822F47C120A438260EA
:100C1000E168E06B627F0843A16841EA4231084322
:100C200094F8241040EA0140012904D1218D424A60
:100C300002EB41410843E16A29B101F47871226B6A
:100C4000014342EA01002268D1683C4B194001434C
:100C5000D16020680169626B21F04061114301613C
:100C6000206801F028FE70BB207F94F838102268BD
:100C7000800340EA4100D16844F2020399430143F2
:100C8000D16020690028206801690AD041F48031D0
:100C90000161206850F8C01F22696FF30D011143F4
:100CA00007E021F480310161206850F8C01F6FF324
:100CB0000D01016094F8400001280CD02068016902
:100CC00021F001010161606901282068016B21F0B8
:100CD0000F0111D013E0D4E911010843D4E9131234
:100CE0001143084321680A6940F2FC739A43104398
:100CF00040F001000861E6E7226A521E11430163D9
:100D0000E06D20F0020040F00100E0654BE70000DC
:100D1000C0FFFF5FC0FFFF7F14000020400D0300F5
:100D20000001005000040050000500500006005073
:100D300000030050000700500000FEFF0740F0FFD6
:100D40002DE9F04F9BB0064614216846FFF72BFBB8
:100D5000542105A8FFF727FB4FF400423168002516
:100D60009003664F664C4FF003084FF004094FF0B4
:100D7000800B4FF0200AB1F1A04F10D0614B994287
:100D800066D11690059205A800F0ACFF08B1FFF7F8
:100D9000B4FB3868401C386001285CD063E01690D2
:100DA000059205A800F09EFF08B1FFF7A6FB386882
:100DB000401C3860012807D1E06C40F40050E0642A
:100DC000E06C00F400501A90E06C40F00400E06425
:100DD000E06C00F004001A90E06C40F00100E06468
:100DE000E06C00F001001A90E06C40F00200E0645A
:100DF000E06C444600F002001A900F208DE83100AC
:100E00006946414800F0FCFBCDF8009069464FF080
:100E10009040CDE9014500F0F3FB4FF4A0408DE890
:100E200031006946394800F0EBFB3A4C3848206005
:100E30000520C4E901054FF48070E560C4E904B001
:100E400080002562C4E9060A204650E07465A66267
:100E50001BB0BDE8F08FE06C40F40050E064E06C43
:100E600000F400501A90E06C40F00100E064E06C87
:100E700000F001001A90E06C40F00400E064E06CC7
:100E800000F004001A90E06C40F00200E064E06CB6
:100E9000444600F002001A90C0208DE831006946F7
:100EA0004FF0904000F0ACFBCDF800A057466946EB
:100EB0001548CDE9014500F0A3FBCDF80090694647
:100EC0001248CDE9014500F09BFB124C10486034FC
:100ED000143020602420C4E901054FF48070E560DF
:100EE000C4E904B080002562C4E90607204600F08A
:100EF00071F80028AAD0FFF700FBA7E70000002048
:100F000000100240000100500008004800040048A2
:100F100008000240F0000020F0B4016C0C68016889
:100F20000D6890F8442002F01F06042202FA06F32E
:100F3000234211D06B070FD50B689B0603D40B68B7
:100F400023F004030B6090F8441001F01F018A4065
:100F5000016C4A60016B1DE0022303FA06F7274289
:100F60004FF0000C4FF0010218D0AF0716D50C68F7
:100F7000A40605D40C6824F00A040C6080F825202F
:100F800090F8441001F01F018B40016C4B6080F819
:100F900024C0C16A00291AD0F0BC08470823B34016
:100FA000234214D02B0712D50B6823F00E030B60DD
:100FB00090F84410036C01F01F0102FA01F159602E
:100FC000C26380F8252080F824C0416BE2E7F0BCC2
:100FD0007047000070B504000CD02C4A2168142022
:100FE000914209D22A4A0A44B2FBF0F080006064C0
:100FF00028480AE0012070BD244A52420A44B2FB4C
:10100000F0F080006064214808382064022084F8F1
:1010100025000A6847F6F0708243D4E902031843BA
:10102000D4E904352B431843A3691843E3691843F3
:10103000236A1843104308602046FFF725FAA0688A
:101040000025B0F5804F00D165602079A16C00F0DB
:101050007F000860D4E9130141606068401E0328E6
:1010600008D82046FFF734FA606D0560D4E9160110
:10107000416002E06565A565E565E563012084F8EA
:10108000250084F82450002070BD000008040240B0
:10109000F8FFFDBF000002407047704770472DE920
:1010A000F05F04460068016D426D01F4E05102EA10
:1010B0000108016D426D01F0070102EA0109016DAD
:1010C000426D01F0380102EA010A016D476D01F439
:1010D00071010F40016D426D01F46021456D02EA1E
:1010E000010B016DCE43710607D4E943490604D4D0
:1010F000402101652046FFF7D1FFF0050ED4E843FB
:10110000C0050BD42068D0F8D820D0F8E0101140EA
:101110004FF480720265204600F06EFAB8F10000CC
:1011200005D0216808654146204600F067FAB9F10C
:10113000000005D0216808654946204600F058FAAD
:10114000BAF1000005D0216808655146204600F03C
:1011500050FAB00509D4E843800506D421684FF45D
:1011600000700865204600F04AFA30060DD4E843C6
:1011700000060AD42068D0F8D420D0F8DC10114042
:1011800080220265204600F038FAB00409D4E84312
:10119000800406D421684FF400500865204600F012
:1011A0002AFA300409D4E843000406D421684FF435
:1011B00000400865204600F01DFA70040AD4E84398
:1011C000400407D421684FF480400865206E40F049
:1011D00080002066BBF1000005D0216808655946F3
:1011E0002046FFF75AFF27B120680765206E384375
:1011F0002066206E002802D02046FFF74DFFBDE894
:10120000F09F00002DE9F041040006D0DFF8F481E2
:1012100094F85C00002518B107E00120BDE8F081DA
:1012200084F85D50204600F0F9F82068816921F0CB
:101230001001816100F004FB0646032705E000BFB2
:1012400000F0FEFA801B0A2811D820688069000788
:10125000F6D42068816941F00101816100F0F0FA63
:1012600006460BE000F0ECFA801B0A2806D9206E37
:1012700040F00100206684F85C70CEE72068806949
:10128000C007EFD02068816941F0020181612168C7
:10129000414502D15C4960680860207C01282068D3
:1012A000816937D041F040018161607C012820686C
:1012B000816932D021F480418161A07C01282068BD
:1012C00081692DD041F48051816120688169A268D3
:1012D00021F44071114381612068816921F0A401EA
:1012E00081612068016921F010010161E068012835
:1012F00019D010B302281BD02068816941F0800109
:1013000081612068016941F010010161E0680328F2
:101310000ED012E021F04001C6E741F48041CBE756
:1013200021F48051D0E72068816941F0040103E095
:101330002068816941F020018161207EE2694006D8
:101340006FF0FF0101EB0222A0F100701043226A4E
:10135000A38A521E10430A0202EB03431843236878
:10136000D861A068B0F5407F10D1D4E90A0301EB41
:101370000321401E0843216B131303EB01110843A3
:10138000A18C02EB014108432168C860206850F835
:10139000C01FE26B114301601D4A21681B48914246
:1013A00000D11C481C4A914201D100F5D460206450
:1013B00051F8802FA38E22F4F81242EA03420A6009
:1013C00000F170016164216851F8802F94F8383081
:1013D00022F0706242EA03620A6000F1B001A16487
:1013E000D831E164D831216518316165D83100E028
:1013F00020C08842FCD3A5652566012084F85C00E6
:1014000000200BE7006400400065004000A400409D
:101410000068004050A70040006C00402DE9F047F4
:101420009CB00446142115A8FEF7BDFF5421684660
:10143000FEF7B9FF684B2068991400254A03674EF0
:101440000227674C4FF009084FF09049984236D177
:1014500068460E92009100F045FC08B1FFF74DF888
:101460003068401C3060012807D1A06D40F000704A
:10147000A065A06D00F000701A90E06C40F00100D3
:10148000E064E06CCDE9167500F001001A904FF4AD
:10149000C050CDE91858159015A9484600F0B0F88D
:1014A00000221146152000F03DFB152000F02CFB1A
:1014B00000221146162000F035FB16203AE0494B79
:1014C000DFF824A198423AD168460E92009100F0CC
:1014D00009FC08B1FFF711F83068401C30600128A2
:1014E00007D1A06D40F00070A065A06D00F0007005
:1014F0001A90E06C40F00200E064E06CCDE91675F3
:1015000000F002001A9042F22000CDE91858159020
:1015100015A9504600F074F800221146562000F03C
:1015200001FB562000F0F0FA00221146572000F08F
:10153000F9FA572000F0E8FA1CB0BDE8F0872B4B11
:101540009842F9D168460E92009100F0CBFB08B1A9
:10155000FEF7D3FF3068401C3060012807D1A06D32
:1015600040F00070A065A06D00F000701A90E06C73
:1015700040F00100E064E06C00F001001A90E06CC3
:1015800040F00200E064E06C0B2400F002001A90CE
:101590004FF48070CDE91675CDE91854159015A952
:1015A000484600F02DF81020CDE91675CDE9185405
:1015B000159015A9504600F023F800221146582036
:1015C00000F0B0FA582000F09FFA0022114659208E
:1015D00000F0A8FA5920ADE70064004004000020A4
:1015E000001002400068004000040048006C004009
:1015F0007047704770477047704770477047704733
:101600002DE9F04FDFF80C92002301260325A9F104
:10161000040B85B00F2709F1040AABF1040EF1E0C9
:1016200006FA03FC12EA0C027ED00C7904F00304E3
:10163000012C01D0022C20D1846800945C0005FAB2
:1016400004F80494009C24EA08040094D1F80C8067
:10165000049C08FA04F8009C48EA0408C0F80880D2
:10166000446824EA0C0491F804C0CCF3001C0CFA82
:1016700003FC4CEA040CC0F804C00C79E443A40752
:1016800002D18C68012C0ED0C4684FEA430805FAD9
:1016900008FC24EA0C04D1F808C00CFA08FC4CEA57
:1016A000040CC0F80CC00C7904F00304022C16D111
:1016B000DC0800EB840CCDF808C0DCF820C05C0727
:1016C0004FEAD46807FA08F42CEA040C0C6904FA0F
:1016D00008F444EA0C04DDF808C0CCF820400468A3
:1016E0004FEA430805FA08FC24EA0C0491F804C008
:1016F0000CF0030C0CFA08FC4CEA040CC0F800C017
:101700004C6814F4403F7CD0434CD4F860C04CF09B
:10171000010CC4F860C0246E23F0030C04F0010433
:1017200000943E4C644400E06BE00294A4684FEAED
:10173000837C4FEA1C7807FA08FC24EA0C04B0F119
:10174000904F06D0DFF8D8C0604505D14FF0010CAE
:1017500020E04FF0000C1DE0DFF8C8C0604502D16A
:101760004FF0020C16E0DFF8C0C0604502D14FF028
:10177000030C0FE0DFF8B4C0604502D14FF0040C59
:1017800008E0DFF8ACC0604502D14FF0050C01E085
:101790004FF0060C0CFA08FC4CEA040C029CC4F84E
:1017A00008C0D9F80040CC46D1F8048094435FEAE1
:1017B000C82800D51443CCF80040DAF80040D446DD
:1017C000D1F8048094435FEA882800D51443CCF80C
:1017D0000040DBF80040DC46D1F8048094435FEA27
:1017E000883800D51443CCF80040DEF80040F446B9
:1017F000D1F8048094435FEAC83800D51443CCF88C
:1018000000405B1C0C682246DC407FF409AF05B049
:10181000BDE8F08F080401400010024000000140C4
:101820000004004800080048000C00480010004870
:10183000001400480AB1816170478162704700005E
:1018400001488068704700000800002090F841209F
:10185000202A24D190F84020012A20D0012280F8AB
:101860004020242280F841200268136823F00103FD
:1018700013600268136823F48053136002681368CE
:101880000B43136001680A6842F001020A602021DC
:1018900080F84110002180F840100846704702206F
:1018A000704790F84120202A22D190F84020012A48
:1018B0001ED0012280F84020242280F841200268B6
:1018C000136823F0010313600268136823F4706344
:1018D00043EA0121116001680A6842F001020A60CE
:1018E000202180F84110002180F840100846704700
:1018F0000220704770B5040004D094F84100002520
:1019000010B106E0012070BD84F84050204600F080
:101910004FF8242084F841002068016821F001017B
:1019200001606068216820F070600861206881684B
:1019300021F400418160E0680128A06830D040F4C3
:10194000044021688860E0680228206841682AD045
:1019500021F40061416020684168144A11434160EC
:101960002068C16821F40041C160D4E90401084342
:10197000A16940EA01202168C860D4E90701084351
:10198000216808602068016841F001010160656418
:10199000202084F84100256384F84250002070BD67
:1019A00040F40040CDE741F40061D3E7008000023D
:1019B000F0B59BB00446142115A8FEF7F4FC5421A1
:1019C0006846FEF7F0FC20492068884239D1402063
:1019D000002500900795684600F084F908B1FEF7ED
:1019E0008CFD1A4CE06C40F00100E064E06C00F00B
:1019F00001001A90E06C40F00200E064E06C1226F6
:101A000000F002001A9004274FF40040CDE916655B
:101A1000CDE91857159015A9B006FFF7F1FD802004
:101A2000CDE91665CDE91857159015A90848FFF7B7
:101A3000E7FDA06D40F40010A065A06D00F400105B
:101A40001A901BB0F0BD000000540040001002408E
:101A50000004004802488168426811448160704770
:101A60000800002010B50024032000F07BF80F20B0
:101A700000F008F808B1012401E000F025F8204644
:101A800010BD000070B50E4E05460024706898B178
:101A90004FF47A71B1FBF0F00A490968B1FBF0F03C
:101AA00000F032FE40B9102D06D200222946501E09
:101AB00000F038F8356000E00124204670BD0000D9
:101AC00008000020140000200EB5002000900190B6
:101AD0000C48016E41F001010166016E01F0010147
:101AE0000291816D41F080518165806D00F08050E0
:101AF0000290684600F0AEF800F0ECF800F0A2F8B2
:101B00000EBD000000100240002809DB00F01F029B
:101B1000012191404009800000F1E020C0F800114F
:101B200070470000F0B40E4B1B680C46C3F3022351
:101B3000C3F10705042D00D90425191D072901D279
:101B4000002300E0DB1E012606FA05F1491E2140B4
:101B500099409E40761E16403143F0BC01F017BC00
:101B60000CED00E0064900F0070208684FF6FF039D
:101B7000184040EA0220034A104308607047000002
:101B80000CED00E00000FA052B492C4B0A683221CD
:101B90004A432B4940B1B0F5007F086829D020F4B2
:101BA000C06040F480602CE00868C0F34120022847
:101BB00004D051F8800F20F4807022E0D1F880002A
:101BC00020F48070C1F88000086820F4C06040F400
:101BD00000700860B2FBF3F0401C00E0401E4A6950
:101BE000520501D50028F9D1486940050AD50320DE
:101BF0007047C0F34120022806D051F8800F40F40E
:101C00008070086000207047D1F8800040F4807038
:101C1000C1F88000086820F4C06040F400700860DB
:101C2000B2FBF3F0401C00E0401E4A695205DBD5D0
:101C30000028F9D1D8E700001400002040420F002E
:101C4000007000400248816841F480418160704723
:101C50000070004030B51D494A68036822F00E024A
:101C60001A434A601A490A6822F480320A600C1F3B
:101C7000226822F480322260154A0832136823F465
:101C8000803313600B1D1D6825F480351D60456889
:101C9000ED0303D5256845F4803525604468A40329
:101CA00003D50C6844F480340C600179C90703D073
:101CB000196841F4803119600079800703D51068F4
:101CC00040F480301060002030BD00000070004003
:101CD000040401400248416841F00101416070473D
:101CE000007000402DE9F843044600680026BB4D13
:101CF00000035ED5A86D0027C00008D4A86D40F091
:101D00008050A865A86D012700F080500090DFF892
:101D1000D092D9F8001041F48071C9F80010FFF793
:101D20008FFD804606E000BFFFF78AFDA0EB0800AC
:101D300002282BD8D9F80000C005F5D5D5F89000B9
:101D400010F4407014D0216D814211D0D5F890006C
:101D5000D5F8901020F4407041F48031C5F890100F
:101D6000D5F8901021F48031C5F89010C5F8900096
:101D7000C00711D0FFF764FD804641F2883907E0C3
:101D8000FFF75EFDA0EB0801494501D903260BE0F2
:101D9000D5F890008007F3D5D5F89000216D20F498
:101DA00040700843C5F890001FB1A86D20F0805026
:101DB000A8652078C00707D0D5F88800616820F0B2
:101DC00003000843C5F888002078800707D5D5F8B8
:101DD0008800A16820F00C000843C5F8880020782E
:101DE000400707D5D5F88800E16820F030000843A7
:101DF000C5F888002078000707D5D5F88800216944
:101E000020F0C0000843C5F888002078C00607D538
:101E1000D5F88800616920F440700843C5F888004F
:101E20002078800607D5D5F88800A16920F44060A5
:101E30000843C5F888002078400607D5D5F8880003
:101E4000E16920F440500843C5F888002078000676
:101E500007D5D5F88800216A20F440400843C5F82A
:101E600088002088C00507D5D5F88800616A20F46D
:101E700040300843C5F888002068800307D5D5F8AE
:101E80009C00A16A20F003000843C5F89C0020884C
:101E9000800507D5D5F88800E16A20F44020084382
:101EA000C5F88800208840050FD5D5F88800216B3B
:101EB00020F440100843C5F88800206BB0F5801F5F
:101EC00003D1E86840F48010E860208800050FD551
:101ED000D5F88800616B20F440000843C5F88800FD
:101EE000606BB0F5800F03D1E86840F48010E860C3
:101EF0002088C0040FD5D5F88800A16B20F0407071
:101F00000843C5F88800A06BB0F1807F03D1E86872
:101F100040F48010E86020884FF0006180040ED506
:101F2000D5F88800E26B20F040601043C5F88800C7
:101F3000E06B884203D1E86840F48010E8602088B4
:101F400040040ED5D5F88800226C20F04060104384
:101F5000C5F88800206C884203D1E86840F48010FE
:101F6000E860208800040FD5D5F88800616C20F067
:101F700040500843C5F88800606CB0F1805F03D121
:101F8000E86840F48030E8602068C0030FD5D5F8D9
:101F90008800A16C20F040400843C5F88800A06C80
:101FA000B0F1804F03D1E86840F48030E8602068E9
:101FB00040030FD5D5F89C00E16C20F44010084395
:101FC000C5F89C00E06CB0F5001F03D1E86840F450
:101FD0008010E8603046BDE8F88300000010024041
:101FE000007000402DE9F0470E4605004FF0000755
:101FF00025D0DFF8AC81D8F8000000F00F00B04227
:102000000CD2D8F8001021F00F013143C8F80010AD
:10201000D8F8000000F00F00B04210D12968614CE0
:10202000C80741F2883A5AD06868DFF87C910328E3
:1020300008D0022820682DD0400500282CDB012084
:10204000BDE8F08720688001F9D5E06800F0030260
:10205000E068C0F30310401C032A19D0534A00BFA4
:10206000B2FBF0F0E268C2F306225043E268C2F32A
:102070004162521C5200B0FBF2F0484517D9A068EB
:1020800010F0F00F0CD0880711D5A86840B10EE011
:10209000474AE5E78003D0E700F0B6F8484506D99F
:1020A000A06820F0F00040F08000A0608027A068C9
:1020B000696820F003000843A060FFF7C1FB814678
:1020C00006E000BFFFF7BCFBA0EB090151453AD881
:1020D000A068696800F00C00B0EB810FF2D12868AD
:1020E000810714D5400703D5A06840F4E060A060E4
:1020F0002878000705D5A06820F4605040F4E0601F
:10210000A060A068A96820F0F000084304E0802FD8
:1021100003D1A06820F0F000A060D8F8001040467D
:1021200001F00F01B14216D9016821F00F013143CE
:102130000160FFF785FB074607E000BFFFF780FB64
:10214000C11B514501D903207AE7D8F8000000F0FF
:102150000F00B042F2D12878400705D5A068E968A1
:1021600020F4E0600843A0602878000706D5A06846
:10217000296920F4605040EAC100A06000F044F8F2
:10218000A1680C4AC1F30311515C01F01F01C84062
:102190000949086009480068BDE8F047FFF772BCCC
:1021A000002002400010024000B4C4040024F400E7
:1021B00000366E010E3400081400002008000020D4
:1021C0000548064900688968054AC1F30221515C47
:1021D00001F01F01C84070471400002000100240A9
:1021E0001E3400080548064900688968054AC1F39D
:1021F000C221515C01F01F01C8407047140000204B
:10220000001002401E340008184910B58868C0F359
:1022100081021748012A0BD08A68164BC2F381024B
:10222000022A06D08A68C2F38102032A03D0002062
:1022300010BD184610BDCA6802F00304CA68C2F394
:102240000312521C032C02D0B0FBF2F001E0B3FBEE
:10225000F2F0CA68C968C2F306225043C1F3416173
:10226000491C4900B0FBF1F010BD00000010024015
:102270000024F40000366E012DE9F84304007AD002
:102280002078F84DC00747D0A868E96800F00C0036
:1022900001F003010C2802D0082817D001E003291F
:1022A00014D06068B0F5803F17D0B0F5A02F286833
:1022B00017D020F480302860286820F4802028601F
:1022C0006068E0B1FFF7BCFA064614E028688003B6
:1022D00022D560680028D2D01EE0286840F4803003
:1022E000EDE740F480202860F7E700BFFFF7A8FA89
:1022F000801B0A2870D828688003F7D50CE0FFF708
:102300009FFA064605E000BFFFF79AFA801B0A28ED
:10231000F0D828688003F7D4207880074CD5A868C7
:10232000E96800F00C0001F003010C2802D0042839
:102330000DD001E002290AD0E068002828682BD0DF
:1023400040F480702860FFF77BFA064619E02868A1
:10235000400502D5E068002891D06868217C20F013
:10236000FE4040EA01606860BF480068FFF78AFBF2
:10237000002800D120E072E1FFF762FA801B0228FA
:10238000B8D828684005F7D56868217C20F0FE4061
:1023900040EA016068600FE020F480702860FFF779
:1023A0004FFA064605E000BFFFF74AFA801B0228F5
:1023B000A0D828684005F7D42078000729D560699F
:1023C0000028D5F8940013D040F00100C5F894001F
:1023D000FFF736FA064606E090E000BFFFF730FA56
:1023E000801B022886D8D5F894008007F6D510E027
:1023F00020F00100C5F89400FFF722FA064604E039
:10240000FFF71EFA801B022878D8D5F894008007C1
:10241000F6D42078400761D5A86D0026C00008D406
:10242000A86D40F08050A865A86D012600F080508E
:1024300000908E480168C90511D40168804641F4B6
:1024400080710160FFF7FCF9074604E0FFF7F8F937
:10245000C01B022852D8D8F80000C005F6D5A068E5
:10246000012815D00528D5F8900016D020F00100DD
:10247000C5F89000D5F8900020F00400C5F8900051
:10248000A06841F28838B8B1FFF7DAF907460EE0E4
:10249000D5F8900040F00100F0E740F00400C5F8E6
:1024A0009000F5E7FFF7CCF9C11B414526D8D5F8D8
:1024B00090008007F6D50CE0FFF7C2F9074604E06C
:1024C000FFF7BEF9C11B414518D8D5F89000800729
:1024D000F6D41EB1A86D20F08050A8652078800643
:1024E00029D5A0690028D5F8980013D040F0010044
:1024F000C5F89800FFF7A4F9064606E075E000BFAE
:10250000FFF79EF9801B02286FD8D5F89800800746
:10251000F6D510E020F00100C5F89800FFF790F91B
:10252000064604E0FFF78CF9801B02285DD8D5F839
:1025300098008007F6D4E069F0B3A968C1F381017F
:1025400003295DD00228286820F08070286003D01D
:10255000FFF776F904464BE0FFF772F9064604E010
:10256000FFF76EF9801B02283FD828688001F7D456
:10257000F4E908016FF00F0202EB01110843218A10
:102580005204490802EB4151A26841EA0221084382
:10259000217D4FF07E42490802EB41610843217BD7
:1025A00040EAC160E968324A11400843E86028689F
:1025B00040F08070286000E05EE0E86840F08070E5
:1025C000E860FFF73DF9044605E000BFFFF738F982
:1025D000001B022809D828688001F7D54CE000BF0D
:1025E000FFF72EF9001B022802D90320BDE8F8836B
:1025F00028688001F4D4E8681E490840E8603BE0A0
:102600000128F3D0E868226A00F00301914226D144
:10261000616A00F0F0020901103991421FD1A26AEB
:1026200000F4FE41B1EB022F19D194F82C2000F0F8
:102630007841B1EBC26F12D1218E00F4C00249087B
:102640004905A1F50011914209D194F8341000F028
:10265000C06049084906A1F1007181420CD00120F7
:10266000C4E7000000100240080000200070004095
:102670000C809F01FCFFEEFE0020B7E72DE9F04142
:102680001D4616460F46040003D0D4F8880018B142
:1026900008E00120BDE8F081002084F88400204695
:1026A00000F0B2F82420C4F888002068016821F006
:1026B00001010160A06A10B1204600F0EDFB204648
:1026C00000F0CEFC0128E5D02068816841F480410B
:1026D00081602068816821F4004139438160700580
:1026E00040EA054120680268064B1A400A4302602E
:1026F0002068016841F0010101602046BDE8F04119
:1027000000F02EBCFFFF00FC10B5401EB0F1807F32
:1027100001D3012010BD4FF0E02460610F2160174C
:1027200000F035FE0020A06107202061002010BDD0
:1027300090F88410012918D0012180F884102421F8
:10274000C0F8881001680A680B6823F001030B6069
:1027500022F0005100224266036819602021C0F86F
:10276000881080F88420104670470220704770B5AA
:10277000044690F8840001281DD0012084F88400CC
:102780002420C4F8880020680568026822F001024D
:1027900002602068826822F060620A4382602046FC
:1027A00000F058FB206805602020C4F88800002055
:1027B00084F8840070BD022070BD70B5044690F8A6
:1027C000840001281DD0012084F884002420C4F84E
:1027D000880020680568026822F001020260206813
:1027E000826822F060420A438260204600F032FB99
:1027F000206805602020C4F88800002084F8840048
:1028000070BD022070BD000070B59CB0044614215C
:1028100015A8FDF7C8FD54216846FDF7C4FD1F4902
:102820002068884238D10225002468460095029429
:10283000FFF758FA08B1FDF760FE1948816D41F4C1
:1028400000318165816D01F400311A91C16C41F054
:102850000101C164C16C01F001011A91C16C41F028
:102860000201C164C06C072600F002001A900A2021
:10287000CDE91654CDE91846159015A94FF09040B2
:10288000FEF7BEFE0820CDE91654CDE91846159096
:1028900015A90448FEF7B4FE1CB070BD004400400A
:1028A0000010024000040048FEE700EB8100006ECB
:1028B00000F0F84070478068C0F3C000704780683F
:1028C000C0F3800070478068C0F380007047042325
:1028D00003EAD15310B518444369C1F304510724E6
:1028E0008C40A3438A401343436110BD00EB810039
:1028F000016E21F0004111430166704770B58CB044
:10290000002408940994202168460A94FDF74BFDA1
:1029100039484FF0A041042501604FF44031C0E92F
:10292000011485610121C460C0E904410477417745
:102930000626066280F82440C462046380F83810DA
:10294000C46380F84040FEF7E3F808B1FDF7D5FD19
:1029500008A929480894FDF7F7FD08B1FDF7CDFD5A
:102960002648CDE900067F20CDE90250CDE9045488
:1029700069462148FDF798FE08B1FDF7BEFD2048E5
:1029800000900C20019069461B48FDF78DFE08B1B0
:10299000FDF7B3FD1B4800901220019069461648D0
:1029A000FDF782FE08B1FDF7A8FD1748009018203A
:1029B000019069461048FDF777FE08B1FDF79DFDCF
:1029C000124800904FF48070019069460A48FDF764
:1029D0006BFE08B1FDF791FD0D4800904FF4837038
:1029E000019069460448FDF75FFE002801D0FDF71D
:1029F00084FD0CB070BD00001800002040002019BC
:102A00008000501D000180210002B0250800900CBC
:102A10000008302E30B589B020216846FDF7C3FC90
:102A20002A482949002401604FF44031C0E90114CB
:102A3000042585610121C460C0E904410477417720
:102A4000056280F82440C462046380F83810C463CF
:102A500080F84040FEF75CF808B1FDF74EFD1C48D9
:102A600000900620CDE901057F200594CDE90305FE
:102A700069461648FDF718FE08B1FDF73EFD1548FA
:102A800000900C20019069461048FDF70DFE08B13A
:102A9000FDF733FD104800901220019069460B4865
:102AA000FDF702FE08B1FDF728FD0C480090182044
:102AB000019069460548FDF7F7FD002801D0FDF7B4
:102AC0001CFD09B030BD0000000100508400002052
:102AD0000800900C1000C0100008302E001060326A
:102AE000114808B5816C41F004018164816C01F0EA
:102AF00004010091816C41F001018164806C00222D
:102B000000F00100009011460B20FFF70BF80B209E
:102B1000FEF7FAFF002211460C20FFF703F8BDE88C
:102B200008400C20FEF7F0BF00100240124810B51C
:102B300010490022C0E9001282600121C2600174C4
:102B4000427482740A23C0E905310D23C361032353
:102B5000C0E908318162C16201634163C0E90E12BC
:102B6000FEF750FB002803D0BDE81040FDF7C5BCC0
:102B700010BD000000640040B0010020124810B5F4
:102B800010490022C0E9001282600121C260017474
:102B9000427482740A23C0E905310D23C361032303
:102BA000C0E908318162C16201634163C0E90E126C
:102BB000FEF728FB002803D0BDE81040FDF79DBCC0
:102BC00010BD00000068004014020020124810B53B
:102BD00010490022C0E9001282600121C260017424
:102BE000427482740A23C0E905310D23C3610323B3
:102BF000C0E908318162C16201634163C0E90E121C
:102C0000FEF700FB002803D0BDE81040FDF775BCBF
:102C100010BD0000006C0040780200202DE9F04754
:102C200086B014216846FDF7BEFB3448C16C41F004
:102C30002001C164C16C01F020010591C16C41F01B
:102C40000401C164C16C01F004010591C16C41F043
:102C50000101C164C16C01F001010591C16C41F039
:102C60000201C164C16C01F002010591C16C41F027
:102C70000801C164C06C4FF0904800F00800059056
:102C8000002231214046FEF7D5FDDFF8749041F671
:102C90001006002231464846FEF7CCFDDFF864A05E
:102CA00040F60347002239465046FEF7C3FD312067
:102CB000009001250024CDE9015469464046039463
:102CC000FEF79EFC0096CDE9015469464846039400
:102CD000FEF796FC0097CDE90154694650460394EF
:102CE000FEF78EFC0420CDE90004694606480294F4
:102CF000FEF786FC06B0BDE8F08700000010024039
:102D00000008004800040048000C0048134810B5B3
:102D1000114901601249416000210122C0E90212FB
:102D2000016141618161C1610162FEF7E3FD08B1AA
:102D3000FDF7E3FB00210948FEF788FD08B1FDF728
:102D4000DCFB00210548FEF7ACFD002803D0BDE800
:102D50001040FDF7D2BB10BD00540040DC02002043
:102D6000C285B240194810B5174901604FF4E131EE
:102D70004160002181600C22C160C0E904128161C0
:102D8000C161016241620B460A468162FFF776FC2F
:102D900008B1FDF7B2FB00210C48FFF70EFD08B1AA
:102DA000FDF7ABFB00210948FFF7E1FC08B1FDF797
:102DB000A4FB0648FFF7BCFC002803D0BDE8104088
:102DC000FDF79BBB10BD0000004400403003002015
:102DD000FEE7FEE770477047FEF73CBE10B594B0C3
:102DE00038216846FDF7DFFA14210EA8FDF7DBFA5B
:102DF0000020FEF7C9FE01200090032406210004F4
:102E0000CDE90841019002205521CDE90A10079033
:102E10000821CDE90C106846FFF72EFA08B172B60A
:102E2000FEE70F20CDE90E040020109011901290C3
:102E300004210EA8FFF7D6F8002801D072B6FEE7ED
:102E400014B010BD0248016841F470010160704780
:102E500088ED00E030B5416EB9B1026891689268C2
:102E6000C1F342610B4B520F9C5CE50003F1080477
:102E7000A25CB5FBF2F2A0F86A205A5C615CD20059
:102E8000B2FBF1F1A0F8681030BD0121A0F86A1082
:102E9000F8E70000FE33000890F82810090706D56F
:102EA00001684A68836B22F400421A434A6090F832
:102EB0002810C90706D001684A68C36A22F40032A4
:102EC0001A434A6090F82810890706D501684A68B5
:102ED000036B22F480321A434A6090F828104907A5
:102EE00006D501684A68436B22F480221A434A607F
:102EF00090F82810C90606D501688A68C36B22F4C9
:102F000080521A438A6090F82810890606D5016815
:102F10008A68036C22F400521A438A6090F82810E1
:102F2000490611D501684A68436C22F480121A439D
:102F30004A60416CB1F5801F06D101684A68836C14
:102F400022F4C0021A434A6090F82810090606D5F8
:102F500001684A68C06C22F4002202434A6070474C
:102F60002DE9F84300260446C0F89060FEF768FC9F
:102F70008046206800684FF0200500076FF07E470C
:102F800013D54346002229042046009700F0B4F9E7
:102F900058B1216851E8000F20F0800041E800029C
:102FA000002AF6D1C4F8885021E020680068400764
:102FB00022D5434600224FF480012046009700F0BE
:102FC0009BF9C8B1216851E8000F20F4907041E8E6
:102FD0000002002AF6D12068083050E8001F21F0D6
:102FE000010140E80012002AF5D1C4F88C5084F8A1
:102FF00084600320BDE8F883C4F88850C4F88C507E
:1030000044F86C6F666026760020F3E710B502681E
:1030100052E8001F21F4907142E80013002BF6D112
:103020000E4B0268083252E8001F194042E80014B3
:10303000002CF6D1C16E012908D1016851E8002F9A
:1030400022F0100241E80023002BF6D12021C0F825
:103050008C100021C166416710BD0000FEFFFFEF2C
:103060002DE9F0410446016880682269E369104354
:10307000626900251A431043DFF84CC20A68934B7B
:103080001A4002430A6020684168E26821F4405116
:10309000114341602168A069614501D0226A104353
:1030A0008A688B4B1A4002438A602068C16A626A50
:1030B00021F00F011143C1628649236886488B4283
:1030C0000DD1D0F8880010F0030006D0012867D099
:1030D000022854D0032851D164E001204FE07F49F9
:1030E0008B420BD1D0F8880010F00C0047D0042898
:1030F00045D0082852D00C2840D153E078498B4263
:103100000BD1D0F8880010F0300038D0102847D00C
:10311000202843D0302831D144E072498B420BD172
:10312000D0F8880010F0C00029D0402838D080287E
:1031300034D0C02822D135E06B498B420ED1D0F873
:10314000880010F440701AD0B0F5807F28D0B0F518
:10315000007F23D0B0F5407F10D123E063450DD12F
:10316000D0F8880010F4406009D0B0F5806F17D017
:10317000B0F5006F12D0B0F5406F13D010205B4A4D
:103180005B4F00264FF40041634539D160B10228FE
:103190000DD004280DD0082831D10EE00220EEE732
:1031A0000420ECE70820EAE7FFF70AF803E01146FD
:1031B00003E0FFF729F801007BD0606A37F81020A0
:1031C0006768B1FBF2F007EB4703834269D8B0EBC5
:1031D000073F66D8002308461946FDF76DF8090237
:1031E00041EA106102027808101871413A46002342
:1031F000FDF762F83F4AA0F54071914257D950E07F
:10320000E3694FF6EF788B422BD1092849D2DFE8EA
:1032100000F005080D48254848480E00FEF7D0FF8D
:1032200001E0FEF7DFFF010001D142E01146606AD4
:1032300037F81000B1FBF0F04100606801EB50017D
:10324000B1FBF0F1A1F1100040452AD84FF6F07221
:1032500001EA0200C1F34201084328E0FEF7D4FF6F
:10326000E1E709281DD2DFE800F005080D1C1E1C4F
:103270001C1C0E00FEF7A4FF01E0FEF7B3FF0100E7
:1032800001D116E01146606A37F81000B1FBF0F189
:10329000606801EB5001B1FBF0F0A0F11001414575
:1032A00004D9012505E0FEF7AFFFE8E780B2216809
:1032B000C8600120A4F86A0024F8680F2846E66078
:1032C0002661BDE8F081000000800040F369FFCF77
:1032D000FFF4FF110038014000100240004400409C
:1032E00000480040004C0040005000400024F40022
:1032F000E6330008FFFC0F002DE9F047994617461A
:103300000D4604464FF00008089E33E0701C31D093
:10331000FEF796FAA0EB0900B04218D8BEB12068BB
:103320000168490726D5802D24D0402D22D0C169BF
:10333000C94309070DD4082505622046FFF766FE3C
:10334000C4F8905084F884800120BDE8F087032001
:10335000FBE7C069C04300050CD421684FF400604E
:1033600008622046FFF752FE2020C4F8900084F83F
:103370008480ECE72068C06935EA000004D00020B2
:10338000B842C3D00020E0E70120F9E7FEE70907D3
:10339000090E002804DB00F1E02080F800147047DB
:1033A00000F00F0000F1E02080F8141D7047FEF7D8
:1033B00059FBFFF713FDFFF731FCFFF791FBFFF718
:1033C0009DFAFFF727FBFFF7B1FBFFF7D7FBFFF7EE
:1033D000FDFBFFF79BFCFFF7C5FCFEE74FF04070DD
:1033E000E1EE100A70470100020004000600080028
:1033F0000A000C00100020004000800000010101C4
:103400000103070100000804020408010101000093
:103410000000000000000102030406070809000084
:1034200000000102030400004834000800000020EE
:103430001800000014020008603400081800002082
:10344000100A000030020008000000000000000028
:103450001000000001000000000000000024F40043
:04000005080001D915
:00000001FF
