:020000040800F2
:10000000280B002079020008C54600087940000846
:10001000C146000891090008E154000800000000F2
:10002000000000000000000000000000394D000842
:100030006D0A000800000000C94600083B4D00089A
:10004000930200089302000893020008930200083C
:10005000930200089302000893020008930200082C
:100060009302000893020008930200089509000813
:10007000A5090008930200089302000893020008F3
:1000800093020008930200089302000893020008FC
:1000900093020008750A0008850A00089302000808
:1000A00093020008930200089302000893020008DC
:1000B00093020008930200089302000893020008CC
:1000C00093020008930200089302000893020008BC
:1000D00093020008930200089302000893020008AC
:1000E000930200089302000893020008930200089C
:1000F000930200089302000893020008930200088C
:10010000930200089302000893020008930200087B
:10011000930200089302000893020008930200086B
:10012000930200089302000893020008930200085B
:10013000930200089302000893020008930200084B
:10014000930200089302000893020008930200083B
:10015000930200089302000893020008930200082B
:10016000930200089302000893020008930200081B
:10017000930200089302000893020008930200080B
:1001800093020008930200089302000893020008FB
:100190009302000800000000950A0008A50A000864
:1001A000B50A0008C50A0008930200089302000877
:1001B00093020008930200089302000893020008CB
:1001C00093020008930200089302000893020008BB
:1001D000930200089302000800F002F800F03CF8D7
:1001E0000AA090E8000C82448344AAF10107DA4592
:1001F00001D100F031F8AFF2090EBAE80F0013F0A8
:10020000010F18BFFB1A43F001031847E453000025
:1002100004540000103A24BF78C878C1FAD85207B5
:1002200024BF30C830C144BF04680C607047000070
:100230000023002400250026103A28BF78C1FBD8EF
:10024000520728BF30C148BF0B6070471FB505F08B
:1002500098F91FBD10B510BD00F0CFF81146FFF79B
:10026000F5FF05F05BF900F0EDF803B4FFF7F2FFDE
:1002700003BC00F0F5F80000094880470948004732
:10028000FEE7FEE7FEE7FEE7FEE7FEE7FEE7FEE746
:10029000FEE7FEE704480549054A064B70470000A3
:1002A000B14D0008D901000828050020280B0020C6
:1002B000280700202807002053EA020C00F069807C
:1002C0002DE9F04B4FF00006002B1FBFB3FA83F56A
:1002D00003FA05F424FA05F65E4012BF1643B2FA9B
:1002E00082F502FA05F4C5F120051EBF22FA05FCCD
:1002F00044EA0C04203556EA044C4FEA144418BF73
:10030000641C4FF000084FF00009904271EB030CA1
:1003100039D3002919BFB1FA81F701FA07F6B0FA0B
:1003200080F700FA07F6C7F120071EBF20FA07FC86
:1003300046EA0C062037B6FBF4FCA7EB0507103F96
:1003400007F01F0BCBF120060CFA0BFB2CFA06F67C
:1003500044BFB3460026202FA4BF5E464FF0000BDB
:100360005BEA060C08BF4FF0010B19EB0B09ABFB66
:10037000027C48EB0608C01B06FB02CC0BFB03CC3F
:1003800071EB0C01C1E70B46024641464846BDE809
:10039000F08B13B54FF000004FF00001AFF3008079
:1003A000BDE81C4070474FF0000200B5134694466C
:1003B0009646203922BFA0E80C50A0E80C50B1F1BD
:1003C0002001BFF4F7AF090728BFA0E80C5048BFD1
:1003D0000CC05DF804EB890028BF40F8042B08BF6F
:1003E000704748BF20F8022B11F0804F18BF00F86B
:1003F000012B7047704770477047754600F02CF826
:10040000AE4605006946534620F00700854618B001
:1004100020B5FFF73FFFBDE820404FF000064FF04A
:1004200000074FF000084FF0000B21F00701AC4629
:10043000ACE8C009ACE8C009ACE8C009ACE8C00948
:100440008D46704710B50446AFF300802046BDE8E6
:100450001040FFF70ABF000000487047C4040020A6
:1004600001491820ABBEFEE72600020070470000DD
:1004700010B506220249034801F0FAFB10BD000046
:10048000AC0000201801002010B5042202490348E6
:1004900001F0EEFB10BD00001800002084010020D8
:1004A00010B52DED028B1749088800F0DFF99FED9C
:1004B000161ADFED160A40EE010AB0EE608A114905
:1004C000488800F0D3F99FED101ADFED100A40EED6
:1004D000010AF0EE608A0E4A0E490F48B0EE480A53
:1004E00000F066F90D4880ED000A0D4A0D490E48EE
:1004F000B0EE680A00F05CF90C4880ED000ABDEC33
:10050000028B10BD180000200000E6416666663FC1
:100510003800002034000020C80000202000002007
:100520003900002035000020DC00002024000020DD
:1005300010B52DED028B0446B0EE408AF0EE608AD5
:10054000204600F093F930EE480A20EE280ABDEC70
:10055000028B10BD70B50546AC6AE06D00F050002E
:1005600098BBE06D40F40070E0652068006800F022
:100570000800A8B1206803F0BAFD10B32068C06875
:1005800000F40050E8B9E06D20F48070E065E06DA3
:1005900000F48050A8B9E06D40F00100E06510E083
:1005A0002068C06800F0020058B9E06D20F4807047
:1005B000E065E06D00F4805018B9E06D40F0010096
:1005C000E065204601F0C0F80CE0FFE7E06D00F0C8
:1005D000100018B1204601F0B9F803E0606D416BDE
:1005E0002846884770BD70B50546AC6AE06D40F09E
:1005F0004000E065206E40F004002066204601F0D7
:10060000A5F870BD70B50446A56A284601F09DF8AE
:1006100070BD000038B5044600200090206803F04B
:100620004DFD002858D1206880682C49084048B109
:10063000E06D40F01000E065206E40F001002066A3
:10064000012038BD206803F019FD2168B1F1A04FE9
:1006500003D0234A2168914201D1224900E0224976
:10066000084603F013FD00F4000080B11F48006845
:100670001F49B0FBF1F0401C00EB400080000090EF
:1006800002E00098401E009000980028F9D102F086
:1006900049FA05461AE0206803F010FD10B92068F9
:1006A00003F0ECFC02F03EFA401B02280ED9206851
:1006B000006800F0010048B9E06D40F01000E0650E
:1006C000206E40F0010020660120BAE72068006833
:1006D00000F001000028DED00020B2E73F000080DB
:1006E000000100500003005000070050A800002047
:1006F000400D0300F0B585B0B0EE401A04460B463D
:100700001D7804EB850585ED001A1D786D1C052606
:10071000B5FBF6F706FB17551D701578052D02D2AF
:1007200015786D1C157000200AE004EB800595ED2E
:10073000000A6D4605EB800585ED000A451CE8B210
:1007400015788542F1DC012026E06D4605EB800539
:10075000D5ED000A01460CE04D1E6E4606EB850500
:1007600095ED000A6D4605EB810585ED000A4D1EED
:10077000E9B251B14D1E6E4606EB850595ED000AB6
:10078000B4EEE00AF1EE10FAE6DC6D4605EB810509
:10079000C5ED000A451CE8B215788542D5DC157810
:1007A0006D086E4606EB850595ED000A05B0F0BDB7
:1007B000F0B585B0B0EE401A04460B461D7804EB48
:1007C000850585ED001A1D786D1C0526B5FBF6F72D
:1007D00006FB17551D701578052D02D215786D1C76
:1007E000157000200AE004EB800595ED000A6D46C7
:1007F00005EB800585ED000A451CE8B215788542B9
:10080000F1DC012026E06D4605EB8005D5ED000A00
:1008100001460CE04D1E6E4606EB850595ED000A7F
:100820006D4605EB810585ED000A4D1EE9B251B11B
:100830004D1E6E4606EB850595ED000AB4EEE00A06
:10084000F1EE10FAE6DC6D4605EB8105C5ED000A18
:10085000451CE8B215788542D5DC15786D086E46E2
:1008600006EB850595ED000A05B0F0BD00EE100A17
:10087000B8EE400ADFED040A60EE200A9FED031A8D
:1008800080EE810A704700003333534000F07F450B
:1008900010B52DED028B31490888F3EE090A9FED62
:1008A000300AFFF745FE2F4880ED000A2B494888A3
:1008B000F3EE090A9FED2A0AFFF73AFE294880ED78
:1008C000010A26498888F3EE090A9FED250AFFF7F9
:1008D0002FFE244880ED020A2049C888F3EE090A59
:1008E0009FED1F0AFFF724FE1E4880ED030A1B49F7
:1008F0000889F3EE090A9FED1A0AFFF719FEB0EE18
:10090000408A16494889F3EE090A9FED150AFFF758
:100910000FFEF0EE408A144A14491548B0EE480A1A
:10092000FFF7E8FE134880ED000A134A1349144804
:10093000B0EE680AFFF7DEFE124880ED000A1249A9
:10094000C888F3EE090A9FED060AFFF7F1FD0F488C
:1009500080ED000ABDEC028B10BD0000AC00002051
:10096000CDCCCC3FB80000203A000020360000205B
:10097000F0000020280000203B000020370000206D
:10098000040100202C00002018000020300000206E
:1009900000BFFEE710B5024801F016FA10BD0000D6
:1009A000F001002010B5024801F00EFA10BD000061
:1009B0005002002030B5114D0468AC4206D21049F7
:1009C0000478083C1425B4FBF5F208E00C4920310A
:1009D0000478083C1425B4FBF5F404F108020B4636
:1009E000446CA40803EB84048464054C8034C46420
:1009F00002F01F050124AC40046530BD080402402C
:100A000000080240027902F07F014A1E064B03EB08
:100A100082024265044A403282654A1E02F01F0388
:100A200001229A40C26570470009024030B5D0E902
:100A300013546C60446D14B1D0E916546C6090F896
:100A4000444004F01F050124AC40056C6C60046850
:100A500063608468102C04D10468A2600468E160BB
:100A600003E00468A1600468E26030BD704772B6BC
:100A700000BFFEE710B5024801F030FC10BD0000D9
:100A8000B002002010B5024801F028FC10BD0000A3
:100A9000B002002010B5024801F020FC10BD00009B
:100AA0001403002010B5024801F018FC10BD00002E
:100AB0001403002010B5024801F010FC10BD000026
:100AC0007803002010B5024801F008FC10BD0000BA
:100AD0007803002010B51248007800B110BD11480D
:100AE00000F096F8104800F093F80E4801F000FF6F
:100AF00008B1FFF7BCFF0C4801F0FAFE08B1FFF7A0
:100B0000B6FF0A4801F0F4FE08B1FFF7B0FF01207C
:100B10000349087002F006F80549086000BFDDE7E8
:100B200040000020B00200201403002078030020C1
:100B30004400002010B51148007800B910BD012113
:100B40000F4800F0FFF902210E4800F0FBF901F018
:100B5000E9FF0D490968401AB0F5FA6F00D2EDE7D8
:100B600001F0E0FF084908600121054800F030FA73
:100B70000221044800F02CFA00BFDFE7400000200B
:100B8000B0020020140300204400002010B51D4ACC
:100B90001D4C0368A34201D102F554721B4C03683B
:100BA000A34201D102F5D46202640368D3F8803015
:100BB00023F4F814838E44EA03430468C4F88030B5
:100BC00002F1700343640368D3F8803023F070644B
:100BD00090F8383044EA03630468C4F8803002F1C6
:100BE000B0038364D833C364D833036518334365D3
:100BF000114602E000230B60091D02F5547399426F
:100C0000F8D310BD00A4004000680040006C004014
:100C100030B587B005464FF0804001900220039028
:100C20000120049000240EE00294094850F82400AA
:100C300005900848069001A9284601F05AFA08B123
:100C4000FFF715FF641C052CEED307B030BD000084
:100C50008C55000800FFFF1F2DE9F04105461446A2
:100C60001E46D1F804C0BCF1000F0AD1D1F810C063
:100C7000D1F808804CEA080CB1F800804CEA8843AF
:100C80000BE0D1F810C04CF0804CD1F808804CEA51
:100C9000080CD1F800804CEA080391F82080D1F8C4
:100CA0001CC04CEA086CD1F818804CEA080CD1F84A
:100CB00014804CEA080CB1F80C804CEA084706EBAB
:100CC000C608D5F854C00CEBC8021360121D17609B
:100CD000121D002019E000F1030C14F80CC04FEABB
:100CE0000C6800F1020C14F80CC048EA0C4800F142
:100CF000010C14F80CC048EA0C2C14F800804CEAE3
:100D0000080CC2F800C0121D001DDFF81480D1F8D5
:100D10000CC018F80CC08445DDD8BDE8F081000097
:100D2000A055000870B58AB005460C4616466068A6
:100D3000B0F1804F03D1206800F03EF808B90AB046
:100D400070BD154801F0C2FA18B9144800F02CF82B
:100D5000F5E7134920680840E9B2084301904FF0D5
:100D600080400290A0680390E06804900020059005
:100D70000690079008900995324601A9064801F0AF
:100D800083F918B9074800F00FF802E0034800F0B3
:100D90000BF800BFD3E70000780300204C000020D0
:100DA00000FFFF1F480000200168491C11B10168C5
:100DB000491C0160704700000246094802EA000130
:100DC0000848814208D00848814205D0074881423E
:100DD00002D00748814201D1012070470020FCE782
:100DE00000FFFF1F008002040080030400800E0447
:100DF000008007042DE9F04106460C461546287888
:100E000008B1012000E000200746687808B1012001
:100E100000E000208046012E0ED10F4807700F48D9
:100E200080F800800E4804600E48FFF7BDFF01F017
:100E300079FE0D4908600DE00C4807700C4880F8F9
:100E400000800C4804600C48FFF7AEFF01F06AFE1A
:100E50000A490860BDE8F0816400002065000020B8
:100E6000680000206C000020700000208800002036
:100E7000890000208C0000209000002094000020B9
:100E800070B52DED048B06460D461446607821782A
:100E900040EA012009EE100AE078A17840EA01203A
:100EA00008EE100AB8EE490ADFED1A0A20EE200A11
:100EB000F0EE408AB8EE480ADFED170A30EE600A1D
:100EC000DFED140A20EE200AF0EE409A012E0FD139
:100ED0001248C0ED008A1248C0ED009A1148056022
:100EE0001148FFF761FF01F01DFE104908600EE098
:100EF0000F48C0ED008A0F48C0ED009A0E4805600B
:100F00000E48FFF751FF01F00DFE0D490860BDECE2
:100F1000048B70BDCDCCCC3D0060EA465000002073
:100F200054000020580000205C00002060000020D9
:100F300074000020780000207C0000208000002049
:100F40008400002030B58DB005460C4632E001AB80
:100F500003AA4021284601F00FF908B10DB030BDB9
:100F600001AA03A92046FFF7DDFE0498B0F1804FE7
:100F70000ED11449039808401349884208D10698B5
:100F8000042805D301AA20460399FFF779FF11E051
:100F90000498B0F1804F0DD10A49039808400B49DD
:100FA000884207D10698022804D301AA2046039953
:100FB000FFF720FF4021284601F0CFF80028C6D1D6
:100FC00000BFCBE700FFFF1F008002040080060483
:100FD00030B58BB005460C460020009001902846A5
:100FE00001F074F910B902200BB030BD0A4802902C
:100FF0004FF08040039000200490082005900020CE
:1010000006900790089009900A946A4602A928461B
:1010100001F03AF8E8E7000080FF00042DE9F04312
:101020009BB004460E464FF00008306800B100BF88
:1010300000BF94F85800012803D102201BB0BDE87E
:10104000F083012084F8580000BF0020179018900A
:101050002068B0F1A04F02D15848009008E05849EC
:101060002068884202D15748009001E0002000909B
:10107000009850B9E06D40F02000E06500BF00200E
:1010800084F8580000BF0120D8E7009803F02AF840
:101090000746206803F026F800287DD1002F7FD175
:1010A0002068B0F1A04F03D044492068884201D1A4
:1010B000454800E0454805463068D8B394F8380004
:1010C000716841EA4030A96821F460410843A86092
:1010D0002068B0F1A04F03D038492068884201D180
:1010E000394800E03948384988420AD14FF0A040D9
:1010F00002F0E9FF8146314802F0E5FF49EA0000CD
:101100000DE02F4802F0DFFF81462E4802F0DBFFA2
:1011100049EA00092E4802F0D6FF49EA0000E0BB88
:10112000B16830680843A96840F61F7291430843CC
:10113000A8603BE0FFE7A86820F46040A860206852
:10114000B0F1A04F03D01D492068884201D11E484C
:1011500000E01E481C4988420AD14FF0A04002F02E
:10116000B2FF8146154802F0AEFF49EA00000DE0EB
:10117000134802F0A8FF8146124802F0A4FF49EA92
:101180000009134802F09FFF49EA000028B9A86847
:1011900040F61F71884301E002E007E0A86005E027
:1011A000E06D40F02000E0654FF0010800BF002036
:1011B00084F8580000BF404640E70000000100509E
:1011C00000040050000500500003005000070050CC
:1011D000000600502DE9F84F05460C464FF0000A76
:1011E00000200090FE49E068884200D000E000BF87
:1011F00000BF95F85800012802D10220BDE8F88F01
:10120000012085F8580000BF286802F066FF00281A
:101210007DD12968D4E9002001F1300CC0F3012B05
:101220000CEB8B03D3F800C000F01F0E4FF01F0B28
:101230000BFA0EFB2CEA0B0C00F01F0BC2F3846EB2
:101240000EFA0BFE4CEA0E0CC3F800C000BF286873
:1012500002F043FF8146286802F02BFF8046B9F177
:10126000000F64D1B8F1000FFBD1A068B0F1004FBE
:101270000AD121680022286802F04AFF4FF000419D
:10128000286802F06AFF08E0A2682168286802F076
:101290003FFF0021286802F060FF60692968C96883
:1012A000C1F3C101490000FA01F7206904283FD0C9
:1012B00028682268216900F1600C0CEB8103D3F8E7
:1012C00000C0DFF820B30CEA0B0C02F0F84B4BF037
:1012D000004B4BEA070B4CEA0B0CC3F800C000BFF5
:1012E0002868A269216900F1600C0CEB8103D3F836
:1012F00000C02CF0807C4CEA020CC3F800C000BF98
:101300002868227F2169012A02D1520601E0F6E114
:101310000022134600F1600C0CEB8102D2F800C0F1
:101320002CF0007C4CEA030CC2F800C000BFA7E020
:101330000021286802F0B4FEC0F3120030B9002189
:10134000286802F0ADFEC0F3846007E00021286841
:1013500002F0A6FE90FAA0F0B0FA80F02168C1F386
:10136000120119B92168C1F3846104E0216891FA7E
:10137000A1F1B1FA81F1884204D100221146286816
:1013800002F0E0FE0121286802F08AFEC0F312009C
:1013900030B90121286802F083FEC0F3846007E0C1
:1013A0000121286802F07CFE90FAA0F0B0FA80F0EB
:1013B0002168C1F3120119B92168C1F3846104E005
:1013C000216891FAA1F1B1FA81F1884204D1002299
:1013D0000121286802F0B6FE0221286802F060FEB2
:1013E000C0F3120030B90221286802F059FEC0F3A0
:1013F000846007E00221286802F052FE90FAA0F013
:10140000B0FA80F02168C1F3120119B92168C1F363
:10141000846104E0216891FAA1F1B1FA81F1884276
:1014200004D100220221286802F08CFE03212868E2
:1014300002F036FEC0F3120030B90321286802F032
:101440002FFEC0F3846007E00321286802F028FE25
:1014500090FAA0F0B0FA80F02168C1F3120119B936
:101460002168C1F3846104E0216891FAA1F1B1FA25
:1014700081F1884204D100220321286802F062FE33
:10148000286802F01BFE002870D12868E2682168F5
:10149000D0F8B0C0C1F312032CEA030C02F0180B11
:1014A000514B23FA0BF30B404CEA030CC0F8B0C0CD
:1014B00000BF4B49E068884258D12368C3F3120348
:1014C0001BB92368C3F3846304E0236893FAA3F38E
:1014D000B3FA83F35B1C03F01F03092B3ED8236888
:1014E000C3F312031BB92368C3F3846304E02368C6
:1014F00093FAA3F3B3FA83F35B1C03F01F034FF0DB
:10150000010C0CFA03FC2368C3F312031BB9236814
:10151000C3F3846304E0236893FAA3F3B3FA83F379
:101520005B1C03F01F034CEA836C2368C3F31203B4
:101530001BB92368C3F3846304E0236893FAA3F31D
:10154000B3FA83F35B1C03F01F0303EB43034FF079
:10155000000B4BEA03534CEA03033FE02368C3F359
:10156000120323B92368C3F3846305E042E02368D0
:1015700093FAA3F3B3FA83F35B1C03F01F034FF05A
:10158000010C0CFA03FC2368C3F312031BB9236894
:10159000C3F3846304E0236893FAA3F3B3FA83F3F9
:1015A0005B1C03F01F034CEA836C2368C3F3120334
:1015B0001BB92368C3F3846304E0236893FAA3F39D
:1015C000B3FA83F35B1C03F01F030A3B03EB4303F3
:1015D0004FF0007B4BEA03534CEA0303194605E046
:1015E00000007F4000F0FF03FFFF0700A2682868AB
:1015F00002F08EFD484920680840002842D0296842
:10160000B1F1A04F03D0454A2968914201D1444924
:1016100000E04449084602F039FD06464249206888
:10162000884203D04149206888422CD106F400004A
:1016300048BB2868B0F1A04F03D03D4928688842D4
:1016400063D12A68B2F1A04F03D0344B2A689A4282
:1016500001D1334A00E0334A104646F4000102F05B
:101660006BFD344800683449B0FBF1F0401C00EBDE
:1016700040008000009002E00098401E009000981A
:101680000028F9D141E02D49206888421BD106F09D
:101690008070C0B921492868884236D02849286816
:1016A000884232D02A68B2F1A04F03D01B4B2A687F
:1016B0009A4201D11A4A00E01A4A104646F0807157
:1016C00002F03AFD21E01F49206888421DD106F44E
:1016D0008000D0B911492868884216D02A68B2F132
:1016E000A04F03D00B462A689A4201D10C4A00E071
:1016F0000C4A104646F4800102F01EFD05E0E86D3C
:1017000040F02000E8654FF0010A00BF002085F896
:10171000580000BF504671E50000088000010050ED
:101720000003005000070050000021C31000C090CB
:1017300000060050A8000020400D0300000052C722
:1017400000050050000084CB7047704770470000D0
:101750002DE9F84304464FF000080020009014B92A
:101760000120BDE8F883606920B194F824000128C5
:1017700000D100BFE06D30B9204600F045F90020EF
:10178000206684F8580020688168C1F3407131B147
:1017900020688168914A1140816000BF00BF2068C5
:1017A00002F096FCB0B9206881688D4A114041F082
:1017B0008051816000BF8B4800688B49B0FBF1F01D
:1017C000401C4000009002E00098401E00900098ED
:1017D0000028F9D1206802F07BFC48B9E06D40F0A8
:1017E0001000E065206E40F0010020664FF0010817
:1017F000206802F072FC0646E06D00F01000002840
:101800007ED1002EFCD1E06D20F4807040F002000B
:10181000E065206802F052FC88BB2068B0F1A04F60
:1018200003D072492068884201D1714800E07148B4
:101830006F4988420AD14FF0A04002F03FFC814638
:101840006A4802F03BFC49EA00000DE06A4802F0F9
:1018500035FC8146694802F031FC49EA00096848D4
:1018600002F02CFC49EA000048B92268B2F1A04F0E
:1018700003D05E4B22689A4202D15D4A01E009E042
:101880005C4A10466168826822F47C120A438260D6
:1018900000BF00BF607FE16B41EA4030E168084370
:1018A000A168084394F8241040EA014594F8240004
:1018B000012803D1208D401E45EA4045E06A28B149
:1018C000A08D00F47870216B084305432068C06840
:1018D0004C49084028432168C8602068006920F00E
:1018E0004060616B084321680861206802F0E1FBF9
:1018F0000746EEBBE7BB207F002141EA803100E0D4
:1019000064E094F8380041EA40052068C06844F279
:101910000201884328432168C860206980B120689B
:10192000006940F48030216808612068D0F8C00068
:101930006FF30D00216908432168C1F8C0000DE074
:101940002068006920F48030216808612068D0F8A0
:10195000C0006FF30D002168C1F8C00094F840008A
:10196000012813D1606C40F00101A06C084300E035
:1019700012E0E16C0843216D08432168096940F2D7
:10198000FC72914308432168086105E02068006902
:1019900020F00100216808616069012809D12068F0
:1019A000006B20F00F00216A491E0843216808637C
:1019B00005E02068006B20F00F0021680863E06DEF
:1019C00020F0020040F00100E06505E0E06D40F02D
:1019D0001000E0654FF001084046C2E6C0FFFF5F1F
:1019E000C0FFFF7FA8000020400D03000001005051
:1019F0000003005000070050000400500005005094
:101A0000000600500740F0FF10B59CB004461421BA
:101A100017A8FEF7C8FC542102A8FEF7C4FC2068F2
:101A2000B0F1A04F7DD14FF400400290800313909D
:101A300002A801F08FFB08B1FFF719F8844800688D
:101A4000401C834908600846006801280DD100BF8A
:101A50008048C06C40F400507E49C8640846C06CA1
:101A600000F40050019000BF00BF00BF7948C06C77
:101A700040F004007749C8640846C06C00F00400D8
:101A8000019000BF00BF00BF0846C06C40F00100DD
:101A9000C8640846C06C00F00100019000BF00BFA0
:101AA00000BF0846C06C40F00200C8640846C06C25
:101AB00000F00200019000BF00BF0F20179003202C
:101AC00018900020199017A9634800F02FFF0420F8
:101AD0001790032018900020199017A94FF09040FC
:101AE00000F024FF4FF4A04017900320189000202E
:101AF000199017A9594800F019FF59485949086029
:101B000005204860002157488160C1608021016143
:101B100049004161890081612021C1610021016288
:101B200000E009E000F0D0F908B1FEF7A0FF00BF27
:101B30004C486065846289E04B4920688842FAD14C
:101B4000C00102908003139002A801F003FB08B1CA
:101B5000FEF78DFF3E480068401C3D49086008467E
:101B6000006801280DD100BF3A48C06C40F4005015
:101B70003849C8640846C06C00F40050019000BFAA
:101B800000BF00BF3348C06C40F001003149C86459
:101B90000846C06C00F00100019000BF00BF00BF0C
:101BA0000846C06C40F00400C8640846C06C00F0F1
:101BB0000400019000BF00BF00BF0846C06C40F0A9
:101BC0000200C8640846C06C00F00200019000BF2B
:101BD00000BFC0201790032018900020199017A96B
:101BE0004FF0904000F0A2FE2020179003201890A4
:101BF0000020199017A9184800F098FE04201790AB
:101C0000032018900020199017A9144800F08EFEA8
:101C100013481430154908602420486000211348F7
:101C20008160C16080210161490041618900816159
:101C30002021C1610021016200F046F908B1FEF7E0
:101C400016FF00BF09486065846200BF1CB010BD6C
:101C50003C0000200010024000080048000400483A
:101C600008000240F0010020000100505002002056
:101C70002DE9F04104460F4690462168B1F1A04F8E
:101C800003D0484A2168914201D1474900E04749C1
:101C9000084602F000FA0646206802F01EFA002804
:101CA0007CD100BF94F85800012802D10220BDE881
:101CB000F081012084F8580000BF3D492068884227
:101CC00001D1012000E0002020B91EB1052E01D075
:101CD000092E5DD12046FEF79DFC0546002D52D110
:101CE000E06D40F60161884340F48070E0652D4965
:101CF0002068884202D14FF0A04006E02D492068BC
:101D0000884201D12C4800E020682168884200D038
:101D10001EB9E06D20F48010E065E06D00F48050A5
:101D200020B1206E20F00600206601E00020206631
:101D30002248616DC8622248616D08632148616D67
:101D400048631C202168086000BF002084F8580008
:101D500000BF2068406840F010002168486020689B
:101D6000C06840F001002168C860226802F14001AB
:101D700043463A46606D00F011F90546206802F0CE
:101D8000BFF90CE00AE000BF002084F8580006E02C
:101D9000012500BF002084F8580000E002252846F5
:101DA00085E70000000100500003005000070050CC
:101DB00000060050000500500004005055050008C2
:101DC00005060008E705000870B50446206C0568A4
:101DD0002068066894F8440000F01F010420884041
:101DE0002840E0B106F00400C8B12068006800F0A7
:101DF000200028B92068006820F0040021680860ED
:101E000094F8440000F01F0104208840216C4860D1
:101E1000206B002856D02046216B884752E094F86A
:101E2000440000F01F0102208840284018B306F04B
:101E3000020000B32068006800F0200040B920686C
:101E4000006820F00A0021680860012084F825005D
:101E500094F8440000F01F0102208840216C486083
:101E600000BF002084F8240000BFE06A50B3204681
:101E7000E16A884726E094F8440000F01F0108203A
:101E800088402840F0B106F00800D8B1206800680A
:101E900020F00E002168086094F8440000F01F0153
:101EA00001208840216C48600120E06384F825000F
:101EB00000BF002084F8240000BF606B10B12046F2
:101EC000616B884770BD000070B504460CB90120F5
:101ED00070BD3049206888420BD22F492068401AD3
:101EE0001421B0FBF1F0800060642B4808382064B6
:101EF0000AE028492068401A1421B0FBF1F0800064
:101F00006064244808382064022084F82500206892
:101F1000056847F6F0708543D4E90201084321695A
:101F2000084361690843A1690843E1690843216ADC
:101F300008430543206805602046FEF73BFDA06886
:101F4000B0F5804F01D100206060207900F07F0063
:101F5000A16C0860D4E913104860606860B16068E3
:101F6000042809D82046FEF74DFD0020616D086069
:101F7000D4E91610486003E000206065A065E065C4
:101F80000020E063012084F82500002084F824006C
:101F900000BF9DE708040240080002402DE9F0411F
:101FA00004460D4616461F464FF0000800BF94F841
:101FB0002400012802D10220BDE8F081012084F82C
:101FC000240000BF94F8250001283FD1022084F8A6
:101FD00025000020E0632068006820F001002168EF
:101FE00008603B46324629462046FEF71FFD206B1F
:101FF00030B12068006840F00E00216808600BE0F6
:102000002068006820F004002168086020680068EB
:1020100040F00A0021680860A06C006800F480307D
:1020200028B1A06C006840F48070A16C0860606DFD
:1020300028B1606D006840F48070616D08602068B0
:10204000006840F001002168086006E000BF002041
:1020500084F8240000BF4FF002084046ACE70000BF
:1020600070B5044600F05EFD06462546681C10B1BA
:1020700004480068054400BF00F054FD801BA842DE
:10208000FAD370BDA40000202DE9F04104460E46AD
:102090001746706800B900E000BF94F85C000228A1
:1020A00021D12068D0F8C40000F4001030B1206EB7
:1020B00040F4007020660120BDE8F0812068D0F86F
:1020C000C400C0F301452B463A4631462046FEF790
:1020D000C3FD0120A8402168C1F8CC000120A84020
:1020E000A0650020E8E7206E40F00800206601208F
:1020F000E2E7F0B5024692F85C60012E01D0022EB4
:1021000023D1086880B9087A80070F7B40EAC7604E
:102110000F8A40EA07404F6940EA0704176C486895
:1021200007EB80031C600EE00F7B086940EA4774F0
:102130000F7A486940EA8775576C486807EBC00317
:102140001C601B1D1D600020F0BD106E40F00200E1
:1021500010660120F8E7704770470246402905D114
:102160001368D3F8903003F00F0004E01368D3F83D
:10217000983003F00F0070472DE9F04304460E46F7
:102180009C4694F85C80B8F1020F7DD1402E26D198
:102190002068D0F8900000F00F0030B9206E40F4B5
:1021A000807020660120BDE8F0832068D0F89000A0
:1021B000C0F301232068D0F89000C0F3006040B164
:1021C0002068D0F88000C0F3402010B1581C00F007
:1021D000030303EBC309A06C00EBC90124E02068F2
:1021E000D0F8980000F00F0028B9206E40F48070FD
:1021F00020660120D7E72068D0F89800C0F30123BB
:102200002068D0F89800C0F3006040B12068D0F892
:102210008000C0F3002010B1581C00F0030303EB52
:10222000C309E06C00EBC901086800F08040506011
:10223000506820B90868C0F38A40106003E008685D
:1022400020F060401060086800F00050906008685E
:1022500000F000401061091D088880B2D061086854
:10226000C0F30340D060086800F480105061086833
:1022700000F4001090610868C0F3066010620868FE
:10228000C00F5062091D00E018E00F46002503E072
:10229000785D0CF805006D1CDFF82C90D06819F8FB
:1022A0000000A842F4D8402E03D12068C0F8943032
:1022B00002E02068C0F89C30002074E7206E40F0F7
:1022C0000800206601206EE7A055000801460A6854
:1022D000D2F8C42002F00700704770472DE9FC5F78
:1022E00004462068006D00F4E0572068406D074008
:1022F0002068006D00F007082068406D00EA0808BB
:102300002068006D00F038092068406D00EA090976
:102310002068006D00F4710A2068406D00EA0A0A26
:102320002068006D00F4602B2068406D00EA0B0B04
:102330002068456D2068066DC6F3801040B1C5F376
:10234000801028B14020216808652046FFF7C5FFAE
:10235000C6F30020A0B1C5F3002088B12068D0F8F2
:10236000D80000902068D0F8E00000990840009064
:102370004FF48070216808652046009900F0D1FA7A
:102380002FB1206807653946204600F0CCFAB8F135
:10239000000F06D02068C0F850804146204600F06B
:1023A000A5FAB9F1000F06D02068C0F85090494650
:1023B000204600F09CFAC6F3402048B1C5F3402007
:1023C00030B14FF4007021680865204600F0ACFA87
:1023D000C6F3C01098B1C5F3C01080B12068D0F822
:1023E000D40001902068D0F8DC00019908400190E9
:1023F0008020216808652046019900F093FAC6F311
:10240000403048B1C5F3403030B14FF4005021683E
:102410000865204600F084FAC6F3C03048B1C5F321
:10242000C03030B14FF4004021680865204600F00C
:1024300076FAC6F3803050B1C5F3803038B14FF42E
:10244000804021680865206E40F080002066BBF166
:10245000000F06D02068C0F850B059462046FFF75C
:102460007BFEBAF1000F06D02068C0F850A0206EA5
:1024700040EA0A002066206E10B12046FFF76BFE8E
:10248000BDE8FC9F70B504460CB9012070BD8149C0
:102490002068884200D100BFA068B0F5407F00D11D
:1024A00000BF94F85C0028B9002084F85D00204645
:1024B00000F0F4F82068806920F01000216888613D
:1024C00000F030FB05460DE000F02CFB401B0A2815
:1024D00008D9206E40F001002066032084F85C00DB
:1024E0000120D3E72068806900F008000828EBD0BD
:1024F0002068806940F001002168886100F012FBCB
:1025000005460DE000F00EFB401B0A2808D9206E9E
:1025100040F001002066032084F85C000120B5E74C
:102520002068806900F001000028EBD020688069F5
:1025300040F002002168886156492068884202D133
:10254000554960680860207C012806D120688069B0
:1025500020F040002168886105E02068806940F033
:10256000400021688861607C012806D1206880696C
:1025700040F480402168886105E02068806920F48B
:10258000804021688861A07C012806D1206880698C
:1025900020F480502168886105E02068806940F45B
:1025A0008050216888612068806920F44070A168AB
:1025B0000843216888612068806920F0A4002168B0
:1025C00088612068006920F0100021680861E068D7
:1025D000012806D12068806940F0040021688861E4
:1025E00020E0E068F0B1E068022815D0206880693A
:1025F00040F08000216888612068006940F0100088
:1026000021680861E06803280CD12068806940F0E7
:1026100020002168886105E02068806940F0200082
:1026200021688861207E401E4106E069401E41EA23
:102630000020216A491E0843A18A491E40EA014040
:102640002168C861A068B0F5407F0FD1A06A401E24
:10265000E16A491E40EA0121206B401E41EA001157
:10266000A08C401E41EA00402168C8602068D0F874
:10267000C000E16B08432168C1F8C0002046FEF7A6
:1026800085FA0020A0652066012084F85C00002007
:10269000FCE60000006400400065004010B59CB0FE
:1026A0000446142117A8FDF77EFE542102A8FDF769
:1026B0007AFE8849206888424DD1801402904003F8
:1026C000109002A800F046FD08B1FEF7D0F982484C
:1026D0000068401C804908600846006801280DD148
:1026E00000BF7E48806D40F000707C4988650846D8
:1026F000806D00F00070019000BF00BF00BF774800
:10270000C06C40F001007549C8640846C06C00F018
:102710000100019000BF00BF4FF4C050179002208D
:102720001890002019901A9009201B9017A9C00634
:1027300000F0FCF800221146152000F0BDFB15202A
:1027400000F0A6FB00221146162000F0B5FB162073
:1027500000F09EFBBCE06249206888424DD18014A5
:1027600002904003109002A800F0F4FC08B1FEF7BC
:102770007EF959480068401C5749086008460068BF
:1027800001280DD100BF5548806D40F000705349BD
:1027900088650846806D00F00070019000BF00BFA2
:1027A00000BF4E48C06C40F002004C49C864084667
:1027B000C06C00F00200019000BF00BF42F2200098
:1027C000179002201890002019901A9009201B9051
:1027D00017A9444800F0AAF800221146562000F03C
:1027E0006BFB562000F054FB00221146572000F0EE
:1027F00063FB572000F04CFB6AE03B4920688842AD
:1028000066D1801402904003109002A800F0A2FC50
:1028100008B1FEF72CF930480068401C2E490860CA
:102820000846006801280DD100BF2C48806D40F09B
:1028300000702A4988650846806D00F0007001909C
:1028400000BF00BF00BF2548C06C40F00100234915
:10285000C8640846C06C00F00100019000BF00BFD2
:1028600000BF0846C06C40F00200C8640846C06C57
:1028700000F00200019000BF00BF881517900220F1
:102880001890002019901A900B201B9017A94FF058
:10289000904000F04BF81020179002201890002074
:1028A00019901A900B201B9017A90E4800F03EF8C3
:1028B00000221146582000F0FFFA582000F0E8FAF4
:1028C00000221146592000F0F7FA592000F0E0FAF2
:1028D0001CB010BD006400409800002000100240B1
:1028E0000068004000040048006C004070477047DA
:1028F000014691F85C0001280BD1022081F85C00B0
:102900000868806920F001000A689061002008666C
:102910007047086E40F0040008660120F8E7704731
:1029200070477047704770477047000078B503469E
:102930000022D2E0012696400D6805EA0604002C2C
:102940007BD00D7905F00305012D04D00D7905F03C
:102950000305022D13D1986856000325B540A843FE
:102960005600CD68B54028439860586801259540C9
:10297000A8430D79C5F300159540284358600D799B
:1029800005F00305032D07D10D7905F00305032D8F
:102990000CD18D68012D09D0D86856000325B540AB
:1029A000A84356008D68B5402843D8600D7905F0DE
:1029B0000305022D13D1D60803F1200555F8260092
:1029C0005507EE0E0F25B540A8435607F60E0D69C4
:1029D000B5402843D60803F1200545F826001868BD
:1029E00056000325B540A8430D7905F003055600B0
:1029F000B540284318604D6805F44035002D6BD074
:102A000000BF394D2D6E45F00105374E3566354610
:102A10002D6E05F00105009500BF00BF4FEAB635E9
:102A2000960855F8260095072E0F0F25B540A843A8
:102A3000B3F1904F02D100251AE04DE02B4DAB428F
:102A400001D1012514E02A4DAB4201D102250FE04E
:102A5000284DAB4201D103250AE0274DAB4201D1FD
:102A6000042505E0254DAB4201D1052500E00625F2
:102A70009607360FB5402843214D960845F82600A5
:102A8000204D2868A0434D6805F4801505B120430A
:102A90001C4D28602D1D2868A0434D6805F40015C5
:102AA00005B12043174D2D1D2860164D2D1F286898
:102AB000A0434D6805F4003505B12043114D2D1F8D
:102AC00028602D1F2868A0434D6805F4803505B1A6
:102AD00020430C4D083D2860521C0D68D540002D48
:102AE0007FF428AF78BD00000010024000040048C9
:102AF00000080048000C004800100048001400487E
:102B00000800014008040140024613690B400BB164
:102B1000012000E0002070470AB1816100E081627D
:102B20007047000001480068704700009C000020CA
:102B3000024692F8410020282DD100BF92F84000B3
:102B4000012801D102207047012082F8400000BF17
:102B5000242082F841001068006820F0010013680A
:102B600018601068006820F48050136818601068BE
:102B700000680843136818601068006840F001009E
:102B800013681860202082F8410000BF002082F8FE
:102B9000400000BFD7E70220D5E710B502460B463C
:102BA00092F8410020282AD100BF92F84000012865
:102BB00001D1022010BD012082F8400000BF242076
:102BC00082F841001068006820F00100146820605D
:102BD0001068016821F4706141EA03211068016006
:102BE0001068006840F0010014682060202082F81E
:102BF000410000BF002082F8400000BFDAE7022059
:102C0000D8E7000010B504460CB9012010BD94F8B7
:102C1000410028B9002084F84000204600F05EF80A
:102C2000242084F841002068006820F00100216819
:102C30000860606820F07060216808612068806822
:102C400020F4004021688860E068012805D1A06870
:102C500040F400402168886004E0A06840F404402B
:102C600021688860E068022806D12068406840F446
:102C700000602168486005E02068406820F400603A
:102C8000216848602068406813490843216848600B
:102C90002068C06820F400402168C860D4E90401BD
:102CA0000843A16940EA01202168C860D4E907010E
:102CB0000843216808602068006840F0010021682E
:102CC000086000206064202084F841000020206318
:102CD00084F8420000BF99E70080000210B59CB064
:102CE0000446142117A8FDF75EFB542102A8FDF746
:102CF0005AFB2A49206888424ED140200290002089
:102D0000099002A800F026FA08B1FDF7B0FE00BF56
:102D10002348C06C40F001002149C8640846C06CDB
:102D200000F00100019000BF00BF00BF0846C06C6A
:102D300040F00200C8640846C06C00F00200019038
:102D400000BF00BF4FF400401790122018900020E1
:102D500019901A9004201B9017A94FF09040FFF78C
:102D6000E5FD8020179012201890002019901A90ED
:102D700004201B9017A90B48FFF7D8FD00BF084897
:102D8000806D40F40010064988650846806D00F4A7
:102D90000010019000BF00BF1CB010BD00540040E7
:102DA0000010024000040048034800680349096815
:102DB00008440149086070479C000020A4000020DE
:102DC00010B50024032000F0B5F80F2000F008F83B
:102DD00008B1012401E000F02FF8204610BD0000EA
:102DE00070B50446002511480068D8B10F48006846
:102DF0004FF47A71B1FBF0F00D490968B1FBF0F6C0
:102E0000304601F035F858B9102C07D2002221467F
:102E1000501E00F051F80748046004E0012502E06C
:102E2000012500E00125284670BD0000A400002017
:102E3000A8000020A00000200EB500200190029004
:102E400000BF1248006E40F00100104908660846B5
:102E5000006E00F00100009000BF00BF00BF0846F8
:102E6000806D40F0805088650846806D00F080508D
:102E7000009000BF00BF00200190029001A800F068
:102E800003F900F05DF900F0F5F80EBD0010024006
:102E90000146084600280DDB00BF00BF00F01F03FD
:102EA00001229A4043099B0003F1E023C3F800216B
:102EB00000BF00BF00BF70472DE9F05F80460D46A0
:102EC000164602F00FFB074639462A46334601F004
:102ED0000700C0F1070ABAF1040F02D94FF0040A43
:102EE00001E0C0F1070AD14600F1040ABAF1070F68
:102EF00002D24FF0000A01E0A0F1030AD4464FF0DD
:102F0000010A0AFA09FAAAF1010A0AEA020A0AFA05
:102F10000CFA4FF0010B0BFA0CFBABF1010B0BEAB7
:102F2000030B4AEA0B042146404602F0E3FABDE8EF
:102F3000F09F000000BF00F00702064B19684FF633
:102F4000FF031940044B0B4343EA0221014B196074
:102F500000BF70470CED00E00000FA0502468ABB96
:102F60004148006800F4C060B0F5806F2BD13E4846
:102F70008030006820F480703B4BC3F88000184616
:102F8000006820F4C06040F40070186037480068A2
:102F900032235843364BB0FBF3F0411C00E0491E8E
:102FA0003148406900F48060B0F5806F01D100299C
:102FB000F5D12D48406900F48060B0F5806F51D1A3
:102FC0000320704708E028488030006820F48070B3
:102FD000254BC3F8800045E0B2F5007F3AD1224886
:102FE000006800F4C060B0F5806F2AD11E488030C0
:102FF000006840F480701C4BC3F8800018460068DD
:1030000020F4C06040F40070186018480068322353
:103010005843174BB0FBF3F0411C00E0491E124827
:10302000406900F48060B0F5806F01D10029F5D1CE
:103030000D48406900F48060B0F5806F12D1032024
:10304000BFE709488030006840F48070064BC3F841
:10305000800007E00448006820F4C06040F480600D
:10306000014B18600020ACE700700040A800002071
:1030700040420F000348806840F480400149886066
:10308000704700000070004001462B48406820F067
:103090000E000A681043284A50602848006820F44F
:1030A0008030264A1060101F006820F48030121F04
:1030B000106022480830006820F480301F4A08322F
:1030C0001060101F006820F48030121F10604868E4
:1030D00000F48030B0F5803F07D11848001F006829
:1030E00040F48030154A121F1060486800F4003028
:1030F000B0F5003F05D11148006840F480300F4A18
:103100001060087900F0010038B10C48001D00681B
:1031100040F48030094A121D1060087900F0020066
:10312000022807D105480830006840F48030034A7F
:103130000832106000207047007000400404014015
:103140000348406840F001000149486070470000B2
:10315000007000402DE9F84304460027B846206877
:1031600000F40020B0F5002F73D1B946FD48806D02
:1031700000F0805078B900BFFA48806D40F0805070
:10318000F84988650846806D00F08050009000BFC7
:1031900000BF4FF00109F448006840F48070F24924
:1031A0000860FFF7BFFC064606E0FFF7BBFC801B8C
:1031B000022801D9032705E0EB48006800F480707D
:1031C0000028F2D000BF002F46D1E64890300068BA
:1031D00000F44075CDB1206DA84216D0E148903082
:1031E000006820F44075DF48D0F8900040F480304B
:1031F000DC49C1F890000846D0F8900020F48030F7
:10320000C1F890000846C0F8905005F00100A0B148
:10321000FFF788FC064608E0FFF784FC801B41F2BC
:103220008831884201D9032706E0CE4890300068F3
:1032300000F002000028EFD000BF5FB9C94890300D
:10324000006820F44070216D0843C649C1F8900021
:1032500003E00CE0B84600E0B846B9F1010F05D133
:10326000C048806D20F08050BE49886500BF20783E
:1032700000F0010048B1BB488830006820F003002E
:1032800061680843B749C1F88800207800F002005F
:10329000022809D1B3488830006820F00C00A168EA
:1032A0000843B049C1F88800207800F004000428E1
:1032B00009D1AC488830006820F03000E16808434C
:1032C000A849C1F88800207800F00800082809D132
:1032D000A4488830006820F0C00021690843A14953
:1032E000C1F88800207800F01000102809D19D480E
:1032F0008830006820F44070616908439949C1F83A
:103300008800207800F02000202809D195488830D6
:10331000006820F44060A16908439249C1F8880020
:10332000207800F04000402809D18E48883000689D
:1033300020F44050E16908438A49C1F888002078A8
:1033400000F08000802809D186488830006820F489
:103350004040216A08438349C1F88800208800F46E
:103360008070B0F5807F09D17E488830006820F4F5
:103370004030616A08437B49C1F88800206800F446
:103380000030B0F5003F09D176489C30006820F04D
:103390000300A16A08437349C1F89C00208800F427
:1033A0000070B0F5007F09D16E488830006820F4C5
:1033B0004020E16A08436B49C1F88800208800F486
:1033C0008060B0F5806F13D166488830006820F4C3
:1033D0004010216B0843634988310860206BB0F5C9
:1033E000801F05D15F48C06840F480105D49C86007
:1033F000208800F40060B0F5006F13D15948883080
:10340000006820F44000616B084356498831086029
:10341000606BB0F5800F05D15248C06840F4801051
:103420005049C860208800F48050B0F5805F13D107
:103430004C488830006820F04070A16B084349492F
:1034400088310860A06BB0F1807F05D14548C06825
:1034500040F480104349C860208800F40050B0F563
:10346000005F13D13F488830006820F04060E16B76
:1034700008433C4988310860E06BB0F1006F05D12A
:103480003848C06840F480103649C860208800F48D
:103490008040B0F5804F13D132488830006820F06A
:1034A0004060216C08432F4988310860206CB0F1DE
:1034B000006F05D12B48C06840F480102949C860CE
:1034C000208800F40040B0F5004F13D12548883023
:1034D000006820F04050616C084322498831086040
:1034E000606CB0F1805F05D11E48C06840F4803048
:1034F0001C49C860206800F48030B0F5803F13D1CB
:1035000018488830006820F04040A16C08431549F5
:1035100088310860A06CB0F1804F05D11148C068B7
:1035200040F480300F49C860206800F48020B0F576
:10353000802F13D10B489C30006820F44010E16CC0
:10354000084308499C310860E06CB0F5001F05D1C4
:103550000448C06840F480100249C8604046BDE895
:10356000F883000000100240007000402DE9F04197
:1035700004460D464FF0000814B90120BDE8F08163
:103580007D48006800F00F00A8420ED27A4800681B
:1035900020F00F002843784908600846006800F0D2
:1035A0000F00A84201D00120E8E7207800F00100D8
:1035B000002864D06068032823D17048006800F0B8
:1035C000007008B90120D9E701F082FB06466C487B
:1035D000864237D96948806800F0F00030B1207821
:1035E00000F0020002282DD1A06858BB6348806813
:1035F00020F0F00040F08000604988604FF08008C3
:1036000020E06068022806D15C48006800F40030C1
:1036100040B90120B2E75948006800F4806008B959
:103620000120ABE700F0DEF806465548864209D98E
:103630005248806820F0F00040F080004F498860D8
:103640004FF080084D48806820F00300616808430F
:103650004A498860FFF766FA074608E0FFF762FA12
:10366000C01B41F28831884201D9032086E74348D4
:10367000806800F00C006168B0EB810FEED120781B
:1036800000F00200022820D1207800F00400042875
:1036900005D13A48806840F4E06038498860207875
:1036A00000F00800082807D13448806820F46050F2
:1036B00040F4E060314988603048806820F0F000D4
:1036C000A16808432D49886008E0B8F1800F05D152
:1036D0002A48806820F0F000284988602648006861
:1036E00000F00F00A84219D92348006820F00F000D
:1036F000284321490860FFF715FA074608E0FFF75D
:1037000011FAC01B41F28831884201D9032035E704
:103710001948006800F00F00A842F0D1207800F0AE
:103720000400042807D11548806820F4E060E168AF
:10373000084312498860207800F00800082808D162
:103740000E48806820F46050216940EAC1000B49AE
:10375000886000F047F809498968C1F30311094AF4
:10376000515C01F01F01C840074908600748006824
:10377000FFF736FB02E70000002002400010024085
:1037800000B4C404D8550008A8000020A000002000
:103790000148006870470000A800002000B5FFF74E
:1037A000F7FF05498968C1F30221044A515C01F021
:1037B0001F01C84000BD000000100240E85500088D
:1037C00000B5FFF7E5FF05498968C1F3C221044A46
:1037D000515C01F01F01C84000BD00000010024014
:1037E000E855000870B5224DAD6805F00C05042DB4
:1037F00001D120483AE01E4DAD6805F00C05082DBA
:1038000001D11D4832E01A4DAD6805F00C050C2DB4
:103810002BD1174DED6805F00304154DED68C5F388
:1038200003156A1C022C0CD0032C09D1124DB5FBD8
:10383000F2F50F4EF668C6F3062605FB06F10AE020
:1038400000BF0C4DB5FBF2F5094EF668C6F306262F
:1038500005FB06F100BF00BF054DED68C5F34165EE
:103860006D1C6B00B1FBF3F000E0002070BD0000A8
:10387000001002400024F40000366E012DE9F843E8
:10388000044614B90120BDE8F883207800F0010057
:10389000002865D0FC48806800F00C07FA48C06832
:1038A00000F003060C2F01D1032E01D0082F0AD1FE
:1038B000F548006800F40030002851D06068002806
:1038C0004ED10120DFE700BF6068B0F5803F06D130
:1038D000ED48006840F48030EB4908601AE0606809
:1038E000B0F5A02F0BD1E848006840F48020E649ED
:1038F00008600846006840F4803008600AE0E2484A
:10390000006820F48030E04908600846006820F430
:103910008020086000BF606888B1FFF703F90546A2
:1039200006E0FFF7FFF8401B0A2801D90320AAE7A9
:10393000D548006800F400300028F2D010E0FFF70E
:10394000F1F8054606E0FFF7EDF8401B0A2801D91B
:10395000032098E7CC48006800F400300028F2D13A
:10396000207800F00200022860D1C748806800F08B
:103970000C07C548C06800F003060C2F01D1022EC9
:1039800001D0042F18D1C048006800F4806018B13D
:10399000E06808B9012076E7BB48406820F0FE40A7
:1039A000217C40EA0160B8494860B8480068FFF7E8
:1039B00017FA18B3012066E7E06800B3B248006860
:1039C00040F48070B0490860FFF7ACF8054606E0A7
:1039D000FFF7A8F8401B022801D9032053E7AA48A3
:1039E000006800F480600028F2D0A748406820F00A
:1039F000FE40217C40EA0160A349486016E0A248ED
:103A0000006820F48070A0490860FFF78BF8054635
:103A100006E0FFF787F8401B022801D9032032E7B0
:103A20009948006800F480600028F2D1207800F006
:103A30000800082836D16069D0B1934894300068F6
:103A400040F001009049C1F89400FFF76BF805467B
:103A500006E0FFF767F8401B022801D9032012E7B0
:103A600089489430006800F002000028F1D019E085
:103A700085489430006820F001008349C1F8940023
:103A8000FFF750F8054606E0FFF74CF8401B022808
:103A900001D90320F7E67C489430006800F002006A
:103AA0000028F1D1207800F00400042872D14FF0F2
:103AB00000087548806D012121EA107078B100BFBF
:103AC0007148806D40F080506F4988650846806D70
:103AD00000F08050009000BF00BF4FF001086C481C
:103AE000006800F48070B0B96948006840F48070E4
:103AF00067490860FFF716F8054606E0FFF712F879
:103B0000401B022801D90320BDE66148006800F48B
:103B100080700028F2D000BFA068012808D15A4860
:103B20009030006840F001005749C1F8900021E052
:103B3000A06805280FD154489030006840F0040078
:103B40005149C1F890000846D0F8900040F00100BB
:103B5000C1F890000EE04C489030006820F0010061
:103B60004949C1F890000846D0F8900020F00400C0
:103B7000C1F8900000BFA068A8B1FEF7D3FF0546CA
:103B800009E0FEF7CFFF401B41F28831884202D99D
:103B9000032078E625E03C489030006800F0020001
:103BA0000028EED013E0FEF7BDFF054608E0FEF763
:103BB000B9FF401B41F28831884201D9032062E6F7
:103BC00031489030006800F002000028EFD1B8F1D1
:103BD000010F05D12C48806D20F080502A4988655E
:103BE00000BF207800F02000202836D1A069D0B195
:103BF00025489830006840F001002349C1F898003A
:103C0000FEF790FF054606E0FEF78CFF401B0228FA
:103C100001D9032037E61C489830006800F0020004
:103C20000028F1D019E018489830006820F0010011
:103C30001549C1F89800FEF775FF054606E0FEF746
:103C400071FF401B022801D903201CE60E48983062
:103C5000006800F002000028F1D1E069002860D07F
:103C60000948806800F00C000C287AD0E06902282E
:103C700058D10548006820F0807003490860FEF7BD
:103C800051FF05460DE0000000100240A00000209A
:103C900000700040FEF746FF401B022801D90320B8
:103CA000F1E54A48006800F000700028F2D1D4E93C
:103CB0000810401E41EA0011A06A41EA0021208E4E
:103CC0000122C2EB500041EA40513420005DC2EBBA
:103CD000500041EA40612C20005D41EAC0603B4950
:103CE000C9683B4A114008433849C8600846006823
:103CF00040F0807008600846C06840F08070C8607E
:103D0000FEF710FF054606E0FEF70CFF401B0228F9
:103D100001D90320B7E52D48006800F000700028A5
:103D2000F2D051E02948006820F0807027490860EF
:103D3000FEF7F8FE054606E0FEF7F4FE401B0228FB
:103D400001D903209FE52148006800F00070002899
:103D5000F2D11E48C0681F4908401C49C86033E0C2
:103D6000FFE7E069012800D18DE51848C66806F034
:103D70000301206A814225D106F0F001606A401EED
:103D8000B1EB001F1ED106F4FE41A06AB1EB002F7B
:103D900018D106F078412C20005DB1EBC06F11D135
:103DA00006F4C001208E0122C2EB5000B1EB405F4F
:103DB00008D106F0C0613420005DC2EB5000B1EBC9
:103DC000406F01D001205EE500205CE5001002405C
:103DD0000C809F01FCFFEEFE2DE9F04104460D46EC
:103DE00016461F4614B90120BDE8F081D4F88800BA
:103DF00028B9002084F88400204600F0D9F8242057
:103E0000C4F888002068006820F00100216808607C
:103E1000A06A10B1204601F001F8204601F026F911
:103E2000012800D1E0E72068806840F480402168E4
:103E300088602068806820F40040284321688860FA
:103E40004FEA465848EA0748206800680749084092
:103E500040EA0800216808602068006840F001001E
:103E600021680860204601F055F8BDE7FFFF00FC1F
:103E700070B504462546681EB0F1807F01D301204D
:103E80000FE0681E4FF0E02148610F214FF0FF3036
:103E900001F030FB00204FF0E0218861072008612D
:103EA000002070BD014600BF91F88400012801D1B7
:103EB00002207047012081F8840000BF2420C1F84F
:103EC0008800086802680868006820F001000B6834
:103ED000186022F000520020486608680260202026
:103EE000C1F8880000BF002081F8840000BF00BF37
:103EF000DFE770B504460D4600BF94F88400012842
:103F000001D1022070BD012084F8840000BF24206C
:103F1000C4F88800206806682068006820F0010066
:103F2000216808602068806820F06060284321686C
:103F30008860204600F046FF206806602020C4F814
:103F4000880000BF002084F8840000BF00BFD9E7CC
:103F500070B504460D4600BF94F88400012801D1D5
:103F6000022070BD012084F8840000BF2420C4F822
:103F70008800206806682068006820F00100216839
:103F800008602068806820F06040284321688860CD
:103F9000204600F017FF206806602020C4F8880043
:103FA00000BF002084F8840000BF00BFD9E70000F4
:103FB00010B59CB00446142117A8FCF7F4F954215D
:103FC00002A8FCF7F0F92949206888424CD1022068
:103FD00002900020049002A8FFF7BCF808B1FCF79B
:103FE00046FD00BF2248806D40F4003020498865BE
:103FF0000846806D00F40030019000BF00BF00BF94
:104000000846C06C40F00100C8640846C06C00F06F
:104010000100019000BF00BF00BF0846C06C40F027
:104020000200C8640846C06C00F00200019000BFA6
:1040300000BF0A20179002201890002019901A90B3
:1040400007201B9017A94FF09040FEF76FFC082047
:10405000179002201890002019901A9007201B90AA
:1040600017A90448FEF762FC1CB010BD00440040D4
:10407000001002400004004800BFFEE78168024AC9
:104080001140491C81607047C0FFFF7F014688686E
:1040900000F0E07070470146886800F01F0070472C
:1040A000024602F1600000EB8103186800F0F8405E
:1040B000704701468868C0F3C000704701468868B1
:1040C00000F0010070470146886800F00100704769
:1040D00001468868C0F30070704701468868C0F3E5
:1040E0008000704701468868C0F380007047014631
:1040F000C86800F4406008B9012070470020FCE760
:104100008168024A1140091D81607047C0FFFF7F2E
:1041100070B500F11404C1F3406504EB85031C681D
:10412000C1F304560725B540AC43C1F3045502FA68
:1041300005F52C431C6070BD826822F0E0720A43D2
:104140008260704710B500F1600404EB81031C68C5
:1041500024F0004414431C6010BD426922F0004268
:104160000A4342617047000000B58BB00020089000
:1041700009900A9020216846FCF715F94FF0A040FD
:104180003D4908604FF44030486000213A48816062
:10419000C160016101214161042181610021017738
:1041A0000121417706210162002180F82410C162BB
:1041B0000163012180F838100021C16380F84010AC
:1041C000FDF7C6FA08B1FCF752FC0020089008A9D8
:1041D0002948FCF723FF08B1FCF749FC2748009069
:1041E0000620019002907F2003900420049000207C
:1041F000059069462048FCF7EDFF08B1FCF737FC55
:104200001F4800900C20019069461B48FCF7E2FF14
:1042100008B1FCF72CFC1B48009012200190694665
:104220001548FCF7D7FF08B1FCF721FC16480090B1
:104230001820019069461048FCF7CCFF08B1FCF744
:1042400016FC124800904FF48070019069460A48AD
:10425000FCF7C0FF08B1FCF70AFC0D4800904FF4D2
:104260008370019069460448FCF7B4FF08B1FCF77D
:10427000FEFB0BB000BD000018010020400020191B
:104280008000501D000180210002B0250800900C24
:104290000008302E00B589B0202101A8FCF783F872
:1042A0002D482E4908604FF44030486000212B48CB
:1042B0008160C160016101214161042181610021AE
:1042C00001770121417704210162002180F8241047
:1042D000C1620163012180F838100021C16380F8B8
:1042E0004010FDF735FA08B1FCF7C1FB1C480190FE
:1042F0000620029003907F20049004200590002067
:10430000069001A91548FCF765FF08B1FCF7AFFB63
:10431000144801900C20029001A91048FCF75AFFA4
:1043200008B1FCF7A4FB104801901220029001A9EB
:104330000A48FCF74FFF08B1FCF799FB0B480190C6
:104340001820029001A90548FCF744FF08B1FCF7CA
:104350008EFB09B000BD0000000100508401002068
:104360000800900C1000C0100008302E00106032C1
:1043700008B500BF1548806C40F0040013498864FC
:104380000846806C00F00400009000BF00BF00BF32
:104390000846806C40F0010088640846806C00F09C
:1043A0000100009000BF00BF002211460B20FEF765
:1043B00083FD0B20FEF76CFD002211460C20FEF75A
:1043C0007BFD0C20FEF764FD08BD000000100240DC
:1043D00010B51348134908600020486000211148B7
:1043E0008160C16001210174002141748174282120
:1043F0004161012181610D21C1610321016201211E
:1044000041628162C16201634163052181630021D0
:10441000C163FEF737F808B1FCF729FB10BD0000B7
:1044200000640040B002002010B513481349086032
:1044300000204860002111488160C16001210174A1
:1044400000214174817428214161012181610D2184
:10445000C16103210162012141628162C162016384
:104460004163052181630021C163FEF70BF808B1A8
:10447000FCF7FDFA10BD00000068004014030020A6
:1044800010B5124812490860002048600021104809
:104490008160C1600121017400214174817428216F
:1044A0004161012181610D21C1610321016201216D
:1044B00041628162C1620163416381630021C16322
:1044C000FDF7E0FF08B1FCF7D2FA10BD006C004028
:1044D0007803002000B587B0142102A8FBF763FF22
:1044E00000BF4148C06C40F020003F49C864084606
:1044F000C06C00F02000019000BF00BF00BF084664
:10450000C06C40F00400C8640846C06C00F00400B1
:10451000019000BF00BF00BF0846C06C40F0010022
:10452000C8640846C06C00F00100019000BF00BFE5
:1045300000BF0846C06C40F00200C8640846C06C6A
:1045400000F00200019000BF00BF00BF0846C06C31
:1045500040F00800C8640846C06C00F008000190F4
:1045600000BF00BF002231214FF09040FEF7D4FA87
:10457000002241F610011D48FEF7CEFA002240F657
:1045800003411B48FEF7C8FA312002900120039036
:1045900000200490059002A94FF09040FEF7C6F964
:1045A00041F6100002900120039000200490059035
:1045B00002A90E48FEF7BAF940F603400290012026
:1045C000039000200490059002A90948FEF7AEF977
:1045D0000420029000200390049002A90548FEF7F1
:1045E000A5F907B000BD0000001002400008004817
:1045F00000040048000C004810B512481249086039
:10460000124848600021104881600121C1600021EA
:10461000016141618161C1610162FEF7F3FA08B194
:10462000FCF725FA00210848FEF782FA08B1FCF7EA
:104630001EFA00210448FEF7B0FA08B1FCF717FA99
:1046400010BD000000540040DC030020C285B240D1
:1046500010B51948194908604FF4E130486000214D
:1046600016488160C16001610C21416100218161B6
:10467000C1610162416200201049886200231A462C
:1046800019460E48FFF7A8FB08B1FCF7F0F9002126
:104690000A48FFF75DFC08B1FCF7E9F9002107487B
:1046A000FFF727FC08B1FCF7E2F90448FFF7FAFB33
:1046B00008B1FCF7DCF910BD0044004030040020D4
:1046C00000BFFEE700BFFEE77047000010B5002204
:1046D0004FF480511B48FEF71FFA002201214FF0D2
:1046E0009040FEF719FA002210214FF09040FEF79B
:1046F00013FA002201211448FEF70EFA00224FF4AB
:1047000000611048FEF708FA002220214FF0904087
:10471000FEF702FA002210210A48FEF7FDF90022F6
:1047200002210948FEF7F8F900224FF4006106481B
:10473000FEF7F2F900224FF480610348FEF7ECF92E
:1047400010BD0000000800480004004810B5002219
:104750004FF480510B48FEF7DFF9002201214FF0A2
:104760009040FEF7D9F9002210214FF09040FEF75B
:10477000D3F9002201210448FEF7CEF900200349B5
:10478000087010BD00080048000400480000002028
:1047900010B500224FF400610B48FEF7BDF900226E
:1047A00020214FF09040FEF7B7F900221021064873
:1047B000FEF7B2F9002202210448FEF7ADF900200D
:1047C0000349087010BD00000008004800040048BC
:1047D0000100002070B51748007800B970BD0120B5
:1047E00000F0C4F80546022000F0C0F804461DB9E8
:1047F00014B9FFF76BFFF1E7284600F067F9204690
:1048000000F092F90C4A1278022A01D1012200E04C
:1048100000221146094A1278022A01D1012200E041
:104820000022104600F048FA2146284600F030FAEF
:1048300000BFD3E70200002001000020000000209C
:1048400010B5012005490870002005490870054988
:104850000870FFF7BFFF002010BD0000020000201D
:10486000000000200100002010B5012211464FF089
:104870009040FEF751F9012210214FF09040FEF7D1
:104880004BF9002201210348FEF746F902200249B4
:10489000087010BD000400480000002010B501227F
:1048A00020214FF09040FEF737F9012210210648F1
:1048B000FEF732F9002202210448FEF72DF902200A
:1048C0000349087010BD00000008004800040048BB
:1048D00001000020012803D1034991ED000A70472F
:1048E000024991ED000AFAE7500000207400002010
:1048F00070B52DED028B04460D4634B32DB3184828
:10490000007800BB0120FFF7E5FFF0EE408A0220AF
:10491000FFF7E0FF38EEC08A9FED120AB4EEC08ABE
:10492000F1EE10FA03DD0120BDEC028B70BD9FEDAE
:104930000E0AB4EEC08AF1EE10FA01D20220F3E7BB
:104940000120074908700320EEE7002004490870A1
:104950000CB10120E8E70DB10220E5E70020E3E714
:104960000C000020CDCCCC3DCDCCCCBD70B50546E7
:10497000FEF7D8F80446012D18D11948006898B1FF
:104980001848006880B118480068201AB0F5FA6F1E
:104990000AD816480068201AB0F5FA6F04D81448EF
:1049A000007808B1012070BD0020FCE711480068C4
:1049B00098B11148006880B110480068201AB0F51D
:1049C000FA6F0AD80E480068201AB0F5FA6F04D8BA
:1049D0000C48007808B10120E5E70020E3E700007B
:1049E0005C0000206C0000206000002070000020AF
:1049F000650000208000002090000020840000203E
:104A0000940000208900002010B5044604F0010243
:104A100010214FF09040FEF77FF8C4F340021021C0
:104A20000148FEF779F810BD0008004810B50022D3
:104A30004FF480510D48FEF76FF8002201214FF02E
:104A40009040FEF769F8002210214FF09040FEF7E9
:104A500063F8012211460648FEF75EF8FEF762F899
:104A60000449086001200449087010BD000800488E
:104A700000040048040000200000002010B50022BF
:104A80004FF400610D48FEF747F8002220214FF057
:104A90009040FEF741F8002210210848FEF73CF84C
:104AA000012202210648FEF737F8FEF73BF80549D8
:104AB000086001200449087010BD0000000800488B
:104AC00000040048080000200100002010B5044642
:104AD00014B9FFF73BFE10BD1048007810B9FFF77E
:104AE000A5FF19E00D48007801280AD1FEF71AF851
:104AF0000B490968401AB0F5FA7F0DD3FFF7B4FEF1
:104B00000AE0012211464FF09040FEF705F800221E
:104B100001210448FEF700F800BFDCE70000002098
:104B2000040000200004004810B5044614B9FFF743
:104B30002FFE10BD1048007810B9FFF79FFF19E055
:104B40000D48007801280AD1FDF7ECFF0B490968F0
:104B5000401AB0F5FA7F0DD3FFF7A0FE0AE001225C
:104B600020214FF09040FDF7D7FF0022022104489A
:104B7000FDF7D2FF00BFDCE70100002008000020A5
:104B80000004004810B54FF480513548FDF7BCFFD4
:104B9000012800D100E000203249087001214FF0C7
:104BA0009040FDF7B1FF012800D100E000202E4920
:104BB000087010214FF09040FDF7A6FF012800D1AA
:104BC00000E000202949087001212948FDF79CFFD9
:104BD000012800D100E00020264908704FF4006150
:104BE0001F48FDF791FF012800D100E00020224975
:104BF000087020214FF09040FDF786FF012800D17A
:104C000000E000201D49087010211548FDF77CFFC9
:104C1000012800D100E00020194908700221144841
:104C2000FDF772FF012800D100E00020154908704F
:104C30004FF480610E48FDF767FF012800D100E0C6
:104C40000020114908704FF400610948FDF75CFF2E
:104C5000012800D100E000200C49087010BD0000C0
:104C6000000800480D0000200E0000200F0000206A
:104C70000004004810000020110000201200002055
:104C80001300002014000020150000201600002052
:104C900070B505460C4605B92CB1012291020548B4
:104CA000FDF73AFF05E000224FF480610148FDF76F
:104CB00033FF70BD0004004870B504460D46294618
:104CC0002046FFF715FE0646FFF79EFE70BD00006A
:104CD00070B5164DED6805F00304144DED68C5F38D
:104CE00003156B1C022C0CD0032C09D1104DB5FB05
:104CF000F3F50E4EF668C6F3062605FB06F10AE04C
:104D000000BF0C4DB5FBF3F5084EF668C6F306265A
:104D100005FB06F100BF00BF044DED68C5F341651A
:104D20006D1C6A00B1FBF2F070BD00000010024083
:104D300000366E010024F400704710B5FEF734F819
:104D400010BD00B593B0382105A8FBF72CFB14214A
:104D50006846FBF728FB0020FEF700F901200590CC
:104D60000004069002200C9003210D9106210E9163
:104D700055210F91022110910821119102211291C8
:104D800005A8FEF77BFD08B1FBF771FE0F20009030
:104D900003200190002002900390049004216846B3
:104DA000FEF7E4FB08B1FBF762FE13B000BD0000A4
:104DB0000348006840F47000014908607047000033
:104DC00088ED00E070B5456E2DB90125A0F86A5058
:104DD000A0F868501CE0082308240568AD68C5F3F6
:104DE00042610568AD686A0F0A4DAD5C15FB04F5BC
:104DF000094EB65C95FBF6F5A0F86A50054D6D5C62
:104E000015FB03F5044E765C95FBF6F5A0F86850AB
:104E100070BD0000C8550008D055000890F8281053
:104E200001F00801082907D10168496821F400410F
:104E3000826B11430268516090F8281001F0010163
:104E400039B10168496821F40031C26A114302682E
:104E5000516090F8281001F00201022907D1016881
:104E6000496821F48031026B11430268516090F867
:104E7000281001F00401042907D10168496821F4D0
:104E80008021426B11430268516090F8281001F0B4
:104E90001001102907D10168896821F48051C26B83
:104EA00011430268916090F8281001F02001202938
:104EB00007D10168896821F40051026C114302682E
:104EC000916090F8281001F04001402913D1016849
:104ED000496821F48011426C114302685160416CB1
:104EE000B1F5801F07D10168496821F4C001826CC7
:104EF00011430268516090F8281001F08001802968
:104F000007D10168496821F40021C26C114302688D
:104F10005160704738B504460020C4F89000FDF792
:104F200001FE05462068006800F00800082821D12D
:104F30006FF07E402B4600224FF400110090204677
:104F400000F078FAB0B100BF00BF216851E8001F3F
:104F500021F08000226842E800010029F5D100BF5D
:104F60002020C4F8880000BF002084F8840000BF1F
:104F7000032038BD2068006800F00400042830D108
:104F80006FF07E402B4600224FF4800100902046B7
:104F900000F050FA28B300BF00BF216851E8001F9D
:104FA00021F49070226842E800010029F5D100BF89
:104FB00000BF00BF2168083151E8001F21F0010047
:104FC0002168083141E80002002AF3D100BF202007
:104FD000C4F88C0000BF002084F8840000BF0320C8
:104FE000C7E72020C4F88800C4F88C000020E066E1
:104FF000206700BF84F8840000BF00BFB9E700004D
:1050000000BF00BF026852E8002F22F490710368CD
:1050100043E80012002AF5D100BF00BF00BF0268BC
:10502000083252E8002F104B02EA030102680832EE
:1050300042E80013002BF2D100BFC16E01290CD150
:1050400000BF00BF026852E8002F22F01001036881
:1050500043E80012002AF5D100BF2021C0F88C10CF
:105060000021C16641677047FEFFFFEF2DE9FE4F4B
:10507000044600200290E4492068884200D100E004
:1050800000BF2169A068084361690843E16940EAFB
:10509000010820680068DD49084040EA08002168EE
:1050A00008602068406820F44050E16808432168A7
:1050B0004860D4F81880D4492068884202D0206A19
:1050C00040EA080820688068D149084040EA0800A2
:1050D000216888602068C06A20F00F00616A084378
:1050E0002168C86200BFCB492068884216D1CA48EF
:1050F000006800F0030030B1012808D0022804D075
:10510000032808D105E0012507E0022505E0042574
:1051100003E0082501E0102500BF8DE0BF492068AD
:10512000884216D1BC48006800F00C0030B1042859
:1051300008D0082804D00C2808D105E0002507E095
:10514000022505E0042503E0082501E0102500BF45
:1051500072E0B3492068884216D1AF48006800F079
:10516000300030B1102808D0202804D0302808D1D1
:1051700005E0002507E0022505E0042503E00825F9
:1051800001E0102500BF57E0A6492068884216D1EB
:10519000A148006800F0C00030B1402808D0802845
:1051A00004D0C02808D105E0002507E0022505E06D
:1051B000042503E0082501E0102500BF3CE09A49E2
:1051C0002068884219D19448006800F4407048B1C2
:1051D000B0F5807F0AD0B0F5007F05D0B0F5407FF4
:1051E00008D105E0002507E0022505E0042503E0DD
:1051F000082501E0102500BF1EE083492068884291
:1052000019D18548006800F4406048B1B0F5806F5E
:105210000AD0B0F5006F05D0B0F5406F08D105E0B9
:10522000002507E0022505E0042503E0082501E04C
:10523000102500BF00E0102500BF73492068884298
:105240005BD135B1022D08D0042D08D0082D0DD129
:1052500009E0FEF7A3FA06460CE0744E0AE0FEF7FA
:10526000C1FA064606E04FF4004603E0002601209E
:10527000029000BF00BF002E10D06D49606A31F867
:105280001000B6FBF0F9606800EB4000484503D819
:1052900060680003484502D201200290A8E06449FA
:1052A000606A31F810C06246002330461946FBF7A9
:1052B00003F84FF4807C0022A0FB0C3B01FB0CB1F7
:1052C00000FB02106168490859185041CDE90010EF
:1052D000D4F804C06246002308460199FAF7ECFFAF
:1052E0000746B7F5407F05D3B7F5801F02D2206887
:1052F000C7607DE0012002907AE0E069B0F5004FE0
:105300003FD1092D17D2DFE805F005090D160F165C
:1053100016161300FEF742FA064610E0FEF750FAA2
:1053200006460CE0414E0AE0FEF75CFA064606E04F
:105330004FF4004603E000260120029000BF00BFAA
:1053400086B33B49606A31F81000B6FBF0F04000CC
:10535000616800EB5100B0FBF1F7102F0ED3B7F5E9
:10536000803F0BD24FF6F07007EA000AC7F3420005
:105370004AEA000A2068C0F80CA039E00120029037
:1053800036E0092D18D2DFE805F005090E171017D1
:1053900017171400FEF702FA064611E0FEF710FA9E
:1053A00006460DE024E0214E0AE0FEF71BFA064611
:1053B00006E04FF4004603E000260120029000BF03
:1053C00000BFAEB11A49606A31F81000B6FBF0F0C8
:1053D000616800EB5100B0FBF1F7102F06D3B7F571
:1053E000803F03D2B8B22168C86001E0012002907A
:1053F0000120A4F86A00A4F8680000206067A06794
:105400000298BDE8FE8F000000800040F369FFCFE6
:10541000FFF4FF11003801408810024000440040B2
:1054200000480040004C0040005000400024F400C0
:10543000B05500082DE9F04104460D461746984640
:10544000069E41E0701C00283ED0FDF76BFBA0EBF0
:105450000800B04200D816B90320BDE8F0812068EA
:10546000006800F0040070B3802D2DD0402D2BD0AB
:105470002068C069C0F3C00078B1082021680862C4
:105480002046FFF7BDFD0820C4F8900000BF0020B3
:1054900084F8840000BF0120DFE72068C069C0F302
:1054A000C02080B14FF40060216808622046FFF7F9
:1054B000A7FD2020C4F8900000BF002084F88400DD
:1054C00000BF0320C9E7FFE72068C0692840A84261
:1054D00001D1012000E00020B842B3D00020BCE799
:1054E00000BFFEE702480068C0F3022070470000DA
:1054F0000CED00E010B5002804DB0A07130E054A86
:10550000135406E00A07140E034A00F00F031B1F92
:10551000D45410BD00E400E018ED00E0FDF750FCAD
:10552000FFF70FFCFEF7D6FFFEF722FFFEF71CFE8B
:10553000FEF7B0FEFEF74CFFFEF776FFFEF7A0FF8A
:10554000FFF75AF8FFF784F8FAF792FFFAF79CFF93
:105550001420FCF785FDFBF79BF9FAF7A1FFFBF799
:10556000B9FAFFF70FFBFFF76BF909E0FBF790F9CA
:10557000FAF796FFFBF7DEFAFFF704FBFFF72AF9CD
:10558000F4E74FF04070E1EE100A7047008002042B
:10559000008006040080030400800E0400800704DD
:1055A0000001020304050607080C101418203040FF
:1055B000010002000400060008000A000C001000B0
:1055C00020004000800000010101010307010000EC
:1055D00008040204080101010000000000000000AE
:1055E0000102030406070809000000000102030489
:1055F0001056000800000020AC0000001402000853
:10560000BC560008AC0000207C0A000030020008F4
:10561000000000000000000000000000000000008A
:10562000000000000000000000000000000000007A
:10563000000000000000000000000000000000006A
:10564000000000000000000000000000000000005A
:10565000000000000000000000000000000000004A
:10566000000000000000000000000000000000003A
:10567000000000000000000000000000000000002A
:10568000000000000000000000000000000000001A
:10569000000000000000000000000000000000000A
:1056A00000000000000000000000000000000000FA
:0C56B00010000000010000000024F400C5
:04000005080001D915
:00000001FF
